:060000000A128A11F32F21
:1008020064008001840A0406031900340406022CE1
:10081200F3007308F20002300310F20DFF3E031DD5
:100822000D2C0310720D413E831203139F000330FF
:10083200B6001D2C0130B6023608031D212C222CD5
:100842001B2C1F151F19262C272C232C1E08F100E8
:10085200831603131E08F0000800F401F501701C52
:10086200332C342C3A2C7208F4070318F50A730857
:10087200F50701300310F20DF30DFF3E031D3B2C73
:1008820001300310F10CF00CFF3E031D422C7008E6
:100892007104031D4D2C4E2C302C7508F100740888
:1008A200F0000800F7007008840083130008F100CC
:1008B200840A0008F20004300310F20CF10CFF3E2F
:1008C200031D5D2C770884000008F300840A0008E9
:1008D200F40004300310F40CF30CFF3E031D6B2CE8
:1008E20071087302F5007208031C720A7402F600A2
:1008F2007008840075088007840F00080318000A36
:10090200FF0076087F0780008403080077088312BF
:100912000313D4007608D3005408D90034305902A6
:100922000318942C952C972CD801BC2CCC3059024E
:10093200031C9C2C9D2CA02CFB30D800BC2C5908ED
:10094200CD3ED7005708F800F9017808F000790881
:10095200F1006430F2000130F3000A128A112E24F1
:100962000A128A11710883120313D6007008D50087
:100972005608253ED8005808080083120313870141
:1009820083160313870106101C308312031385009C
:10099200831603138113E33085009F13831203131D
:1009A200B9010609C6004608DC00B6010830360265
:1009B200031CDC2CDD2CDE2CE92C3608203E8400C6
:1009C2005C08831380000130DA005A08B607D72C7E
:1009D2005C08C500C40100300A128A1109240A12F7
:1009E2008A11710883120313CA007008C90001300A
:1009F2000A128A1109240A128A1171088312031336
:100A0200CC007008CB0004300A128A1109240A12A1
:100A12008A11710883120313C8007008C700871671
:100A22009B0195010F309D040F3097041208FC3989
:100A320001389200FA3083160313920083120313D3
:100A42001215F8308F0030308E00101464008312BB
:100A520003130C1C2D2D2E2D272DF8308F00303036
:100A62008E000C100130DA005A08B7070730DA009E
:100A72005A08B7050609C6003708203E8400460812
:100A820083138000FF30BB00BA01B6010830360282
:100A9200031C4C2D4D2D4E2D612D3608203E840019
:100AA2000008DA005A08BB053608203E8400000818
:100AB200DA005A08BA040130DA005A08B607472D9C
:100AC2003A085C05DA005C093B055A04C5005C097A
:100AD2004505C4004508DC0000300A128A110924C9
:100AE2000A128A11710883120313D0007008CF0012
:100AF20001300A128A1109240A128A11710883121A
:100B02000313D2007008D10004300A128A1109249A
:100B12000A128A11710883120313CE007008CD00E5
:100B22004930F0004F300A128A1153240A128A11F6
:100B32004B30F00051300A128A1153240A128A11E2
:100B42004730F0004D300A128A1153240A128A11DA
:100B520083120313AF1BAE2DB02D0130B12D003027
:100B6200BF00AF1AB52DB72D0130B82D0030BE0031
:100B72000130DA005A08AF0732080319C12DC22D1D
:100B8200CD2D0130DA005A08B20705303202031CBB
:100B9200CB2DCC2DCD2DB20133304A023430031986
:100BA20049020318D52DD72D0130D82D0030BD00B4
:100BB2003D0C031C871103188715DB012D304C02F5
:100BC200093003194B02031CE72DE82DF32D643085
:100BD2004C024C3003194B020318F02DF12DF32D6A
:100BE200DB01DB0A5B0C031C0610031806143D082C
:100BF2000319FC2DFD2D172E3C3039060319022E48
:100C0200032E172E223048024930031947020318D7
:100C12000B2E0C2E172E3F30DA005A0887053C3077
:100C2200B9000712B201B20A8717922E29304C027C
:100C3200F63003194B0203181F2E202E322E3230AB
:100C420039060319252E262E322E3F30DA005A0895
:100C5200870507129B01B201B20A87173230B90029
:100C6200922EC51C352E362E552E1E3039060319EE
:100C72003B2E3C2E552E3C3039060319412E422E76
:100C8200552E323039060319472E482E552EB20101
:100C9200B20A07129B013F30DA005A08870587170C
:100CA20087121E30B900922E40080319592E5A2E6F
:100CB200652E1E30390603195F2E602E652E07122F
:100CC2009B010830B900922E47304C02A53003191F
:100CD2004B02031C6D2E6E2E7F2E34303906031903
:100CE200732E742E7F2E07123F30DA005A088705C2
:100CF200871287179B013430B900922E1E303906B5
:100D02000319842E852E922E4A08F7004908F60010
:100D12000A128A1187240A128A1183120313B0005D
:100D2200922E3A302D02993003192C02031C9A2E6E
:100D32009B2EAF2EAC01AD013A304C02D9300319D3
:100D42004B020318A52EA62EAD2E3C080319AA2E7F
:100D5200AB2EAD2EC001C00ABC01BB2E2C082D0447
:100D62000319B42EB52EBB2E0130AC070318AD0A01
:100D72000030AD073D080319BF2EC02EC92E00302A
:100D8200AB000030AA000030A9000030A800FC2E01
:100D92002B08031DDC2E02302A02031DD82E4930F7
:100DA2002902031DD82EF1302802031DD82E031C60
:100DB200DB2EDC2EE42E831203138501FF30831613
:100DC20003138500FC2E1C30831203138500E330CD
:100DD200831603138500013083120313A807003022
:100DE20003180130A907003003180130AA070030A8
:100DF20003180130AB073230831231020318022F7D
:100E0200032FD22F0130DA005A08B107B901D22FCD
:100E12000230B9000717272D30080319112F122F9E
:100E2200272D0A30B9000716272D3F0C031C871304
:100E320003188717272D0130DA005A08B307333019
:100E42003302031C252F262FEF2FB3010C30B900DC
:100E520025309B00BC01272D253030020318322F8C
:100E6200332F412F9B0107120230B9003F30DA00C5
:100E72005A08870507170130AC000030AD00732F08
:100E8200FB303002031C462F472F4F2F30081B0226
:100E9200031C4C2F4D2F4F2F0717732F3E0C031C93
:100EA20007130318071730081B020318592F5A2F6C
:100EB2006A2F0130DA005A08B50705303502031CE3
:100EC200632F642F732FB5010130DA005A089B0794
:100ED200732FFB30300203186F2F702F732F3008DF
:100EE2009B00732FC001B201B20A38304C024A3063
:100EF20003194B0203187E2F7F2FEF2FBC01BC0A70
:100F0200272DC518852F862F8F2F87163F30DA00A1
:100F12005A08870507170230B900272D3208031D2A
:100F2200932F942FEF2FDF30DA005A0887058717A7
:100F3200272D34304C02333003194B02031CA22FED
:100F4200A32FAC2F0230B9003F30DA005A088705D0
:100F520007178716272D8712272D46304C021B3084
:100F620003194B020318B62FB72FEF2FA32F320806
:100F72000319BC2FBD2FBE2F272DC41EC12FC22F78
:100F8200AC2F29304802F73003194702031CCA2F3D
:100F9200CB2FAC2F862F3E0C031C87130318871709
:100FA200272D3908003A0319092F023A03190D2F88
:100FB2000A3A0319162F023A03191C2F063A03198B
:100FC2002D2F123A0319822F2C3A03199A2F063A1F
:100FD2000319AE2F083A0319B82FCC2F272D0A1266
:100FE2008A11002883132030840053300A128A1198
:0E0FF20001240A128A1183010A128A11BE2CF0
:08400000FF3FFF3FFF3FFF3FC0
:02400E00450D5E
:00000001FF
