:060000000A128A11F32F21
:1003DE0064008001840A0406031900340406F0291F
:1003EE00831203133308031DFD29FE29162AFB3041
:1003FE001B02031C032A042A052A162A0130F000C8
:10040E007008B60703303602031C0E2A0F2A162A6E
:10041E00B6010130F00070089B071B08950008001C
:10042E00F3007308F20002300310F20DFF3E031DBD
:10043E001B2A0310720D413E831203139F000330DB
:10044E00B7002B2A0130B7023708031D2F2A302A96
:10045E00292A1F151F19342A352A312A1E08F100A0
:10046E00831603131E08F0000800F401F501701C3A
:10047E00412A422A482A7208F4070318F50A73081B
:10048E00F50701300310F20DF30DFF3E031D492A4F
:10049E0001300310F10CF00CFF3E031D502A7008C2
:1004AE007104031D5B2A5C2A3E2A7508F10074084C
:1004BE00F0000800F7007008840083130008F100B4
:1004CE00840A0008F20004300310F20CF10CFF3E17
:1004DE00031D6B2A770884000008F300840A0008C5
:1004EE00F40004300310F40CF30CFF3E031D792AC4
:1004FE0071087302F5007208031C720A7402F6008A
:10050E007008840075088007840F00080318000A1D
:10051E00FF0076087F0780008403080077088312A7
:10052E000313D6007608D5005608DB0034305B0284
:10053E000318A22AA32AA52ADA01CA2ACC305B0202
:10054E00031CAA2AAB2AAE2AFB30DA00CA2A5B08A1
:10055E00CD3ED9005908F800F9017808F000790865
:10056E00F1006930F2000130F3000A128A113C22C8
:10057E000A128A11710883120313D8007008D7006B
:10058E005808223EDA005A08080018308312031366
:10059E0083002030DD000030DE0000305E06031DDB
:1005AE00DA2A5D305D060319DD2ADE2AE42A5D08AB
:1005BE00840083175E1C831380010130DD0703184E
:1005CE00DE0A0030DE0700305E02803003195D0265
:1005DE00031CF22AF32AD42A8701831603138701F8
:1005EE0006111C3083120313850083160313811327
:1005FE00E33085009F1383120313BA010609BB0073
:10060E00B70108303702031C0D2B0E2B0F2B1A2BA4
:10061E003708203E84003B08831380000130DC0045
:10062E005C08B707082B3B08C800C70100300A1248
:10063E008A1117220A128A11710883120313CC0031
:10064E007008CB0001300A128A1117220A128A1181
:10065E00710883120313CE007008CD0004300A1205
:10066E008A1117220A128A11710883120313CA0003
:10067E007008C9009B0195010F309D040F3097043F
:10068E001208FC3901389200FA30831603139200D7
:10069E00831203131215F8308F0030308E001014B1
:1006AE006400831203130C1C5D2B5E2B572BF8304A
:1006BE008F0030308E000C100130DC005C08B80763
:1006CE000730DC005C08B8053808203E84000609B7
:1006DE0083138000FF30BD00BC01B7010830370224
:1006EE00031C7A2B7B2B7C2B8F2B3708203E840010
:1006FE000008DC005C08BD053708203E84000008B9
:10070E00DC005C08BC040130DC005C08B707752B0C
:10071E003C083B05DC003B093D055C04C8003B0979
:10072E004805C7004808BB0000300A128A1117227C
:10073E000A128A11710883120313D2007008D100B5
:10074E0001300A128A1117220A128A1171088312B5
:10075E000313D4007008D30004300A128A11172232
:10076E000A128A11710883120313D0007008CF0089
:10077E004B30F00051300A128A1161220A128A118E
:10078E004D30F00053300A128A1161220A128A117A
:10079E004930F0004F300A128A1161220A128A1172
:1007AE0083120313B01BDC2BDE2B0130DF2B00304A
:1007BE00C100B01AE32BE52B0130E62B0030C00050
:1007CE000130DC005C08B00733080319EF2BF02B67
:1007DE00042C0130DC005C08B30724303302031C08
:1007EE00F92BFA2BFC2BB301042C0B303302031C18
:1007FE00012C022C042C0712871233304C02343099
:10080E0003194B0203180C2C0E2C01300F2C003048
:10081E00BF003F0C031C87110318871505303A02E1
:10082E00031C1A2C1B2C1C2CC6013230320203184E
:10083E00212C222C282C0130DC005C08B207BA01D6
:10084E00D62C3F0803192C2C2D2C462C3C303A0666
:10085E000319322C332C462C22304A02493003190C
:10086E00490203183B2C3C2C462C3F30DC005C0824
:10087E0087053C30BA00B301B30A8717D62C481C43
:10088E00492C4A2C692C28303A0603194F2C502C2F
:10089E00692C0A303A060319552C562C692C0C304B
:1008AE003A0603195B2C5C2C692C3F30DC005C088B
:1008BE008705B301B30A95019B01B50107172830CF
:1008CE00BA00D62C29304E02F63003194D02031809
:1008DE00712C722C842C32303A060319772C782C1A
:1008EE00842C3A08B9003F30DC005C088705B30160
:1008FE00B30A87173230BA00D62C42080319882C57
:10090E00892C902C95019B012630BA00B301B30AB5
:10091E00D62C4D304E02C93003194D02031C982CB3
:10092E00992CB02C37303A0603199E2C9F2CB02CE4
:10093E0028303A060319A42CA52CB02C3A08B9007D
:10094E00B301B30A3730BA003F30DC005C088705CC
:10095E00442C3108031DB42CB52CC92C4C08F700BF
:10096E004B08F6000A128A1195220A128A11831276
:10097E000313B100253031020318C62CC72CD62C18
:10098E00B101D62C4C08F7004B08F6000A128A115A
:10099E0095220A128A1183120313B100D62C473006
:1009AE004E02A53003194D02031CDE2CDF2CE12C68
:1009BE000615EB2C46304E021B3003194D02031860
:1009CE00E92CEA2CEB2C06113A302D029930031942
:1009DE002C02031CF32CF42C082DAC01AD013A3083
:1009EE004E02D93003194D020318FE2CFF2C062D92
:1009FE003E080319032D042D062DC201C20ABE01A5
:100A0E00212D2C082D0403190D2D0E2D212D003016
:100A1E0007190130DC003A085C020318172D182D57
:100A2E001B2DAC01AD01212D0130AC070318AD0A11
:100A3E000030AD073F080319252D262D2F2D003030
:100A4E00AB000030AA000030A9000030A800622DD3
:100A5E002B08031D422D02302A02031D3E2D493064
:100A6E002902031D3E2DF1302802031D3E2D031CCD
:100A7E00412D422D4A2D831203138501FF3083161B
:100A8E0003138500622D1C30831203138500E3309F
:100A9E00831603138500013083120313A807003059
:100AAE0003180130A907003003180130AA070030DF
:100ABE0003180130AB073230831232020318682D4F
:100ACE00692DBD2F0130DC005C08B207BA01BD2FC5
:100ADE00323032020318742D752D772DBA01E32FA3
:100AEE000230BA000717E32F3F08031D7F2D802D1C
:100AFE00822DC601C60A45080319862D872D892D1C
:100B0E00C501AA2DC71E8C2D8D2D942DC030DC0055
:100B1E005C0887040430BA00AA2D46080319982DE4
:100B2E00992DA52D310803199D2D9E2DA52DC6019C
:100B3E0095019B010A30BA00B401AA2D0A128A113E
:100B4E00F7210A128A1183120313410C031C071397
:100B5E000318071741080319B52DB92D8312031376
:100B6E008717BC2D831203138713E32F3F08031D32
:100B7E00C12DC22DC42DC601C60AC81AC72DC82D37
:100B8E00CD2D3F30DC005C088705772D4608031914
:100B9E00D12DD22DDE2D31080319D62DD72DDE2DD8
:100BAE00C60195019B011430BA00B401E32F0A125D
:100BBE008A11F7210A128A1183120313410C031CA6
:100BCE000713031807178717E32F410C031C87130E
:100BDE0003188717E32F0130DC005C08B4070A30D6
:100BEE003406031DFB2DFC2DFF2D87120716E32F58
:100BFE0033303402031C042E052EE32F0C30BA00C2
:100C0E0022309B009501BE01E32F3108031D102EEB
:100C1E00112E202E9B010230BA003F30DC005C0802
:100C2E00870507170130AC000030AD00B301B30AE1
:100C3E00522EFB303102031C252E262E2E2E31086D
:100C4E001B02031C2B2E2C2E2E2E0717522E400C61
:100C5E00031C07130318071731081B020318382E3D
:100C6E00392E492E0130DC005C08B60703303602FF
:100C7E00031C422E432E522EB6010130DC005C08BE
:100C8E009B07522EFB30310203184E2E4F2E522E42
:100C9E0031089B00522EC20138304E024A300319E1
:100CAE004D0203185B2E5C2EE32FBE01BE0AE32F0E
:100CBE000130DC005C08B4070A303406031D682ED0
:100CCE00692E6C2E87160712E32F33303402031C65
:100CDE00712E722EE32F1630BA00223095009B0132
:100CEE000A2E3108031D7C2E7D2E8B2E9501B3010D
:100CFE00B30A0430BA00C030DC005C08870401304F
:100D0E00AC000030AD00D72EC81A8E2E8F2E992E25
:100D1E00950187123F30DC005C088705071702300B
:100D2E00BA00862EFB303102031C9E2E9F2EAA2E59
:100D3E0031081502031CA42EA52EAA2EC030DC00ED
:100D4E005C088704D72E40080319AE2EAF2EB42EA2
:100D5E00C030DC005C088704B82E3F30DC005C0835
:100D6E008705310815020318BD2EBE2ECE2E01307A
:100D7E00DC005C08B60703303602031CC72EC82EF3
:100D8E00D72EB6010130DC005C089507D72EFB305C
:100D9E0031020318D32ED42ED72E31089500D72E1C
:100DAE0038304E024A3003194D020318DF2EE02E62
:100DBE00E22EBE01BE0AC201E32FFB301B02031C52
:100DCE00E92EEA2EF52E9B01B301B30A3F30DC006B
:100DDE005C08870507170230BA00E32F3308031D9E
:100DEE00F92EFA2EE32F22301B020318FF2E002FAE
:100DFE00032F22309B0007160130DC005C08B5077C
:100E0E0002303502031C0C2F0D2F122FB5010130AD
:100E1E00DC005C089B07400C031C07130318071724
:100E2E00E32F34304E02333003194D02031C202FB2
:100E3E00212F422F3F30DC005C08870595019B0176
:100E4E00C201BE011430390603192E2F2F2F3B2F4E
:100E5E00043039060319342F352F3B2F163039063F
:100E6E00031D3A2F3B2FED2EC030DC005C088704AB
:100E7E000430BA00E32FFB3015060319472F482F15
:100E8E004F2F3308031D4C2F4D2F4F2FFB30950046
:100E9E00FB301B060319542F552FE32F3308031D68
:100EAE00592F5A2FE32FFB309B00E32F46304E0273
:100EBE001B3003194D020318652F662F7B2F9B01E4
:100ECE0095011430390603196D2F6E2F3B2F043008
:100EDE0039060319732F742F3B2F16303906031D55
:100EEE00792F7A2FED2E3B2FFB3015060319802F0D
:100EFE00812F882F3308031D852F862F882FFB30D7
:100F0E009500FB301B0603198D2F8E2FE32F330810
:100F1E00031D922F932FE32F5A2F33080319982F67
:100F2E00992F9A2FE32FC71E9D2F9E2FAA2F293060
:100F3E004A02F73003194902031CA62FA72FAA2F26
:100F4E0095019B01ED2E3F080319AE2FAF2FB42F45
:100F5E00FB309500FB309B00E32F95019B01E32FA7
:100F6E00400C031C871303188717E32F3A08003A27
:100F7E0003196F2D023A03197B2D063A0319BD2D65
:100F8E000E3A0319F22D063A03190C2E183A0319CC
:100F9E005F2E023A0319782E303A0319EC2D0E3AD1
:100FAE000319E42E1A3A0319182F053A03195D2F67
:100FBE000B3A0319942FB72F1B080319E72FE82FAD
:100FCE00E92F871215080319ED2FEE2F572B071255
:100FDE00572B0A128A1100288313203084005530B3
:100FEE000A128A11EF210A128A1183010A128A113A
:020FFE00CC2AFB
:08400000FF3FFF3FFF3FFF3FC0
:02400E00450D5E
:00000001FF
