:060000000A128A11F32F21
:1003FC0064008001840A0406031900340406FF29F2
:10040C00831203133308031D0C2A0D2A252AFB30F3
:10041C001B02031C122A132A142A252A0130F0006D
:10042C007008B60703303602031C1D2A1E2A252A23
:10043C00B6010130F00070089B071B0895000800FE
:10044C00F3007308F20002300310F20DFF3E031D9F
:10045C002A2A0310720D413E831203139F000330AE
:10046C00B7003A2A0130B7023708031D3E2A3F2A4B
:10047C00382A1F151F19432A442A402A1E08F10046
:10048C00831603131E08F0000800F401F501701C1C
:10049C00502A512A572A7208F4070318F50A7308D0
:1004AC00F50701300310F20DF30DFF3E031D582A22
:1004BC0001300310F10CF00CFF3E031D5F2A700895
:1004CC007104031D6A2A6B2A4D2A7508F100740801
:1004DC00F0000800F7007008840083130008F10096
:1004EC00840A0008F20004300310F20CF10CFF3EF9
:1004FC00031D7A2A770884000008F300840A000898
:10050C00F40004300310F40CF30CFF3E031D882A96
:10051C0071087302F5007208031C720A7402F6006B
:10052C007008840075088007840F00080318000AFF
:10053C00FF0076087F078000840308007708831289
:10054C000313D6007608D5005608DB0034305B0266
:10055C000318B12AB22AB42ADA01D92ACC305B02A8
:10056C00031CB92ABA2ABD2AFB30DA00D92A5B0847
:10057C00CD3ED9005908F800F9017808F000790847
:10058C00F1006930F2000130F3000A128A114B229B
:10059C000A128A11710883120313D8007008D7004D
:1005AC005808223EDA005A08080018308312031348
:1005BC0083002030DD000030DE0000305E06031DBD
:1005CC00E92A5D305D060319EC2AED2AF32A5D0851
:1005DC00840083175E1C831380010130DD07031830
:1005EC00DE0A0030DE0700305E02803003195D0247
:1005FC00031C012B022BE32A8701831603138701AB
:10060C0006111C3083120313850083160313811308
:10061C00E33085009F1383120313BA010609BB0054
:10062C00B70108303702031C1C2B1D2B1E2B292B4A
:10063C003708203E84003B08831380000130DC0027
:10064C005C08B707172B3B08C800C70100300A121B
:10065C008A1126220A128A11710883120313CC0004
:10066C007008CB0001300A128A1126220A128A1154
:10067C00710883120313CE007008CD0004300A12E7
:10068C008A1126220A128A11710883120313CA00D6
:10069C007008C9009B0195010F309D040F30970421
:1006AC001208FC3901389200FA30831603139200B9
:1006BC00831203131215F8308F0030308E00101493
:1006CC006400831203130C1C6C2B6D2B662BF830FF
:1006DC008F0030308E000C100130DC005C08B80745
:1006EC000730DC005C08B8053808203E8400060999
:1006FC0083138000FF30BD00BC01B7010830370206
:10070C00031C892B8A2B8B2B9E2B3708203E8400B5
:10071C000008DC005C08BD053708203E840000089A
:10072C00DC005C08BC040130DC005C08B707842BDF
:10073C003C083B05DC003B093D055C04C8003B095B
:10074C004805C7004808BB0000300A128A1126224F
:10075C000A128A11710883120313D2007008D10097
:10076C0001300A128A1126220A128A117108831288
:10077C000313D4007008D30004300A128A11262205
:10078C000A128A11710883120313D0007008CF006B
:10079C004B30F00051300A128A1170220A128A1161
:1007AC004D30F00053300A128A1170220A128A114D
:1007BC004930F0004F300A128A1170220A128A1145
:1007CC0083120313B01BEB2BED2B0130EE2B0030FF
:1007DC00C100B01AF22BF42B0130F52B0030C00005
:1007EC000130DC005C08B00733080319FE2BFF2B2B
:1007FC00132C0130DC005C08B30724303302031CDB
:10080C00082C092C0B2CB301132C0B303302031CBA
:10081C00102C112C132C0712871233304C0234304D
:10082C0003194B0203181B2C1D2C01301E2C0030FD
:10083C00BF003F0C031C87110318871505303A02C3
:10084C00031C292C2A2C2B2CC60132303202031803
:10085C00302C312C372C0130DC005C08B207BA018B
:10086C00E52C3F0803193B2C3C2C552C3C303A060C
:10087C000319412C422C552C22304A0249300319C1
:10088C00490203184A2C4B2C552C3F30DC005C08D9
:10089C0087053C30BA00B301B30A8717E52C481C16
:1008AC00582C592C782C28303A0603195E2C5F2CC6
:1008BC00782C0A303A060319642C652C782C0C30F1
:1008CC003A0603196A2C6B2C782C3F30DC005C0840
:1008DC008705B301B30A95019B01B50107172830B1
:1008EC00BA00E52C29304E02F63003194D020318DC
:1008FC00802C812C932C32303A060319862C872CB1
:10090C00932C3A08B9003F30DC005C088705B30132
:10091C00B30A87173230BA00E52C42080319972C1A
:10092C00982C9F2C95019B012630BA00B301B30A79
:10093C00E52C4D304E02C93003194D02031CA72C77
:10094C00A82CBF2C37303A060319AD2CAE2CBF2C7B
:10095C0028303A060319B32CB42CBF2C3A08B90032
:10096C00B301B30A3730BA003F30DC005C088705AE
:10097C00532C3108031DC32CC42CD82C4C08F70065
:10098C004B08F6000A128A11A4220A128A11831249
:10099C000313B100253031020318D52CD62CE52CCD
:1009AC00B101E52C4C08F7004B08F6000A128A112D
:1009BC00A4220A128A1183120313B100E52C4730CA
:1009CC004E02A53003194D02031CED2CEE2CF02C1D
:1009DC000615FA2C46304E021B3003194D02031833
:1009EC00F82CF92CFA2C06113A302D0299300319F7
:1009FC002C02031C022D032D172DAC01AD013A3036
:100A0C004E02D93003194D0203180D2D0E2D152D44
:100A1C003E080319122D132D152DC201C20ABE0159
:100A2C00302D2C082D0403191C2D1D2D302D0030BC
:100A3C0007190130DC003A085C020318262D272D1B
:100A4C002A2DAC01AD01302D0130AC070318AD0AD5
:100A5C000030AD073F080319342D352D3E2D0030E5
:100A6C00AB000030AA000030A9000030A800712DA6
:100A7C002B08031D512D02302A02031D4D2D493028
:100A8C002902031D4D2DF1302802031D4D2D031C91
:100A9C00502D512D592D831203138501FF308316D0
:100AAC0003138500712D1C30831203138500E33072
:100ABC00831603138500013083120313A80700303B
:100ACC0003180130A907003003180130AA070030C1
:100ADC0003180130AB073230831232020318772D22
:100AEC00782DBD2F0130DC005C08B207BA01BD2F98
:100AFC00323032020318832D842D862DBA01E32F58
:100B0C000230BA000717E32F3F08031D8E2D8F2DDF
:100B1C00912DC601C60A45080319952D962D982DC1
:100B2C00C501B92DC71E9B2D9C2DA32DC030DC00FB
:100B3C005C0887040430BA00B92D46080319A72DA8
:100B4C00A82DB42D31080319AC2DAD2DB42DC60133
:100B5C0095019B010A30BA00B401B92D0A128A1111
:100B6C0006220A128A1183120313410C031C071369
:100B7C000318071741080319C42DC82D831203133A
:100B8C008717CB2D831203138713E32F3F08031D05
:100B9C00D02DD12DD32DC601C60AC71ED62DD72DCB
:100BAC00DC2D3F30DC005C088705862D46080319D8
:100BBC00E02DE12DED2D31080319E52DE62DED2D60
:100BCC00C60195019B011430BA00B401E32F0A123F
:100BDC008A1106220A128A1183120313410C031C78
:100BEC000713031807178717E32F410C031C8713F0
:100BFC0003188717E32F0130DC005C08B4070A30B8
:100C0C003406031D0A2E0B2E0E2E87120716E32F09
:100C1C0033303402031C132E142EE32F0C30BA0085
:100C2C0022309B009501BE01E32F3108031D1F2EBE
:100C3C00202E2F2E9B010230BA003F30DC005C08C6
:100C4C00870507170130AC000030AD00B301B30AC3
:100C5C00612EFB303102031C342E352E3D2E310813
:100C6C001B02031C3A2E3B2E3D2E0717612E400C07
:100C7C00031C07130318071731081B020318472E10
:100C8C00482E582E0130DC005C08B60703303602C3
:100C9C00031C512E522E612EB6010130DC005C0873
:100CAC009B07612EFB30310203185D2E5E2E612EE8
:100CBC0031089B00612EC20138304E024A300319B4
:100CCC004D0203186A2E6B2EE32FBE01BE0AE32FD2
:100CDC000130DC005C08B4070A303406031D772EA3
:100CEC00782E7B2E87160712E32F33303402031C29
:100CFC00802E812EE32F1630BA00223095009B01F6
:100D0C00192E3108031D8B2E8C2E9A2E9501B301B2
:100D1C00B30A0430BA00C030DC005C088704013030
:100D2C00AC000030AD00D72EFB303102031C9F2EDF
:100D3C00A02EAB2E31081502031CA52EA62EAB2E11
:100D4C00C030DC005C088704D72E40080319AF2E96
:100D5C00B02EB52EC030DC005C088704B92E3F30B5
:100D6C00DC005C088705310815020318BE2EBF2E67
:100D7C00CF2E0130DC005C08B60703303602031CB2
:100D8C00C82EC92ED72EB6010130DC005C089507A1
:100D9C00D72EFB3031020318D42ED52ED72E310886
:100DAC00950038304E024A3003194D020318DF2EDD
:100DBC00E02EE22EBE01BE0AC201E32FFB301B0265
:100DCC00031CE92EEA2EF52E9B01B301B30A3F302A
:100DDC00DC005C08870507170230BA00E32F3308E4
:100DEC00031DF92EFA2EE32F22301B020318FF2EBF
:100DFC00002F032F22309B0007160130DC005C080B
:100E0C00B50702303502031C0C2F0D2F122FB50124
:100E1C000130DC005C089B07400C031C0713031813
:100E2C000717E32F34304E02333003194D02031CE5
:100E3C00202F212F422F3F30DC005C0887059501C5
:100E4C009B01C201BE011430390603192E2F2F2F1E
:100E5C003B2F043039060319342F352F3B2F163016
:100E6C003906031D3A2F3B2FED2EC030DC005C08F9
:100E7C0087040430BA00E32FFB3015060319472F03
:100E8C00482F4F2F3308031D4C2F4D2F4F2FFB3066
:100E9C009500FB301B060319542F552FE32F3308F5
:100EAC00031D592F5A2FE32FFB309B00E32F4630A5
:100EBC004E021B3003194D020318652F662F7B2F32
:100ECC009B0195011430390603196D2F6E2F3B2FA2
:100EDC00043039060319732F742F3B2F1630390643
:100EEC00031D792F7A2FED2E3B2FFB30150603199E
:100EFC00802F812F882F3308031D852F862F882F55
:100F0C00FB309500FB301B0603198D2F8E2FE32F22
:100F1C003308031D922F932FE32F5A2F33080319F5
:100F2C00982F992F9A2FE32FC71E9D2F9E2FAA2FF4
:100F3C0029304A02F73003194902031CA62FA72FA8
:100F4C00AA2F95019B01ED2E3F080319AE2FAF2F51
:100F5C00B42FFB309500FB309B00E32F95019B01D8
:100F6C00E32F400C031C871303188717E32F3A0851
:100F7C00003A03197E2D023A03198A2D063A0319F9
:100F8C00CC2D0E3A0319012E063A03191B2E183AD2
:100F9C0003196E2E023A0319872E303A0319FB2DD2
:100FAC000E3A0319E42E1A3A0319182F053A0319AD
:100FBC005D2F0B3A0319942FB72F1B080319E72F3A
:100FCC00E82FE92F871215080319ED2FEE2F662B4A
:100FDC000712662B0A128A11002883132030840012
:100FEC0055300A128A11FE210A128A1183010A1243
:040FFC008A11DB2A51
:08400000FF3FFF3FFF3FFF3FC0
:02400E00450D5E
:00000001FF
