:060000000A128A11F32F21
:10031A0064008001840A04060319003404068E2945
:10032A00F3007308F20002300310F20DFF3E031DC2
:10033A0099290310720D413E831203139F00033063
:10034A00B700A9290130B7023708031DAD29AE2924
:10035A00A7291F151F19B229B329AF291E08F100B1
:10036A00831603131E08F0000800F401F501701C3F
:10037A00BF29C029C6297208F4070318F50A7308A9
:10038A00F50701300310F20DF30DFF3E031DC729D7
:10039A0001300310F10CF00CFF3E031DCE2970084A
:1003AA007104031DD929DA29BC297508F1007408DA
:1003BA00F0000800F7007008840083130008F100B9
:1003CA00840A0008F20004300310F20CF10CFF3E1C
:1003DA00031DE929770884000008F300840A00084D
:1003EA00F40004300310F40CF30CFF3E031DF7294C
:1003FA0071087302F5007208031C720A7402F6008F
:10040A007008840075088007840F00080318000A22
:10041A00FF0076087F0780008403080077088312AC
:10042A000313D6007608D5005608DB0034305B0289
:10043A000318202A212A232ADA01482ACC305B020F
:10044A00031C282A292A2C2AFB30DA00482A5B08AE
:10045A00CD3ED9005908F800F9017808F00079086A
:10046A00F1006930F2000130F3000A128A11BA2150
:10047A000A128A11710883120313D8007008D70070
:10048A005808223EDA005A08080077088312031334
:10049A00D6007608D5005608DB0034305B02031814
:1004AA00572A582A5B2A3230DA00802ACC305B027B
:1004BA00031C602A612A642AFB30DA00802A5B085E
:1004CA00CD3ED9005908F800F9017808F0007908FA
:1004DA00F1004F30F2000130F3000A128A11BA21FA
:1004EA000A128A11710883120313D8007008D70000
:1004FA005808323EDA005A080800183083120313EB
:10050A0083002030DD000030DE0000305E06031D6F
:10051A00902A5D305D060319932A942A9A2A5D0867
:10052A00840083175E1C831380010130DD070318E2
:10053A00DE0A0030DE0700305E02803003195D02F9
:10054A00031CA82AA92A8A2A87018316031387016A
:10055A0006111C30831203138500831603138113BB
:10056A00E33085009F1383120313BA010609BB0007
:10057A00B70108303702031CC32AC42AC52AD02A65
:10058A003708203E84003B08831380000130DC00DA
:10059A005C08B707BE2A3B08C800C70100300A1228
:1005AA008A1195210A128A11710883120313CC0049
:1005BA007008CB0001300A128A1195210A128A1199
:1005CA00710883120313CE007008CD0004300A129A
:1005DA008A1195210A128A11710883120313CA001B
:1005EA007008C9009B0195010F309D040F309704D4
:1005FA001208FC3901389200FA308316031392006C
:10060A00831203131215F8308F0030308E00101445
:10061A006400831203130C1C132B142B0D2BF830BC
:10062A008F0030308E000C100130DC005C08B807F7
:10063A000730DC005C08B8053808203E840006094B
:10064A0083138000FF30BD00BC01B70108303702B8
:10065A00031C302B312B322B452B3708203E8400CC
:10066A000008DC005C08BD053708203E840000084D
:10067A00DC005C08BC040130DC005C08B7072B2BEB
:10068A003C083B05DC003B093D055C04C8003B090E
:10069A004805C7004808BB0000300A128A11952194
:1006AA000A128A11710883120313D2007008D1004A
:1006BA0001300A128A1195210A128A1171088312CD
:1006CA000313D4007008D30004300A128A1195214A
:1006DA000A128A11710883120313D0007008CF001E
:1006EA004B30F00051300A128A11DF210A128A11A6
:1006FA004D30F00053300A128A11DF210A128A1192
:10070A004930F0004F300A128A11DF210A128A1189
:10071A0083120313B01B922B942B0130952B0030BC
:10072A00C100B01A992B9B2B01309C2B0030C000C2
:10073A000130DC005C08B00733080319A52BA62B8F
:10074A00BA2B0130DC005C08B30724303302031CE7
:10075A00AF2BB02BB22BB301BA2B0B303302031CD5
:10076A00B72BB82BBA2B0712871233304C0234300E
:10077A0003194B020318C22BC42B0130C52B0030BE
:10078A00BF003F0C031C87110318871505303A0276
:10079A00031CD02BD12BD22BC601323032020318C4
:1007AA00D72BD82BDE2B0130DC005C08B207BA014C
:1007BA00AF2C3F080319E22BE32BFC2B3C303A0603
:1007CA000319E82BE92BFC2B22304A024930031982
:1007DA0049020318F12BF22BFC2B3F30DC005C089A
:1007EA0087053C30BA00B301B30A8717AF2C481CFF
:1007FA00FF2B002C1F2C28303A060319052C062C37
:10080A001F2C0A303A0603190B2C0C2C1F2C0C3007
:10081A003A060319112C122C1F2C3F30DC005C08FD
:10082A008705B301B30A95019B01B5010717283063
:10083A00BA00AF2C29304E02F63003194D020318C4
:10084A00272C282C3A2C32303A0603192D2C2E2C20
:10085A003A2C3A08B9003F30DC005C088705B3013E
:10086A00B30A87173230BA00AF2CC81C3D2C3E2C75
:10087A00512C1E303A020318432C442C512CB3013C
:10088A00B30A95019B013F30DC005C088705871796
:10089A00C7121E30BA00AF2C42080319552C562C29
:1008AA00632C1E303A0603195B2C5C2C632C9501D1
:1008BA009B012630BA00B301B30AAF2C4D304E0269
:1008CA00C93003194D02031C6B2C6C2C832C373056
:1008DA003A060319712C722C832C28303A06031914
:1008EA00772C782C832C3A08B900B301B30A373035
:1008FA00BA003F30DC005C088705FA2B1E303A0646
:10090A000319882C892CA02C3108031D8D2C8E2CC0
:10091A00A22C4C08F7004B08F6000A128A1113227F
:10092A000A128A1183120313B10025303102031807
:10093A009F2CA02CAF2CB101AF2C4C08F7004B0810
:10094A00F6000A128A1113220A128A118312031359
:10095A00B100AF2C47304E02A53003194D02031CDB
:10096A00B72CB82CBA2C0615C42C46304E021B30B4
:10097A0003194D020318C22CC32CC42C06113A3099
:10098A002D02993003192C02031CCC2CCD2CE12CFE
:10099A00AC01AD013A304E02D93003194D020318A9
:1009AA00D72CD82CDF2C3E080319DC2CDD2CDF2CAD
:1009BA00C201C20ABE01F62C2C082D040319E62C2A
:1009CA00E72CF62C1F303A02031CEC2CED2CF02CF1
:1009DA00AC01AD01F62C0130AC070318AD0A0030AA
:1009EA00AD073F080319FA2CFB2C042D0030AB008D
:1009FA000030AA000030A9000030A800372D2B08CB
:100A0A00031D172D02302A02031D132D4930290216
:100A1A00031D132DF1302802031D132D031C162D5F
:100A2A00172D1F2D831203138501FF30831603131D
:100A3A008500372D1C30831203138500E33083169B
:100A4A0003138500013083120313A807003003182B
:100A5A000130A907003003180130AA070030031833
:100A6A000130AB0732308312320203183D2D3E2D7E
:100A7A00BA2F0130DC005C08B207BA01BA2F323053
:100A8A0032020318492D4A2D4C2DBA01E32F0230A8
:100A9A00BA000717E32F3F08031D542D552D572D74
:100AAA00C601C60A450803195B2D5C2D5E2DC501DA
:100ABA00E32FC71E612D622D692DC030DC005C0852
:100ACA0087040430BA00E32F460803196D2D6E2DF2
:100ADA00E32F31080319722D732DE32FC6010A3053
:100AEA00BA00B401E32F3F08031D7C2D7D2D7F2D15
:100AFA00C601C60AC81A822D832D882D3F30DC0014
:100B0A005C0887054C2D460803198C2D8D2DE32F83
:100B1A0031080319912D922DE32FC6011430BA0022
:100B2A00762D410C031C871303188717E32F013016
:100B3A00DC005C08B4070A303406031DA52DA62D77
:100B4A00A92D87120716E32F33303402031CAE2D6A
:100B5A00AF2DE32F0C30BA0022309B009501BE0165
:100B6A00E32F3108031DBA2DBB2DCA2D9B0102307C
:100B7A00BA003F30DC005C08870507170130AC007B
:100B8A000030AD00B301B30AFC2DFB303102031C67
:100B9A00CF2DD02DD82D31081B02031CD52DD62DD3
:100BAA00D82D0717FC2D400C031C07130318071731
:100BBA0031081B020318E22DE32DF32D0130DC006E
:100BCA005C08B60703303602031CEC2DED2DFC2D14
:100BDA00B6010130DC005C089B07FC2DFB303102BA
:100BEA000318F82DF92DFC2D31089B00FC2DC201AC
:100BFA0038304E024A3003194D020318052E062ECC
:100C0A00E32FBE01BE0AE32F0130DC005C08B40703
:100C1A000A303406031D122E132E162E87160712BB
:100C2A00E32F33303402031C1B2E1C2EE32F163005
:100C3A00BA00223095009B01B42D3108031D262EDF
:100C4A00272E352E9501B301B30A0430BA00C030FD
:100C5A00DC005C0887040130AC000030AD00812E56
:100C6A00C81A382E392E432E950187123F30DC00E0
:100C7A005C08870507170230BA00302EFB303102B4
:100C8A00031C482E492E542E31081502031C4E2EE1
:100C9A004F2E542EC030DC005C088704812E400899
:100CAA000319582E592E5E2EC030DC005C088704CA
:100CBA00622E3F30DC005C088705310815020318F4
:100CCA00672E682E782E0130DC005C08B6070330E8
:100CDA003602031C712E722E812EB6010130DC0001
:100CEA005C089507812EFB30310203187D2E7E2E7B
:100CFA00812E31089500812E38304E024A30031970
:100D0A004D020318892E8A2E8C2EBE01BE0AC201FC
:100D1A00E32FC71E912E922EA42E3F08031D962E56
:100D2A00972EA42E95019B013F30DC005C088705B5
:100D3A000717C501C50AAE010230BA00E32F33080E
:100D4A00031DA82EA92EE32F4C08F7004B08F60026
:100D5A000A128A114A220A128A1183120313AF0055
:100D6A00FB302F02031CBA2EBB2EC32E2F081B02E8
:100D7A00031CC02EC12EC32E8717E62E3F08031D63
:100D8A00C72EC82ECA2E8717CF2E400C031C8713D6
:100D9A00031887172F081B020318D42ED52EE42E0A
:100DAA000130DC005C08B60736080319DD2EDE2E9A
:100DBA00E62EB6010130DC005C089B07E62E2F0800
:100DCA009B001B089500E32FFB301B02031CEE2E31
:100DDA00EF2EF82E9B01B301B30A3F30DC005C080A
:100DEA0087050717A12E3308031DFC2EFD2EE32FBE
:100DFA0022301B020318022F032F062F22309B00DA
:100E0A0007160130DC005C08B50702303502031C06
:100E1A000F2F102F152FB5010130DC005C089B073E
:100E2A00400C031C071303180717E32F34304E0234
:100E3A00333003194D02031C232F242F3F2F3F3039
:100E4A00DC005C08870595019B01C201BE011430D4
:100E5A0039060319312F322F622D0430390603194E
:100E6A00372F382F622D16303906031D3D2F3E2F9E
:100E7A00F22E622DFB3015060319442F452F4C2FF5
:100E8A003308031D492F4A2F4C2FFB309500FB30A6
:100E9A001B060319512F522FE32F3308031D562F18
:100EAA00572FE32FFB309B00E32F46304E021B30B7
:100EBA0003194D020318622F632F782F9B019501A6
:100ECA001430390603196A2F6B2F622D0430390644
:100EDA000319702F712F622D16303906031D762FD4
:100EEA00772FF22E622DFB30150603197D2F7E2FE8
:100EFA00852F3308031D822F832F852FFB30950002
:100F0A00FB301B0603198A2F8B2FE32F3308031D8F
:100F1A008F2F902FE32F572F33080319952F962FD2
:100F2A00972FE32FC71E9A2F9B2FA72F29304A02EC
:100F3A00F73003194902031CA32FA42FA72F9501E9
:100F4A009B01F22E3F080319AB2FAC2FB12FFB30B8
:100F5A009500FB309B00E32F95019B01E32F400C8A
:100F6A00031C871303188717E32F3A08003A03195B
:100F7A00442D023A0319502D063A0319782D0E3AD8
:100F8A0003199C2D063A0319B62D183A0319092E8E
:100F9A00023A0319222E083A03198E2E383A0319F7
:100FAA00962D0E3A0319E92E1A3A03191B2F053A00
:100FBA0003195A2F0B3A0319912FB42F1B0803193F
:100FCA00E72FE82FE92F871215080319ED2FEE2FC7
:100FDA000D2B07120D2B0A128A11002883132030B9
:100FEA00840055300A128A118D210A128A1183014E
:060FFA000A128A11822A8E
:08400000FF3FFF3FFF3FFF3FC0
:02400E00450D5E
:00000001FF
