:060000000A128A11F32F21
:10029C0064008001840A04060319003404064F2903
:1002AC00F3007308F20002300310F20DFF3E031D41
:1002BC005A290310720D413E831203139F00033021
:1002CC00B8006A290130B8023808031D6E296F295D
:1002DC0068291F151F197329742970291E08F1002C
:1002EC00831603131E08F0000800F401F501701CBE
:1002FC008029812987297208F4070318F50A7308E5
:10030C00F50701300310F20DF30DFF3E031D882994
:10031C0001300310F10CF00CFF3E031D8F29700807
:10032C007104031D9A299B297D297508F100740815
:10033C00F0000800F7007008840083130008F10037
:10034C00840A0008F20004300310F20CF10CFF3E9A
:10035C00031DAA29770884000008F300840A00080A
:10036C00F40004300310F40CF30CFF3E031DB82909
:10037C0071087302F5007208031C720A7402F6000D
:10038C007008840075088007840F00080318000AA1
:10039C00FF0076087F07800084030800770883122B
:1003AC000313D7007608D6005708DC0034305C0203
:1003BC000318E129E229E429DB01092ACC305C028B
:1003CC00031CE929EA29ED29FB30DB00092A5C082A
:1003DC00CD3EDA005A08F800F9017808F0007908E7
:1003EC00F1006930F2000130F3000A128A117B210E
:1003FC000A128A11710883120313D9007008D800ED
:10040C005908223EDB005B080800770883120313AF
:10041C00D7007608D6005708DC0034305C0203188D
:10042C00182A192A1C2A3230DB00412ACC305C02F3
:10043C00031C212A222A252AFB30DB00412A5C08D6
:10044C00CD3EDA005A08F800F9017808F000790876
:10045C00F1004F30F2000130F3000A128A117B21B7
:10046C000A128A11710883120313D9007008D8007C
:10047C005908323EDB005B08080018308312031366
:10048C0083002030DE000030DF0000305F06031DEB
:10049C00512A5E305E060319542A552A5B2A5E08DF
:1004AC00840083175F1C831380010130DE0703185F
:1004BC00DF0A0030DF0700305F02803003195E0274
:1004CC00031C692A6A2A4B2A8701831603138701A6
:1004DC0006111C308312031385008316031381133A
:1004EC00E3308500831203130714831603139F1341
:1004FC0083120313BA010609BB00B8010830380295
:10050C00031C892A8A2A8B2A962A3808203E8400C2
:10051C003B08831380000130DD005D08B807842A96
:10052C003B08C900C80100300A128A1156210A1270
:10053C008A11710883120313CD007008CC000130AE
:10054C000A128A1156210A128A1171088312031396
:10055C00CF007008CE0004300A128A1156210A12FC
:10056C008A11710883120313CB007008CA009B0117
:10057C0095010F309D040F3097041208FC39013897
:10058C009200FA3083160313920083120313121590
:10059C00F8308F0030308E00101487153230AE00DA
:1005AC006400831203130C1CDC2ADD2AD62AF830D3
:1005BC008F0030308E000C100130DD005D08B90763
:1005CC000730DD005D08B9053908203E84000609B6
:1005DC0083138000FF30BD00BC01B8010830380225
:1005EC00031CF92AFA2AFB2A0E2B3808203E840019
:1005FC000008DD005D08BD053808203E84000008B9
:10060C00DD005D08BC040130DD005D08B807F42A8C
:10061C003C083B05DD003B093D055D04C9003B0979
:10062C004905C8004908BB0000300A128A1156213E
:10063C000A128A11710883120313D3007008D200B6
:10064C0001300A128A1156210A128A11710883127A
:10065C000313D5007008D40004300A128A115621F5
:10066C000A128A11710883120313D1007008D0008A
:10067C004C30F00052300A128A11A0210A128A1151
:10068C004E30F00054300A128A11A0210A128A113D
:10069C004A30F00050300A128A11A0210A128A1135
:1006AC0083120313B11B5B2B5D2B01305E2B0030CF
:1006BC00C200B11A622B642B0130652B0030C100D3
:1006CC000130DD005D08B107340803196E2B6F2B68
:1006DC00832B0130DD005D08B40724303402031C89
:1006EC00782B792B7B2BB401832B0B303402031C1E
:1006FC00802B812B832B0712871233304D02343021
:10070C0003194C0203188B2B8D2B01308E2B0030D0
:10071C00C0002E080319932B942B9C2B0130AE0296
:10072C002E08031D9A2B9B2B9C2B871105303A020C
:10073C00031CA12BA22BA32BC701323033020318AD
:10074C00A82BA92BAF2B0130DD005D08B307BA0134
:10075C00872C40080319B32BB42BCD2B3C303A0615
:10076C000319B92BBA2BCD2B22304B02493003196C
:10077C004A020318C22BC32BCD2B3F30DD005D0882
:10078C0087053C30BA00B401B40A8717872C491C82
:10079C00D02BD12BEA2B28303A060319D62BD72B8A
:1007AC00EA2B3E080319DB2BDC2BEA2B87113F309D
:1007BC00DD005D088705B401B40A95019B01B60103
:1007CC0007172830BA00872C29304F02F63003194E
:1007DC004E020318F22BF32B032C32303A0603197A
:1007EC00F82BF92B032C3F30DD005D088705B40195
:1007FC00B40A87173230BA00872CC91C062C072C78
:10080C00212C1E303A02031C0C2C0D2C132C2630E0
:10081C003A06031D122C132C212CB401B40A950199
:10082C009B013F30DD005D0887058717C8128711D3
:10083C001E30BA00872C43080319252C262C3D2C7E
:10084C001E303A0203182B2C2C2C3D2C95019B01AD
:10085C0026303A060319332C342C3A2C2630BA00A5
:10086C003F30DD005D088705B401B40A872C4D309C
:10087C004F02C93003194E02031C452C462C5B2C2D
:10088C0037303A0603194B2C4C2C5B2C28303A068B
:10089C000319512C522C5B2CB401B40A3730BA001A
:1008AC003F30DD005D088705CB2B1E303A0603195F
:1008BC00602C612C782C3208031D652C662C7A2C4C
:1008CC004D08F7004C08F6000A128A11D4210A12BE
:1008DC008A1183120313B200253032020318772CCD
:1008EC00782C872CB201872C4D08F7004C08F600A9
:1008FC000A128A11D4210A128A1183120313B2002C
:10090C00872C47304F02A53003194E02031C8F2C45
:10091C00902C922C06159C2C46304F021B30031940
:10092C004E0203189A2C9B2C9C2C06114308031D79
:10093C00A02CA12CE52C3A302D02993003192C0255
:10094C00031CA92CAA2CBE2CAC01AD013C304F02CF
:10095C00E53003194E020318B42CB52CBC2C3F08FF
:10096C000319B92CBA2CBC2CC301C30ABF01E52C4A
:10097C003F080319C22CC32CD72C38304F024B30F4
:10098C0003194E02031CCB2CCC2CD02CAC01AD018A
:10099C00BF01E52C0130AC070318AD0A0030AD07E0
:1009AC00E52C38304F024A3003194E020318DF2C65
:1009BC00E02CE32CBF01BF0AE52CAC01AD014008D3
:1009CC000319E92CEA2CF32C0030AB000030AA0000
:1009DC000030A9000030A8002F2D2B08031D062D78
:1009EC0002302A02031D022D49302902031D022D5B
:1009FC00F1302802031D022D031C052D062D162D8A
:100A0C0083120313B3018501FF3083160313850092
:100A1C00831203138701FF308316031387002F2DD6
:100A2C001C30831203138500E330831603138500F7
:100A3C008312031307140130A80700300318013088
:100A4C00A907003003180130AA0700300318013041
:100A5C00AB073230831233020318352D362DBA2FE3
:100A6C000130DD005D08B307BA01BA2F3230330212
:100A7C000318412D422D442DBA01E32F0230BA0048
:100A8C000717E32FE32F4008031D4D2D4E2D502D3E
:100A9C00C701C70A38304F024A3003194E020318F7
:100AAC00582D592D5B2DBF01BF0A460803195F2D28
:100ABC00602D622DC601E32FC81E652D662D702D8D
:100ACC00C030DD005D0887040430BA00BE01BE0AE8
:100ADC008715E32F47080319742D752DE32F320862
:100AEC000319792D7A2DE32FC7010A30BA00B5010D
:100AFC00E32F4008031D832D842D862DC701C70AC3
:100B0C0038304F024A3003194E0203188E2D8F2DA8
:100B1C00912DBF01BF0AC81E942D952D9E2D8711B6
:100B2C003F30DD005D0887050230BA00BE01462D5E
:100B3C0047080319A22DA32DE32F32080319A72D63
:100B4C00A82DE32FC7011430BA007D2D3C304F0285
:100B5C00E63003194E02031CB42DB52DD02D3F30B9
:100B6C00DD005D08870595019B01C3013E08031953
:100B7C00C02DC12DC82DC030DD005D0887040430A8
:100B8C00BA00E32F3F30DD005D0887050717023000
:100B9C00BA00E32F420C031C871303188717E32FAB
:100BAC000130DD005D08B5070A303506031DDF2D69
:100BBC00E02DE32D87120716E32F33303502031C8B
:100BCC00E82DE92DE32F0C30BA0022309B00950163
:100BDC00E32FAC01AD013208031DF52DF62D012ECE
:100BEC009B010230BA003F30DD005D088705071716
:100BFC00B401B40AE32FFB303202031C062E072E7D
:100C0C000E2E32081B02031C0C2E0D2E0E2E462D02
:100C1C00410C031C07130318071732081B02031897
:100C2C00182E192E292E0130DD005D08B707033070
:100C3C003702031C222E232E482DB7010130DD0074
:100C4C005D089B07E32FFB30320203182E2E2F2E4C
:100C5C00482D32089B00E32F0130DD005D08B507FD
:100C6C000A303506031D3B2E3C2E3F2E87160712ED
:100C7C00E32F33303502031C442E452EE32F163060
:100C8C00BA00223095009B01E32FAC01AD01320874
:100C9C00031D512E522E5C2E9501B401B40A043062
:100CAC00BA00C030DD005D088704E32FFB30320250
:100CBC00031C612E622E692E32081502031C672E4E
:100CCC00682E692E572E410803196D2E6E2E732E29
:100CDC00C030DD005D088704772E3F30DD005D08F5
:100CEC0087053208150203187C2E7D2E8D2E0130BF
:100CFC00DD005D08B70703303702031C862E872EF4
:100D0C00482DB7010130DD005D089507E32FFB305E
:100D1C0032020318922E932E482D32089500E32FA1
:100D2C00C81E992E9A2EBB2E4008031D9E2E9F2E58
:100D3C00BB2E95019B013F30DD005D088705C60188
:100D4C00C60AAF013E08031DAC2EAD2EB42E0230E8
:100D5C00BA00071787153230AE00E32F0430BA0003
:100D6C00C030DD005D0887046E2D3408031DBF2ED6
:100D7C00C02EE32F4D08F7004C08F6000A128A111A
:100D8C000B220A128A1183120313B000FB303002BB
:100D9C00031CD12ED22EDA2E30081B02031CD72EA8
:100DAC00D82EDA2E8717FD2E4008031DDE2EDF2EDF
:100DBC00E12E8717E62E410C031C871303188717A7
:100DCC0030081B020318EB2EEC2EFB2E0130DD003D
:100DDC005D08B70737080319F42EF52EFD2EB70161
:100DEC000130DD005D089B07FD2E30089B001B08C1
:100DFC009500E32FFB301B02031C052F062F122F2F
:100E0C009B01B401B40A3F30DD005D08870507176C
:100E1C000230BA00BE01E32F3408031D162F172F22
:100E2C00E32F22301B0203181C2F1D2F202F2230E2
:100E3C009B0007160130DD005D08B6070230360254
:100E4C00031C292F2A2F2F2FB6010130DD005D083E
:100E5C009B07410C031C071303180717E32F3430AF
:100E6C004F02333003194E02031C3D2F3E2F4B2FE4
:100E7C003F30DD005D08870595019B01BF013E08F1
:100E8C000319492F4A2FC82DC12DFB301506031904
:100E9C00502F512F582F3408031D552F562F582FD4
:100EAC00FB309500FB301B0603195D2F5E2FE32FE3
:100EBC003408031D622F632FE32FFB309B00E32FBD
:100ECC0046304F021B3003194E0203186E2F6F2F42
:100EDC00772F9B0195013E080319752F762FC82D8E
:100EEC00C12DFB30150603197C2F7D2F842F340860
:100EFC00031D812F822F842FFB309500FB301B06A6
:100F0C000319892F8A2FE32F3408031D8E2F8F2F5F
:100F1C00E32F632F34080319942F952F962FE32F6B
:100F2C00C81E992F9A2FA72F29304B02F73003197F
:100F3C004A02031CA22FA32FA72F95019B018711F7
:100F4C00092F40080319AB2FAC2FB12FFB309500A4
:100F5C00FB309B00E32F95019B01E32F410C031CFD
:100F6C00871303188717E32F3A08003A03193C2D0F
:100F7C00023A0319492D063A03197F2D0E3A03192B
:100F8C00D62D063A0319EF2D183A0319322E023AD0
:100F9C0003194B2E083A0319962E383A0319AC2D27
:100FAC000E3A0319002F1A3A0319352F053A031973
:100FBC00662F0B3A0319902FB42F1B080319E72F38
:100FCC00E82FE92F871215080319ED2FEE2FD62ADB
:100FDC000712D62A0A128A110028831320308400A3
:100FEC0056300A128A114E210A128A1183010A12F2
:040FFC008A11432AE9
:08400000FF3FFF3FFF3FFF3FC0
:02400E00450D5E
:00000001FF
