:060000000A128A11F32F21
:1002EE0064008001840A0406031900340406782988
:1002FE00F3007308F20002300310F20DFF3E031DEF
:10030E0083290310720D413E831203139F000330A5
:10031E00B80093290130B8023808031D972998298F
:10032E0091291F151F199C299D2999291E08F10035
:10033E00831603131E08F0000800F401F501701C6B
:10034E00A929AA29B0297208F4070318F50A730817
:10035E00F50701300310F20DF30DFF3E031DB12919
:10036E0001300310F10CF00CFF3E031DB82970088C
:10037E007104031DC329C429A6297508F100740848
:10038E00F0000800F7007008840083130008F100E5
:10039E00840A0008F20004300310F20CF10CFF3E48
:1003AE00031DD329770884000008F300840A00088F
:1003BE00F40004300310F40CF30CFF3E031DE1298E
:1003CE0071087302F5007208031C720A7402F600BB
:1003DE007008840075088007840F00080318000A4F
:1003EE00FF0076087F0780008403080077088312D9
:1003FE000313D7007608D6005708DC0034305C02B1
:10040E0003180A2A0B2A0D2ADB01322ACC305C0291
:10041E00031C122A132A162AFB30DB00322A5C0830
:10042E00CD3EDA005A08F800F9017808F000790894
:10043E00F1006930F2000130F3000A128A11A42192
:10044E000A128A11710883120313D9007008D8009A
:10045E005908223EDB005B0808007708831203135D
:10046E00D7007608D6005708DC0034305C0203183B
:10047E00412A422A452A3230DB006A2ACC305C02FD
:10048E00031C4A2A4B2A4E2AFB30DB006A2A5C08E0
:10049E00CD3EDA005A08F800F9017808F000790824
:1004AE00F1004F30F2000130F3000A128A11A4213C
:1004BE000A128A11710883120313D9007008D8002A
:1004CE005908323EDB005B08080018308312031314
:1004DE0083002030DE000030DF0000305F06031D99
:1004EE007A2A5E305E0603197D2A7E2A842A5E08E9
:1004FE00840083175F1C831380010130DE0703180D
:10050E00DF0A0030DF0700305F02803003195E0221
:10051E00031C922A932A742A8701831603138701D8
:10052E0006111C30831203138500831603138113E7
:10053E00E33085009F1383120313BA010609BB0033
:10054E00B80108303802031CAD2AAE2AAF2ABA2AE7
:10055E003808203E84003B08831380000130DD0004
:10056E005D08B807A82A3B08C900C80100300A1266
:10057E008A117F210A128A11710883120313CD008A
:10058E007008CC0001300A128A117F210A128A11DA
:10059E00710883120313CF007008CE0004300A12C4
:1005AE008A117F210A128A11710883120313CB005C
:1005BE007008CA009B0195010F309D040F309704FF
:1005CE001208FC3901389200FA3083160313920098
:1005DE00831203131215F8308F0030308E00101472
:1005EE006400831203130C1CFD2AFE2AF72AF8302E
:1005FE008F0030308E000C100130DD005D08B90721
:10060E000730DD005D08B9053908203E8400060973
:10061E0083138000FF30BD00BC01B80108303802E2
:10062E00031C1A2B1B2B1C2B2F2B3808203E84004F
:10063E000008DD005D08BD053808203E8400000876
:10064E00DD005D08BC040130DD005D08B807152B28
:10065E003C083B05DD003B093D055D04C9003B0937
:10066E004905C8004908BB0000300A128A117F21D3
:10067E000A128A11710883120313D3007008D20074
:10068E0001300A128A117F210A128A11710883120F
:10069E000313D5007008D40004300A128A117F218A
:1006AE000A128A11710883120313D1007008D00048
:1006BE004C30F00052300A128A11C9210A128A11E6
:1006CE004E30F00054300A128A11C9210A128A11D2
:1006DE004A30F00050300A128A11C9210A128A11CA
:1006EE0083120313B11B7C2B7E2B01307F2B00302A
:1006FE00C200B11A832B852B0130862B0030C1002E
:10070E000130DD005D08B107340803198F2B902BE3
:10071E00A42B0130DD005D08B40724303402031C25
:10072E00992B9A2B9C2BB401A42B0B303402031C57
:10073E00A12BA22BA42B0712871233304D0234307B
:10074E0003194C020318AC2BAE2B0130AF2B00302B
:10075E00C000400C031C87110318871505303A02A0
:10076E00031CBA2BBB2BBC2BC70132303302031830
:10077E00C12BC22BC82B0130DD005D08B307BA01B7
:10078E009F2C40080319CC2BCD2BE62B3C303A0680
:10079E000319D22BD32BE62B22304B0249300319EF
:1007AE004A020318DB2BDC2BE62B3F30DD005D0805
:1007BE0087053C30BA00B401B40A87179F2C491C38
:1007CE00E92BEA2B022C28303A060319EF2BF02BDB
:1007DE00022C3E080319F42BF52B022C3F30DD00C2
:1007EE005D088705B401B40A95019B01B601071790
:1007FE002830BA009F2C29304F02F63003194E02D2
:10080E0003180A2C0B2C1B2C32303A060319102C11
:10081E00112C1B2C3F30DD005D088705B401B40A96
:10082E0087173230BA009F2CC91C1E2C1F2C392C56
:10083E001E303A02031C242C252C2B2C26303A0673
:10084E00031D2A2C2B2C392CB401B40A95019B01C3
:10085E003F30DD005D0887058717C81287111E30EF
:10086E00BA009F2C430803193D2C3E2C552C1E30EC
:10087E003A020318432C442C552C95019B0126302B
:10088E003A0603194B2C4C2C522C2630BA003F3012
:10089E00DD005D088705B401B40A9F2C4D304F0270
:1008AE00C93003194E02031C5D2C5E2C732C37309D
:1008BE003A060319632C642C732C28303A0603195C
:1008CE00692C6A2C732CB401B40A3730BA003F304D
:1008DE00DD005D088705E42B1E303A060319782CDF
:1008EE00792C902C3208031D7D2C7E2C922C4D08D9
:1008FE00F7004C08F6000A128A11FD210A128A111D
:10090E0083120313B2002530320203188F2C902C61
:10091E009F2CB2019F2C4D08F7004C08F6000A12CE
:10092E008A11FD210A128A1183120313B2009F2C21
:10093E0047304F02A53003194E02031CA72CA82CDA
:10094E00AA2C0615B42C46304F021B3003194E024A
:10095E000318B22CB32CB42C06114308031DB82C6B
:10096E00B92CFD2C3A302D02993003192C02031CA0
:10097E00C12CC22CD62CAC01AD013C304F02E5305F
:10098E0003194E020318CC2CCD2CD42C3F0803197E
:10099E00D12CD22CD42CC301C30ABF01FD2C3F088D
:1009AE000319DA2CDB2CEF2C38304F024B300319A5
:1009BE004E02031CE32CE42CE82CAC01AD01BF016C
:1009CE00FD2C0130AC070318AD0A0030AD07FD2C2D
:1009DE0038304F024A3003194E020318F72CF82C08
:1009EE00FB2CBF01BF0AFD2CAC01AD014008031961
:1009FE00012D022D0B2D0030AB000030AA0000306F
:100A0E00A9000030A8003F2D2B08031D1E2D02301B
:100A1E002A02031D1A2D49302902031D1A2DF13009
:100A2E002802031D1A2D031C1D2D1E2D272D83128A
:100A3E000313B3018501FF308316031385003F2D89
:100A4E001C30831203138500E330831603138500D5
:100A5E00013083120313A807003003180130A907D1
:100A6E00003003180130AA07003003180130AB071D
:100A7E003230831233020318452D462DBA2F013022
:100A8E00DD005D08B307BA01BA2F32303302031806
:100A9E00512D522D542DBA01E32F0230BA000717F3
:100AAE00E32FE32F4008031D5D2D5E2D602DC70142
:100ABE00C70A38304F024A3003194E020318682D08
:100ACE00692D6B2DBF01BF0A460803196F2D702DBE
:100ADE00722DC601E32FC81E752D762D7F2DC030C9
:100AEE00DD005D0887040430BA00BE01BE0AE32FA4
:100AFE0047080319832D842DE32F32080319882DFF
:100B0E00892DE32FC7010A30BA00B501E32F400843
:100B1E00031D922D932D952DC701C70A38304F0214
:100B2E004A3003194E0203189D2D9E2DA02DBF0194
:100B3E00BF0AC81EA32DA42DAC2D3F30DD005D08CD
:100B4E0087050230BA00BE01562D47080319B02D95
:100B5E00B12DE32F32080319B52DB62DE32FC701A2
:100B6E001430BA008C2D3C304F02E63003194E0281
:100B7E00031CC22DC32DDE2D3F30DD005D08870521
:100B8E0095019B01C3013E080319CE2DCF2DD62D05
:100B9E00C030DD005D0887040430BA00E32F3F301B
:100BAE00DD005D08870507170230BA00E32F420CFF
:100BBE00031C871303188717E32F0130DD005D0830
:100BCE00B5070A303506031DED2DEE2DF12D8712DA
:100BDE000716E32F33303502031CF62DF72DE32FC6
:100BEE000C30BA0022309B009501E32FAC01AD0111
:100BFE003208031D032E042E0F2E9B010230BA0065
:100C0E003F30DD005D0887050717B401B40AE32FF6
:100C1E00FB303202031C142E152E1C2E32081B0222
:100C2E00031C1A2E1B2E1C2E562D410C031C0713B3
:100C3E000318071732081B020318262E272E372EED
:100C4E000130DD005D08B70703303702031C302E7C
:100C5E00312E582DB7010130DD005D089B07E32FC3
:100C6E00FB30320203183C2E3D2E582D32089B00CD
:100C7E00E32F0130DD005D08B5070A303506031D90
:100C8E00492E4A2E4D2E87160712E32F333035028A
:100C9E00031C522E532EE32F1630BA00223095002D
:100CAE009B01E32FAC01AD013208031D5F2E602EB8
:100CBE006A2E9501B401B40A0430BA00C030DD00CA
:100CCE005D088704E32FFB303202031C6F2E702E5B
:100CDE00772E32081502031C752E762E772E652E72
:100CEE00410803197B2E7C2E812EC030DD005D085D
:100CFE008704852E3F30DD005D088705320815021A
:100D0E0003188A2E8B2E9B2E0130DD005D08B7074F
:100D1E0003303702031C942E952E582DB701013047
:100D2E00DD005D089507E32FFB3032020318A02E7D
:100D3E00A12E582D32089500E32FC81EA72EA82EDF
:100D4E00BC2E4008031DAC2EAD2EBC2E95019B0172
:100D5E003F30DD005D088705C601C60AAF013E08BB
:100D6E00031DBA2EBB2E632E542D3408031DC02E28
:100D7E00C12EE32F4D08F7004C08F6000A128A1117
:100D8E0034220A128A1183120313B000FB30300290
:100D9E00031CD22ED32EDB2E30081B02031CD82EA2
:100DAE00D92EDB2E8717FE2E4008031DDF2EE02ED8
:100DBE00E22E8717E72E410C031C871303188717A3
:100DCE0030081B020318EC2EED2EFC2E0130DD0038
:100DDE005D08B70737080319F52EF62EFE2EB7015C
:100DEE000130DD005D089B07FE2E30089B001B08BE
:100DFE009500E32FFB301B02031C062F072F132F2A
:100E0E009B01B401B40A3F30DD005D08870507176A
:100E1E000230BA00BE01E32F3408031D172F182F1E
:100E2E00E32F22301B0203181D2F1E2F212F2230DD
:100E3E009B0007160130DD005D08B6070230360252
:100E4E00031C2A2F2B2F302FB6010130DD005D0839
:100E5E009B07410C031C071303180717E32F3430AD
:100E6E004F02333003194E02031C3E2F3F2F4C2FDF
:100E7E003F30DD005D08870595019B01BF013E08EF
:100E8E0003194A2F4B2FD62DCF2DFB3015060319E4
:100E9E00512F522F592F3408031D562F572F592FCC
:100EAE00FB309500FB301B0603195E2F5F2FE32FDF
:100EBE003408031D632F642FE32FFB309B00E32FB9
:100ECE0046304F021B3003194E0203186F2F702F3E
:100EDE00782F9B0195013E080319762F772FD62D7B
:100EEE00CF2DFB30150603197D2F7E2F852F34084D
:100EFE00031D822F832F852FFB309500FB301B06A1
:100F0E0003198A2F8B2FE32F3408031D8F2F902F59
:100F1E00E32F642F34080319952F962F972FE32F65
:100F2E00C81E9A2F9B2FA72F29304B02F73003197B
:100F3E004A02031CA32FA42FA72F95019B010A2F52
:100F4E0040080319AB2FAC2FB12FFB309500FB30AF
:100F5E009B00E32F95019B01E32F410C031C87138C
:100F6E0003188717E32F3A08003A03194C2D023A5B
:100F7E000319592D063A03198E2D0E3A0319E42D35
:100F8E00063A0319FD2D183A0319402E023A031999
:100F9E00592E083A0319A42E383A0319BA2D0E3ACF
:100FAE000319012F1A3A0319362F053A0319672F21
:100FBE000B3A0319912FB42F1B080319E72FE82FB3
:100FCE00E92F871215080319ED2FEE2FF72A0712B6
:100FDE00F72A0A128A110028831320308400563013
:100FEE000A128A1177210A128A1183010A128A11B2
:020FFE006C2A5B
:08400000FF3FFF3FFF3FFF3FC0
:02400E00450D5E
:00000001FF
