:060000000A128A11F32F21
:1003440064008001840A0406031900340406A32906
:10035400F3007308F20002300310F20DFF3E031D98
:10036400AE290310720D413E831203139F00033024
:10037400B800BE290130B8023808031DC229C329B8
:10038400BC291F151F19C729C829C4291E08F10033
:10039400831603131E08F0000800F401F501701C15
:1003A400D429D529DB297208F4070318F50A730840
:1003B400F50701300310F20DF30DFF3E031DDC2998
:1003C40001300310F10CF00CFF3E031DE32970080B
:1003D4007104031DEE29EF29D1297508F100740871
:1003E400F0000800F7007008840083130008F1008F
:1003F400840A0008F20004300310F20CF10CFF3EF2
:10040400031DFE29770884000008F300840A00080D
:10041400F40004300310F40CF30CFF3E031D0C2A0B
:1004240071087302F5007208031C720A7402F60064
:100434007008840075088007840F00080318000AF8
:10044400FF0076087F078000840308007708831282
:100454000313D7007608D6005708DC0034305C025A
:100464000318352A362A382ADB015D2ACC305C028F
:10047400031C3D2A3E2A412AFB30DB005D2A5C082E
:10048400CD3EDA005A08F800F9017808F00079083E
:10049400F1006930F2000130F3000A128A11CF2111
:1004A4000A128A11710883120313D9007008D80044
:1004B4005908223EDB005B08080077088312031307
:1004C400D7007608D6005708DC0034305C020318E5
:1004D4006C2A6D2A702A3230DB00952ACC305C02FB
:1004E400031C752A762A792AFB30DB00952A5C08DE
:1004F400CD3EDA005A08F800F9017808F0007908CE
:10050400F1004F30F2000130F3000A128A11CF21BA
:100514000A128A11710883120313D9007008D800D3
:100524005908323EDB005B080800183083120313BD
:1005340083002030DE000030DF0000305F06031D42
:10054400A52A5E305E060319A82AA92AAF2A5E08E6
:10055400840083175F1C831380010130DE070318B6
:10056400DF0A0030DF0700305F02803003195E02CB
:10057400031CBD2ABE2A9F2A870183160313870101
:1005840006111C3083120313850083160313811391
:10059400E33085009F1383120313BA010609BB00DD
:1005A400B80108303802031CD82AD92ADA2AE52AE5
:1005B4003808203E84003B08831380000130DD00AE
:1005C4005D08B807D32A3B08C900C80100300A12E5
:1005D4008A11AA210A128A11710883120313CD0009
:1005E4007008CC0001300A128A11AA210A128A1159
:1005F400710883120313CF007008CE0004300A126E
:100604008A11AA210A128A11710883120313CB00DA
:100614007008CA009B0195010F309D040F309704A8
:100624001208FC3901389200FA3083160313920041
:10063400831203131215F8308F0030308E0010141B
:100644006400831203130C1C282B292B222BF83053
:100654008F0030308E000C100130DD005D08B907CA
:100664000730DD005D08B9053908203E840006091D
:1006740083138000FF30BD00BC01B801083038028C
:10068400031C452B462B472B5A2B3808203E84004D
:100694000008DD005D08BD053808203E8400000820
:1006A400DD005D08BC040130DD005D08B807402BA7
:1006B4003C083B05DD003B093D055D04C9003B09E1
:1006C4004905C8004908BB0000300A128A11AA2152
:1006D4000A128A11710883120313D3007008D2001E
:1006E40001300A128A11AA210A128A11710883128E
:1006F4000313D5007008D40004300A128A11AA2109
:100704000A128A11710883120313D1007008D000F1
:100714004C30F00052300A128A11F4210A128A1164
:100724004E30F00054300A128A11F4210A128A1150
:100734004A30F00050300A128A11F4210A128A1148
:1007440083120313B11BA72BA92B0130AA2B003052
:10075400C200B11AAE2BB02B0130B12B0030C10056
:100764000130DD005D08B10734080319BA2BBB2B37
:10077400CF2B0130DD005D08B40724303402031CA4
:10078400C42BC52BC72BB401CF2B0B303402031C55
:10079400CC2BCD2BCF2B0712871233304D023430A4
:1007A40003194C020318D72BD92B0130DA2B003054
:1007B400C000400C031C87110318871505303A024A
:1007C400031CE52BE62BE72BC70132303302031859
:1007D400EC2BED2BF32B0130DD005D08B307BA01E0
:1007E400B92C40080319F72BF82B112C3C303A068E
:1007F4000319FD2BFE2B112C22304B024930031917
:100804004A020318062C072C112C3F30DD005D082A
:1008140087053C30BA00B401B40A8717B92C491CC7
:10082400142C152C2D2C28303A0603191A2C1B2CA9
:100834002D2C3E0803191F2C202C2D2C3F30DD00BD
:100844005D088705B401B40A95019B01B601071739
:100854002830BA00B92C29304F02F63003194E0261
:100864000318352C362C462C32303A0603193B2C0F
:100874003C2C462C3F30DD005D088705B401B40AEA
:1008840087173230BA00B92CC91C492C4A2C5D2C6C
:100894001E303A0203184F2C502C5D2CB401B40ABC
:1008A40095019B013F30DD005D0887058717C8125D
:1008B4001E30BA00B92C43080319612C622C6F2C2A
:1008C4001E303A060319672C682C6F2C95019B0186
:1008D4002630BA00B401B40AB92C4D304F02C930E5
:1008E40003194E02031C772C782C8D2C37303A06D2
:1008F40003197D2C7E2C8D2C28303A060319832C69
:10090400842C8D2CB401B40A3730BA003F30DD009A
:100914005D0887050F2C1E303A060319922C932C80
:10092400AA2C3208031D972C982CAC2C4D08F700E8
:100934004C08F6000A128A1128220A128A1183121C
:100944000313B200253032020318A92CAA2CB92CA7
:10095400B201B92C4D08F7004C08F6000A128A11AE
:1009640028220A128A1183120313B200B92C4730C9
:100974004F02A53003194E02031CC12CC22CC42CF7
:100984000615CE2C46304F021B3003194E020318B5
:10099400CC2CCD2CCE2C06113A302D0299300319D3
:1009A4002C02031CD62CD72CEB2CAC01AD013A3015
:1009B4004F02D93003194E020318E12CE22CE92C22
:1009C4003F080319E62CE72CE92CC301C30ABF0135
:1009D400002D2C082D040319F02CF12C002D1F30B0
:1009E4003A02031CF62CF72CFA2CAC01AD01002DB5
:1009F4000130AC070318AD0A0030AD0740080319F5
:100A0400042D052D0E2D0030AB000030AA0000305F
:100A1400A9000030A800412D2B08031D212D023010
:100A24002A02031D1D2D49302902031D1D2DF130FD
:100A34002802031D1D2D031C202D212D292D831279
:100A440003138501FF30831603138500412D1C30E9
:100A5400831203138500E3308316031385000130EA
:100A640083120313A807003003180130A9070030CC
:100A740003180130AA07003003180130AB073230E5
:100A8400831233020318472D482DBA2F0130DD009D
:100A94005D08B307BA01BA2F323033020318532D5D
:100AA400542D562DBA01E32F0230BA000717E32F55
:100AB4004008031D5E2D5F2D612DC701C70A46083E
:100AC4000319652D662D682DC601E32FC81E6B2DF5
:100AD4006C2D752DC030DD005D0887040430BA002C
:100AE400BE01BE0AE32F47080319792D7A2DE32F9F
:100AF400320803197E2D7F2DE32FC7010A30BA0077
:100B0400B501E32F4008031D882D892D8B2DC701C6
:100B1400C70AC81E8E2D8F2D972D3F30DD005D082E
:100B240087050230BA00BE01582D470803199B2DD2
:100B34009C2DE32F32080319A02DA12DE32FC7010B
:100B44001430BA00822D420C031C87130318871734
:100B5400E32F0130DD005D08B5070A303506031DBB
:100B6400B42DB52DB82D87120716E32F3330350277
:100B7400031CBD2DBE2DE32F0C30BA0022309B0088
:100B84009501BF01E32F3208031DC92DCA2DD92DAC
:100B94009B010230BA003F30DD005D08870507176E
:100BA4000130AC000030AD00B401B40A0B2EFB30B0
:100BB4003202031CDE2DDF2DE72D32081B02031C3D
:100BC400E42DE52DE72D07170B2E410C031C07130D
:100BD4000318071732081B020318F12DF22D022EF9
:100BE4000130DD005D08B70703303702031CFB2D1D
:100BF400FC2D0B2EB7010130DD005D089B070B2E89
:100C0400FB3032020318072E082E0B2E32089B00ED
:100C14000B2EC30138304F024A3003194E02031819
:100C2400142E152EE32FBF01BF0AE32F0130DD0080
:100C34005D08B5070A303506031D212E222E252E08
:100C440087160712E32F33303502031C2A2E2B2E6E
:100C5400E32F1630BA00223095009B01C32D3208D1
:100C6400031D352E362E442E9501B401B40A0430EA
:100C7400BA00C030DD005D0887040130AC000030EC
:100C8400AD00812EFB303202031C492E4A2E552E14
:100C940032081502031C4F2E502E552EC030DD0095
:100CA4005D088704812E41080319592E5A2E5F2EA0
:100CB400C030DD005D088704632E3F30DD005D0831
:100CC4008705320815020318682E692E792E013023
:100CD400DD005D08B70703303702031C722E732E44
:100CE400812EB7010130DD005D089507812EFB30B0
:100CF400320203187E2E7F2E812E32089500383062
:100D04004F024A3003194E020318892E8A2E8C2E64
:100D1400BF01BF0AC301E32FC81E912E922EAD2E30
:100D24004008031D962E972EAD2E95019B013F3052
:100D3400DD005D088705C601C60AAF013E08031D34
:100D4400A42EA52EA62E562D0430BA00C030DD00E8
:100D54005D088704E32F3408031DB12EB22EE32F60
:100D64004D08F7004C08F6000A128A115F220A1295
:100D74008A1183120313B000FB303002031CC32E0C
:100D8400C42ECC2E30081B02031CC92ECA2ECC2E16
:100D94008717EF2E4008031DD02ED12ED32E871790
:100DA400D82E410C031C87130318871730081B0225
:100DB4000318DD2EDE2EED2E0130DD005D08B707B1
:100DC40037080319E62EE72EEF2EB7010130DD00B8
:100DD4005D089B07EF2E30089B001B089500E32F4E
:100DE400FB301B02031CF72EF82E042F9B01B401C9
:100DF400B40A3F30DD005D08870507170230BA00EA
:100E0400BE01E32F3408031D082F092FE32F2230DE
:100E14001B0203180E2F0F2F122F22309B000716D0
:100E24000130DD005D08B60702303602031C1B2FBB
:100E34001C2F212FB6010130DD005D089B07410CFA
:100E4400031C071303180717E32F34304F02333002
:100E540003194E02031C2F2F302F4C2F3F30DD007F
:100E64005D08870595019B01C301BF013E08031975
:100E74003C2F3D2F442FC030DD005D088704043033
:100E8400BA00E32F3F30DD005D0887050717023005
:100E9400BA00E32FFB3015060319512F522F592F97
:100EA4003408031D562F572F592FFB309500FB3064
:100EB4001B0603195E2F5F2FE32F3408031D632FD6
:100EC400642FE32FFB309B00E32F46304F021B308F
:100ED40003194E0203186F2F702F782F9B01950171
:100EE4003E080319762F772F442F3D2FFB3015062C
:100EF40003197D2F7E2F852F3408031D822F832F06
:100F0400852FFB309500FB301B0603198A2F8B2F8E
:100F1400E32F3408031D8F2F902FE32F642F340801
:100F24000319952F962F972FE32FC81E9A2F9B2FC7
:100F3400A72F29304B02F73003194A02031CA32FB1
:100F4400A42FA72F95019B01FB2E40080319AB2F5B
:100F5400AC2FB12FFB309500FB309B00E32F9501A4
:100F64009B01E32F410C031C871303188717E32FFE
:100F74003A08003A03194E2D023A03195A2D063A3B
:100F84000319842D0E3A0319AB2D063A0319C52D06
:100F9400183A0319182E023A0319312E083A031984
:100FA4008E2E383A0319A52D0E3A0319F22E1A3A49
:100FB4000319272F053A0319672F0B3A0319912FA9
:100FC400B42F1B080319E72FE82FE92F8712150800
:100FD4000319ED2FEE2F222B0712222B0A128A114E
:100FE400002883132030840056300A128A11A2216B
:0C0FF4000A128A1183010A128A11972A3E
:08400000FF3FFF3FFF3FFF3FC0
:02400E00450D5E
:00000001FF
