:060000000A128A11F32F21
:1002BE0064008001840A04060319003404066029D0
:1002CE00F3007308F20002300310F20DFF3E031D1F
:1002DE006B290310720D413E831203139F000330EE
:1002EE00B8007B290130B8023808031D7F29802908
:1002FE0079291F151F198429852981291E08F100C6
:10030E00831603131E08F0000800F401F501701C9B
:10031E009129922998297208F4070318F50A73088F
:10032E00F50701300310F20DF30DFF3E031D992961
:10033E0001300310F10CF00CFF3E031DA0297008D4
:10034E007104031DAB29AC298E297508F1007408C0
:10035E00F0000800F7007008840083130008F10015
:10036E00840A0008F20004300310F20CF10CFF3E78
:10037E00031DBB29770884000008F300840A0008D7
:10038E00F40004300310F40CF30CFF3E031DC929D6
:10039E0071087302F5007208031C720A7402F600EB
:1003AE007008840075088007840F00080318000A7F
:1003BE00FF0076087F078000840308007708831209
:1003CE000313D7007608D6005708DC0034305C02E1
:1003DE000318F229F329F529DB011A2ACC305C0225
:1003EE00031CFA29FB29FE29FB30DB001A2A5C08C4
:1003FE00CD3EDA005A08F800F9017808F0007908C5
:10040E00F1006930F2000130F3000A128A118C21DA
:10041E000A128A11710883120313D9007008D800CA
:10042E005908223EDB005B0808007708831203138D
:10043E00D7007608D6005708DC0034305C0203186B
:10044E00292A2A2A2D2A3230DB00522ACC305C028D
:10045E00031C322A332A362AFB30DB00522A5C0870
:10046E00CD3EDA005A08F800F9017808F000790854
:10047E00F1004F30F2000130F3000A128A118C2184
:10048E000A128A11710883120313D9007008D8005A
:10049E005908323EDB005B08080018308312031344
:1004AE0083002030DE000030DF0000305F06031DC9
:1004BE00622A5E305E060319652A662A6C2A5E0879
:1004CE00840083175F1C831380010130DE0703183D
:1004DE00DF0A0030DF0700305F02803003195E0252
:1004EE00031C7A2A7B2A5C2A870183160313870151
:1004FE0006111C3083120313850083160313811318
:10050E00E33085009F1383120313BA010609BB0063
:10051E00B80108303802031C952A962A972AA22A77
:10052E003808203E84003B08831380000130DD0034
:10053E005D08B807902A3B08C900C80100300A12AE
:10054E008A1167210A128A11710883120313CD00D2
:10055E007008CC0001300A128A1167210A128A1122
:10056E00710883120313CF007008CE0004300A12F4
:10057E008A1167210A128A11710883120313CB00A4
:10058E007008CA009B0195010F309D040F3097042F
:10059E001208FC3901389200FA30831603139200C8
:1005AE00831203131215F8308F0030308E001014A2
:1005BE0087153230AE006400831203130C1CE82A38
:1005CE00E92AE22AF8308F0030308E000C1001300C
:1005DE00DD005D08B9070730DD005D08B905390893
:1005EE00203E8400060983138000FF30BD00BC014D
:1005FE00B80108303802031C052B062B072B1A2BCB
:10060E003808203E84000008DD005D08BD0538086E
:10061E00203E84000008DD005D08BC040130DD00D2
:10062E005D08B807002B3C083B05DD003B093D0586
:10063E005D04C9003B094905C8004908BB000030EC
:10064E000A128A1167210A128A1171088312031382
:10065E00D3007008D20001300A128A1167210A12E3
:10066E008A11710883120313D5007008D400043068
:10067E000A128A1167210A128A1171088312031352
:10068E00D1007008D0004C30F00052300A128A119E
:10069E00B1210A128A114E30F00054300A128A111A
:1006AE00B1210A128A114A30F00050300A128A1112
:1006BE00B1210A128A1183120313B11B672B692B06
:1006CE0001306A2B0030C200B11A6E2B702B013034
:1006DE00712B0030C1000130DD005D08B107340818
:1006EE0003197A2B7B2B8F2B0130DD005D08B407AD
:1006FE0024303402031C842B852B872BB4018F2BC3
:10070E000B303402031C8C2B8D2B8F2B0712871270
:10071E0033304D02343003194C020318972B992BAA
:10072E0001309A2B0030C0002E0803199F2BA02BEE
:10073E00A82B0130AE022E08031DA62BA72BA82B2B
:10074E00871105303A02031CAD2BAE2BAF2BC70120
:10075E00323033020318B42BB52BBB2B0130DD0026
:10076E005D08B307BA01922C40080319BF2BC02BAA
:10077E00D92B3C303A060319C52BC62BD92B223068
:10078E004B02493003194A020318CE2BCF2BD92B1B
:10079E003F30DD005D0887053C30BA00B401B40A75
:1007AE008717922C491CDC2BDD2BF62B28303A06B2
:1007BE000319E22BE32BF62B3E080319E72BE82B4C
:1007CE00F62B87113F30DD005D088705B401B40AB2
:1007DE0095019B01B60107172830BA00922C2930DB
:1007EE004F02F63003194E020318FE2BFF2B0F2C6F
:1007FE0032303A060319042C052C0F2C3F30DD0045
:10080E005D088705B401B40A87173230BA00922CFE
:10081E00C91C122C132C2C2C1E303A02031C182C23
:10082E00192C1F2C26303A06031D1E2C1F2C2C2C87
:10083E00B401B40A95019B013F30DD005D088705C8
:10084E008717C8121E30BA00922C43080319302C99
:10085E00312C482C1E303A020318362C372C482CDB
:10086E0095019B0126303A0603193E2C3F2C452C50
:10087E002630BA003F30DD005D088705B401B40AAA
:10088E00922C4D304F02C93003194E02031C502CCE
:10089E00512C662C37303A060319562C572C662CE1
:1008AE0028303A0603195C2C5D2C662CB401B40A70
:1008BE003730BA003F30DD005D088705D72B1E307C
:1008CE003A0603196B2C6C2C832C3208031D702CEA
:1008DE00712C852C4D08F7004C08F6000A128A116F
:1008EE00E5210A128A1183120313B2002530320257
:1008FE000318822C832C922CB201922C4D08F700F7
:10090E004C08F6000A128A11E5210A128A11831286
:10091E000313B200922C47304F02A53003194E023A
:10092E00031C9A2C9B2C9D2C0615A72C46304F028F
:10093E001B3003194E020318A52CA62CA72C06114A
:10094E004308031DAB2CAC2CF02C3A302D02993001
:10095E0003192C02031CB42CB52CC92CAC01AD010F
:10096E003C304F02E53003194E020318BF2CC02C49
:10097E00C72C3F080319C42CC52CC72CC301C30AAE
:10098E00BF01F02C3F080319CD2CCE2CE22C3830B1
:10099E004F024B3003194E02031CD62CD72CDB2CE6
:1009AE00AC01AD01BF01F02C0130AC070318AD0A4C
:1009BE000030AD07F02C38304F024A3003194E028A
:1009CE000318EA2CEB2CEE2CBF01BF0AF02CAC0165
:1009DE00AD0140080319F42CF52CFE2C0030AB00B1
:1009EE000030AA000030A9000030A800322D2B08DC
:1009FE00031D112D02302A02031D0D2D493029022F
:100A0E00031D0D2DF1302802031D0D2D031C102D7D
:100A1E00112D1A2D83120313B3018501FF30831696
:100A2E0003138500322D1C30831203138500E3302F
:100A3E00831603138500013083120313A8070030B9
:100A4E0003180130A907003003180130AA0700303F
:100A5E0003180130AB073230831233020318382DDE
:100A6E00392DBA2F0130DD005D08B307BA01BA2F58
:100A7E00323033020318442D452D472DBA01E32F92
:100A8E000230BA000717E32FE32F4008031D502D45
:100A9E00512D532DC701C70A38304F024A30031962
:100AAE004E0203185B2D5C2D5E2DBF01BF0A46085A
:100ABE000319622D632D652DC601E32FC81E682D07
:100ACE00692D732DC030DD005D0887040430BA0037
:100ADE00BE01BE0A8715E32F47080319772D782D1F
:100AEE00E32F320803197C2D7D2DE32FC7010A3029
:100AFE00BA00B501E32F4008031D862D872D892DE1
:100B0E00C701C70A38304F024A3003194E02031884
:100B1E00912D922D942DBF01BF0AC81E972D982D91
:100B2E00A12D87113F30DD005D0887050230BA0028
:100B3E00BE01492D47080319A52DA62DE32F320816
:100B4E000319AA2DAB2DE32FC7011430BA00802D47
:100B5E003C304F02E63003194E02031CB72DB82D60
:100B6E00D32D3F30DD005D08870595019B01C30144
:100B7E003E080319C32DC42DCB2DC030DD005D08FA
:100B8E0087040430BA00E32F3F30DD005D0887058F
:100B9E0007170230BA00E32F420C031C8713031809
:100BAE008717E32F0130DD005D08B5070A303506E3
:100BBE00031DE22DE32DE62D87120716E32F3330AA
:100BCE003502031CEB2DEC2DE32F0C30BA00223036
:100BDE009B009501E32FAC01AD013208031DF82DEA
:100BEE00F92D042E9B010230BA003F30DD005D0866
:100BFE0087050717B401B40AE32FFB303202031C3A
:100C0E00092E0A2E112E32081B02031C0F2E102E37
:100C1E00112E492D410C031C071303180717320818
:100C2E001B0203181B2E1C2E2C2E0130DD005D081E
:100C3E00B70703303702031C252E262E4B2DB70186
:100C4E000130DD005D089B07E32FFB3032020318F5
:100C5E00312E322E4B2D32089B00E32F0130DD005A
:100C6E005D08B5070A303506031D3E2E3F2E422E77
:100C7E0087160712E32F33303502031C472E482EFA
:100C8E00E32F1630BA00223095009B01E32FAC0102
:100C9E00AD013208031D542E552E5F2E9501B40161
:100CAE00B40A0430BA00C030DD005D088704E32FBB
:100CBE00FB303202031C642E652E6C2E3208150298
:100CCE00031C6A2E6B2E6C2E5A2E41080319702EA1
:100CDE00712E762EC030DD005D0887047A2E3F30EF
:100CEE00DD005D0887053208150203187F2E802E61
:100CFE00902E0130DD005D08B70703303702031C6C
:100D0E00892E8A2E4B2DB7010130DD005D08950727
:100D1E00E32FFB3032020318952E962E4B2D320800
:100D2E009500E32FC81E9C2E9D2EBB2E4008031D42
:100D3E00A12EA22EBB2E95019B013F30DD005D083A
:100D4E008705C601C60AAF013E08031DAF2EB02EA1
:100D5E00582E0230BA0007178719B62EB72EE32F7A
:100D6E0087153230AE00E32F3408031DBF2EC02E80
:100D7E00E32F4D08F7004C08F6000A128A111C22C8
:100D8E000A128A1183120313B000FB303002031CC7
:100D9E00D12ED22EDA2E30081B02031CD72ED82EBF
:100DAE00DA2E8717FD2E4008031DDE2EDF2EE12ED4
:100DBE008717E62E410C031C87130318871730087C
:100DCE001B020318EB2EEC2EFB2E0130DD005D080E
:100DDE00B70737080319F42EF52EFD2EB701013093
:100DEE00DD005D089B07FD2E30089B001B0895005B
:100DFE00E32FFB301B02031C052F062F122F9B0126
:100E0E00B401B40A3F30DD005D08870507170230D4
:100E1E00BA00BE01E32F3408031D162F172FE32F40
:100E2E0022301B0203181C2F1D2F202F22309B0057
:100E3E0007160130DD005D08B60702303602031CCE
:100E4E00292F2A2F2F2FB6010130DD005D089B07B9
:100E5E00410C031C071303180717E32F34304F02FE
:100E6E00333003194E02031C3D2F3E2F4B2F3F30C4
:100E7E00DD005D08870595019B01BF013E08031942
:100E8E00492F4A2FCB2DC42DFB3015060319502F99
:100E9E00512F582F3408031D552F562F582FFB3026
:100EAE009500FB301B0603195D2F5E2FE32F3408D0
:100EBE00031D622F632FE32FFB309B00E32F463081
:100ECE004F021B3003194E0203186E2F6F2F772F10
:100EDE009B0195013E080319752F762FCB2DC42D3E
:100EEE00FB30150603197C2F7D2F842F3408031D2C
:100EFE00812F822F842FFB309500FB301B060319A8
:100F0E00892F8A2FE32F3408031D8E2F8F2FE32F67
:100F1E00632F34080319942F952F962FE32FC81E95
:100F2E00992F9A2FA72F29304B02F73003194A0217
:100F3E00031CA22FA32FA72F95019B018711092F09
:100F4E0040080319AB2FAC2FB12FFB309500FB30AF
:100F5E009B00E32F95019B01E32F410C031C87138C
:100F6E0003188717E32F3A08003A03193F2D023A68
:100F7E0003194C2D063A0319822D0E3A0319D92D59
:100F8E00063A0319F22D183A0319352E023A0319AF
:100F9E004E2E083A0319992E383A0319AF2D0E3AF0
:100FAE000319002F1A3A0319352F053A0319662F24
:100FBE000B3A0319902FB42F1B080319E72FE82FB4
:100FCE00E92F871215080319ED2FEE2FE22A0712CB
:100FDE00E22A0A128A110028831320308400563028
:100FEE000A128A115F210A128A1183010A128A11CA
:020FFE00542A73
:08400000FF3FFF3FFF3FFF3FC0
:02400E00450D5E
:00000001FF
