:060000000A128A11F32F21
:1002B60064008001840A04060319003404065C29DC
:1002C600F3007308F20002300310F20DFF3E031D27
:1002D60067290310720D413E831203139F000330FA
:1002E600B80077290130B8023808031D7B297C291C
:1002F60075291F151F19802981297D291E08F100DE
:10030600831603131E08F0000800F401F501701CA3
:100316008D298E2994297208F4070318F50A7308A3
:10032600F50701300310F20DF30DFF3E031D95296D
:1003360001300310F10CF00CFF3E031D9C297008E0
:100346007104031DA729A8298A297508F1007408D4
:10035600F0000800F7007008840083130008F1001D
:10036600840A0008F20004300310F20CF10CFF3E80
:10037600031DB729770884000008F300840A0008E3
:10038600F40004300310F40CF30CFF3E031DC529E2
:1003960071087302F5007208031C720A7402F600F3
:1003A6007008840075088007840F00080318000A87
:1003B600FF0076087F078000840308007708831211
:1003C6000313D7007608D6005708DC0034305C02E9
:1003D6000318EE29EF29F129DB01162ACC305C023D
:1003E600031CF629F729FA29FB30DB00162A5C08DC
:1003F600CD3EDA005A08F800F9017808F0007908CD
:10040600F1006930F2000130F3000A128A118821E6
:100416000A128A11710883120313D9007008D800D2
:100426005908223EDB005B08080077088312031395
:10043600D7007608D6005708DC0034305C02031873
:10044600252A262A292A3230DB004E2ACC305C02A5
:10045600031C2E2A2F2A322AFB30DB004E2A5C0888
:10046600CD3EDA005A08F800F9017808F00079085C
:10047600F1004F30F2000130F3000A128A11882190
:100486000A128A11710883120313D9007008D80062
:100496005908323EDB005B0808001830831203134C
:1004A60083002030DE000030DF0000305F06031DD1
:1004B6005E2A5E305E060319612A622A682A5E0891
:1004C600840083175F1C831380010130DE07031845
:1004D600DF0A0030DF0700305F02803003195E025A
:1004E600031C762A772A582A870183160313870165
:1004F60006111C3083120313850083160313811320
:10050600E33085009F1383120313BA010609BB006B
:10051600B80108303802031C912A922A932A9E2A8F
:100526003808203E84003B08831380000130DD003C
:100536005D08B8078C2A3B08C900C80100300A12BA
:100546008A1163210A128A11710883120313CD00DE
:100556007008CC0001300A128A1163210A128A112E
:10056600710883120313CF007008CE0004300A12FC
:100576008A1163210A128A11710883120313CB00B0
:100586007008CA009B0195010F309D040F30970437
:100596001208FC3901389200FA30831603139200D0
:1005A600831203131215F8308F0030308E001014AA
:1005B60087153230AE006400831203130C1CE42A44
:1005C600E52ADE2AF8308F0030308E000C1001301C
:1005D600DD005D08B9070730DD005D08B90539089B
:1005E600203E8400060983138000FF30BD00BC0155
:1005F600B80108303802031C012B022B032B162BE3
:100606003808203E84000008DD005D08BD05380876
:10061600203E84000008DD005D08BC040130DD00DA
:100626005D08B807FC2A3C083B05DD003B093D0593
:100636005D04C9003B094905C8004908BB000030F4
:100646000A128A1163210A128A117108831203138E
:10065600D3007008D20001300A128A1163210A12EF
:100666008A11710883120313D5007008D400043070
:100676000A128A1163210A128A117108831203135E
:10068600D1007008D0004C30F00052300A128A11A6
:10069600AD210A128A114E30F00054300A128A1126
:1006A600AD210A128A114A30F00050300A128A111E
:1006B600AD210A128A1183120313B11B632B652B1A
:1006C6000130662B0030C200B11A6A2B6C2B013048
:1006D6006D2B0030C1000130DD005D08B107340824
:1006E6000319762B772B8B2B0130DD005D08B407C1
:1006F60024303402031C802B812B832BB4018B2BDB
:100706000B303402031C882B892B8B2B0712871284
:1007160033304D02343003194C020318932B952BBA
:100726000130962B0030C0002E0803199B2B9C2B02
:10073600A42B0130AE022E08031DA22BA32BA42B43
:10074600871105303A02031CA92BAA2BAB2BC70134
:10075600323033020318B02BB12BB72B0130DD003A
:100766005D08B307BA018F2C40080319BB2BBC2BBD
:10077600D52B3C303A060319C12BC22BD52B223080
:100786004B02493003194A020318CA2BCB2BD52B2F
:100796003F30DD005D0887053C30BA00B401B40A7D
:1007A60087178F2C491CD82BD92BF22B28303A06C9
:1007B6000319DE2BDF2BF22B3E080319E32BE42B68
:1007C600F22B87113F30DD005D088705B401B40ABE
:1007D60095019B01B60107172830BA008F2C2930E6
:1007E6004F02F63003194E020318FA2BFB2B0B2C83
:1007F60032303A060319002C012C0B2C3F30DD0059
:100806005D088705B401B40A87173230BA008F2C09
:10081600C91C0E2C0F2C292C1E303A02031C142C3A
:10082600152C1B2C26303A06031D1A2C1B2C292CA2
:10083600B401B40A95019B013F30DD005D088705D0
:100846008717C81287111E30BA008F2C4308031968
:100856002D2C2E2C452C1E303A020318332C342C0A
:10086600452C95019B0126303A0603193B2C3C2C5E
:10087600422C2630BA003F30DD005D088705B40102
:10088600B40A8F2C4D304F02C93003194E02031C97
:100896004D2C4E2C632C37303A060319532C542C0E
:1008A600632C28303A060319592C5A2C632CB401B0
:1008B600B40A3730BA003F30DD005D088705D32B18
:1008C6001E303A060319682C692C802C3208031D49
:1008D6006D2C6E2C822C4D08F7004C08F6000A127F
:1008E6008A11E1210A128A1183120313B2002530FC
:1008F600320203187F2C802C8F2CB2018F2C4D08CE
:10090600F7004C08F6000A128A11E1210A128A1130
:1009160083120313B2008F2C47304F02A530031900
:100926004E02031C972C982C9A2C0615A42C4630A4
:100936004F021B3003194E020318A22CA32CA42C21
:1009460006114308031DA82CA92CED2C3A302D02C4
:10095600993003192C02031CB12CB22CC62CAC0105
:10096600AD013C304F02E53003194E020318BC2C92
:10097600BD2CC42C3F080319C12CC22CC42CC301A6
:10098600C30ABF01ED2C3F080319CA2CCB2CDF2C60
:1009960038304F024B3003194E02031CD32CD42C93
:1009A600D82CAC01AD01BF01ED2C0130AC0703180A
:1009B600AD0A0030AD07ED2C38304F024A3003192E
:1009C6004E020318E72CE82CEB2CBF01BF0AED2CD6
:1009D600AC01AD0140080319F12CF22CFB2C0030C0
:1009E600AB000030AA000030A9000030A8002F2D6F
:1009F6002B08031D0E2D02302A02031D0A2D493035
:100A06002902031D0A2DF1302802031D0A2D031C9D
:100A16000D2D0E2D172D83120313B3018501FF3003
:100A26008316031385002F2D1C30831203138500B4
:100A3600E330831603138500013083120313A807DE
:100A4600003003180130A907003003180130AA0747
:100A5600003003180130AB0732308312330203181B
:100A6600352D362DBA2F0130DD005D08B307BA01EA
:100A7600BA2F323033020318412D422D442DBA01CC
:100A8600E32F0230BA000717E32FE32F4008031DB8
:100A96004D2D4E2D502DC701C70A38304F024A3012
:100AA60003194E020318582D592D5B2DBF01BF0A9D
:100AB600460803195F2D602D622DC601E32FC81E5F
:100AC600652D662D702DC030DD005D08870404306D
:100AD600BA00BE01BE0A8715E32F47080319742D15
:100AE600752DE32F32080319792D7A2DE32FC701CF
:100AF6000A30BA00B501E32F4008031D832D842D6B
:100B0600862DC701C70A38304F024A3003194E02F4
:100B160003188E2D8F2D912DBF01BF0AC81E942D4F
:100B2600952D9E2D87113F30DD005D08870502302B
:100B3600BA00BE01462D47080319A22DA32DE32FA7
:100B460032080319A72DA82DE32FC7011430BA00C8
:100B56007D2D3C304F02E63003194E02031CB42DA6
:100B6600B52DD02D3F30DD005D08870595019B0131
:100B7600C3013E080319C02DC12DC82DC030DD00AC
:100B86005D0887040430BA00E32F3F30DD005D08BE
:100B9600870507170230BA00E32F420C031C8713A0
:100BA60003188717E32F0130DD005D08B5070A300B
:100BB6003506031DDF2DE02DE32D87120716E32FE3
:100BC60033303502031CE82DE92DE32F0C30BA0033
:100BD60022309B009501E32FAC01AD013208031DC5
:100BE600F52DF62D012E9B010230BA003F30DD00B7
:100BF6005D0887050717B401B40AE32FFB303202FC
:100C0600031C062E072E0E2E32081B02031C0C2E6A
:100C16000D2E0E2E462D410C031C07130318071725
:100C260032081B020318182E192E292E0130DD005A
:100C36005D08B70703303702031C222E232E482DEA
:100C4600B7010130DD005D089B07E32FFB30320260
:100C560003182E2E2F2E482D32089B00E32F01302D
:100C6600DD005D08B5070A303506031D3B2E3C2E18
:100C76003F2E87160712E32F33303502031C442E0E
:100C8600452EE32F1630BA00223095009B01E32F44
:100C9600AC01AD013208031D512E522E5C2E95017A
:100CA600B401B40A0430BA00C030DD005D08870420
:100CB600E32FFB303202031C612E622E692E3208AE
:100CC6001502031C672E682E692E572E410803193C
:100CD6006D2E6E2E732EC030DD005D088704772ED4
:100CE6003F30DD005D0887053208150203187C2EAB
:100CF6007D2E8D2E0130DD005D08B70703303702EB
:100D0600031C862E872E482DB7010130DD005D08B5
:100D16009507E32FFB3032020318922E932E482DAF
:100D260032089500E32FC81E992E9A2EBB2E400836
:100D3600031D9E2E9F2EBB2E95019B013F30DD008D
:100D46005D088705C601C60AAF013E08031DAC2E25
:100D5600AD2EB42E0230BA00071787153230AE001A
:100D6600E32F0430BA00C030DD005D0887046E2D25
:100D76003408031DBF2EC02EE32F4D08F7004C0884
:100D8600F6000A128A1118220A128A118312031314
:100D9600B000FB303002031CD12ED22EDA2E3008E2
:100DA6001B02031CD72ED82EDA2E8717FD2E4008DD
:100DB600031DDE2EDF2EE12E8717E62E410C031CC7
:100DC60087130318871730081B020318EB2EEC2E27
:100DD600FB2E0130DD005D08B70737080319F42E36
:100DE600F52EFD2EB7010130DD005D089B07FD2EB7
:100DF60030089B001B089500E32FFB301B02031CE9
:100E0600052F062F122F9B01B401B40A3F30DD00D7
:100E16005D08870507170230BA00BE01E32F3408C4
:100E2600031D162F172FE32F22301B0203181C2F2A
:100E36001D2F202F22309B0007160130DD005D0894
:100E4600B60702303602031C292F2A2F2F2FB60190
:100E56000130DD005D089B07410C031C07130318D6
:100E66000717E32F34304F02333003194E02031CA9
:100E76003D2F3E2F4B2F3F30DD005D088705950146
:100E86009B01BF013E080319492F4A2FC82DC12DCA
:100E9600FB3015060319502F512F582F3408031D08
:100EA600552F562F582FFB309500FB301B06031984
:100EB6005D2F5E2FE32F3408031D622F632FE32F70
:100EC600FB309B00E32F46304F021B3003194E02C6
:100ED60003186E2F6F2F772F9B0195013E0803197C
:100EE600752F762FC82DC12DFB30150603197C2FC3
:100EF6007D2F842F3408031D812F822F842FFB30F2
:100F06009500FB301B060319892F8A2FE32F34081F
:100F1600031D8E2F8F2FE32F632F34080319942F71
:100F2600952F962FE32FC81E992F9A2FA72F29307A
:100F36004B02F73003194A02031CA22FA32FA72F37
:100F460095019B018711092F40080319AB2FAC2F80
:100F5600B12FFB309500FB309B00E32F95019B01E1
:100F6600E32F410C031C871303188717E32F3A0856
:100F7600003A03193C2D023A0319492D063A031982
:100F86007F2D0E3A0319D62D063A0319EF2D183A7E
:100F96000319322E023A03194B2E083A0319962EDC
:100FA600383A0319AC2D0E3A0319002F1A3A0319D1
:100FB600352F053A0319662F0B3A0319902FB42FD4
:100FC6001B080319E72FE82FE92F871215080319C5
:100FD600ED2FEE2FDE2A0712DE2A0A128A110028CA
:100FE60083132030840056300A128A115B210A12BC
:0A0FF6008A1183010A128A11502AA1
:08400000FF3FFF3FFF3FFF3FC0
:02400E00450D5E
:00000001FF
