:060000000A128A11F32F21
:1002880064008001840A0406031900340406452921
:10029800F3007308F20002300310F20DFF3E031D55
:1002A80050290310720D413E831203139F0003303F
:1002B800B90060290130B9023908031D642965298C
:1002C8005E291F151F1969296A2966291E08F10068
:1002D800831603131E08F0000800F401F501701CD2
:1002E800762977297D297208F4070318F50A730817
:1002F800F50701300310F20DF30DFF3E031D7E29B3
:1003080001300310F10CF00CFF3E031D8529700825
:100318007104031D9029912973297508F100740847
:10032800F0000800F7007008840083130008F1004B
:10033800840A0008F20004300310F20CF10CFF3EAE
:10034800031DA029770884000008F300840A000828
:10035800F40004300310F40CF30CFF3E031DAE2927
:1003680071087302F5007208031C720A7402F60021
:100378007008840075088007840F00080318000AB5
:10038800FF0076087F07800084030800770883123F
:100398000313D8007608D7005808DD0034305D0212
:1003A8000318D729D829DA29DC01FF29CC305D02C6
:1003B800031CDF29E029E329FB30DC00FF295D0865
:1003C800CD3EDB005B08F800F9017808F0007908F9
:1003D800F1006930F2000130F3000A128A1171212C
:1003E8000A128A11710883120313DA007008D900FF
:1003F8005A08223EDC005C080800770883120313C1
:10040800D8007608D7005808DD0034305D0203189C
:100418000E2A0F2A122A3230DC00372ACC305D022D
:10042800031C172A182A1B2AFB30DC00372A5D0810
:10043800CD3EDB005B08F800F9017808F000790888
:10044800F1004F30F2000130F3000A128A117121D5
:100458000A128A11710883120313DA007008D9008E
:100468005A08323EDC005C08080018308312031377
:1004780083002030DF000030E00000306006031DFC
:10048800472A5F305F0603194A2A4B2A512A5F0818
:1004980084008317601C831380010130DF07031871
:1004A800E00A0030E00700306002803003195F0284
:1004B800031C5F2A602A412A8701831603138701D8
:1004C80006111C308312031385008316031381134E
:1004D800E3308500831203130714831603139F1355
:1004E80083120313BB010609BC00B90108303902A5
:1004F800031C7F2A802A812A8C2A3908203E8400FE
:100508003C08831380000130DE005E08B9077A2AB0
:100518003C08CA00C90100300A128A114C210A128B
:100528008A11710883120313CE007008CD000130C0
:100538000A128A114C210A128A11710883120313B4
:10054800D0007008CF0004300A128A114C210A1218
:100558008A11710883120313CC007008CB009B0129
:1005680095010F309D040F3097041208FC390138AB
:100578009200FA30831603139200831203131215A4
:10058800F8308F0030308E00101487153230AE00EE
:100598006400831203130C1CD22AD32ACC2AF83005
:1005A8008F0030308E000C100130DE005E08BA0774
:1005B8000730DE005E08BA053A08203E84000609C6
:1005C80083138000FF30BE00BD01B9010830390235
:1005D800031CEF2AF02AF12A042B3908203E840054
:1005E8000008DE005E08BE053908203E84000008C9
:1005F800DE005E08BD040130DE005E08B907EA2AA5
:100608003D083C05DE003C093E055E04CA003C0985
:100618004A05C9004A08BC0000300A128A114C2158
:100628000A128A11710883120313D4007008D300C8
:1006380001300A128A114C210A128A117108831298
:100648000313D6007008D50004300A128A114C2111
:100658000A128A11710883120313D2007008D1009C
:100668004D30F00053300A128A1196210A128A116D
:100678004F30F00055300A128A1196210A128A1159
:100688004B30F00051300A128A1196210A128A1151
:1006980083120313B11B512B532B0130542B003001
:1006A800C300B11A582B5A2B01305B2B0030C20003
:1006B8000130DE005E08B10735080319642B652B8D
:1006C800792B0130DE005E08B50724303502031CA3
:1006D8006E2B6F2B712BB501792B0B303502031C58
:1006E800762B772B792B0712871233304E02343052
:1006F80003194D020318812B832B0130842B003002
:10070800C1002E080319892B8A2B922B0130AE02C7
:100718002E08031D902B912B922B871105303B023D
:10072800031C972B982B992BC801323034020318DD
:100738009E2B9F2BA52B0130DE005E08B407BB0162
:100748007D2C41080319A92BAA2BC32B3C303B064F
:100758000319AF2BB02BC32B22304C02493003199D
:100768004B020318B82BB92BC32B3F30DE005E08B1
:1007780087053C30BB00B501B50A87177D2C4A1C9C
:10078800C62BC72BE02B28303B060319CC2BCD2BCF
:10079800E02B3F080319D12BD22BE02B87113F30D8
:1007A800DE005E088705B501B50A95019B01B70112
:1007B80007172830BB007D2C29305002F63003196A
:1007C8004F020318E82BE92BF92B32303B060319AB
:1007D800EE2BEF2BF92B3F30DE005E088705B501C5
:1007E800B50A87173230BB007D2CCA1CFC2BFD2BA9
:1007F800172C1E303B02031C022C032C092C26301C
:100808003B06031D082C092C172CB501B50A9501C8
:100818009B013F30DE005E0887058717C9128711E4
:100828001E30BB007D2C440803191B2C1C2C332CB8
:100838001E303B020318212C222C332C95019B01DE
:1008480026303B060319292C2A2C302C2630BB00D5
:100858003F30DE005E088705B501B50A7D2C4D30B6
:100868005002C93003194F02031C3B2C3C2C512C5D
:1008780037303B060319412C422C512C28303B06BB
:100888000319472C482C512CB501B50A3730BB0049
:100898003F30DE005E088705C12B1E303B0603197A
:1008A800562C572C6E2C3208031D5B2C5C2C702C9C
:1008B8004E08F7004D08F6000A128A11CA210A12DA
:1008C8008A1183120313B2002530320203186D2CEB
:1008D8006E2C7D2CB2017D2C4E08F7004D08F600D9
:1008E8000A128A11CA210A128A1183120313B2004A
:1008F8007D2C47305002A53003194F02031C852C6C
:10090800862C882C0615922C463050021B30031971
:100918004F020318902C912C922C06114408031DA9
:10092800962C972CDB2C3A302D02993003192C0287
:10093800031C9F2CA02CB42CAC01AD013C30500200
:10094800E53003194F020318AA2CAB2CB22C40082F
:100958000319AF2CB02CB22CC401C40AC001DB2C83
:1009680040080319B82CB92CCD2C383050024B3024
:1009780003194F02031CC12CC22CC62CAC01AD01BB
:10098800C001DB2C0130AC070318AD0A0030AD07FD
:10099800DB2C383050024A3003194F020318D52C8B
:1009A800D62CD92CC001C00ADB2CAC01AD01410802
:1009B8000319DF2CE02CE92C0030AB000030AA0032
:1009C8000030A9000030A800252D2B08031DFC2CA1
:1009D80002302A02031DF82C49302902031DF82C85
:1009E800F1302802031DF82C031CFB2CFC2C0C2DC9
:1009F80083120313B4018501FF30831603138500A6
:100A0800831203138701FF30831603138700252DF4
:100A18001C30831203138500E3308316031385000B
:100A28008312031307140130A8070030031801309C
:100A3800A907003003180130AA0700300318013055
:100A4800AB0732308312340203182B2D2C2DBA2F0A
:100A58000130DE005E08B407BB01BA2F3230340221
:100A68000318372D382D3A2DBB01E32F0230BB0078
:100A78000717E32FE32F4108031D432D442D462D6F
:100A8800C801C80A383050024A3003194F02031807
:100A98004E2D4F2D512DC001C00A47080319552D61
:100AA800562D582DC701E32FC91E5B2D5C2D662DD1
:100AB800C030DE005E0887040430BB00BF01BF0AF7
:100AC8008715E32F480803196A2D6B2DE32F320889
:100AD80003196F2D702DE32FC8010A30BB00B60132
:100AE800E32F4108031D792D7A2D7C2DC801C80AF2
:100AF800383050024A3003194F020318842D852DCF
:100B0800872DC001C00AC91E8A2D8B2D942D8711EF
:100B18003F30DE005E0887050230BB00BF013C2D78
:100B280048080319982D992DE32F320803199D2D94
:100B38009E2DE32FC8011430BB00732D3C305002AA
:100B4800E63003194F02031CAA2DAB2DC62D3F30EA
:100B5800DE005E08870595019B01C4013F08031963
:100B6800B62DB72DBE2DC030DE005E0887040430D8
:100B7800BB00E32F3F30DE005E0887050717023011
:100B8800BB00E32F430C031C871303188717E32FBD
:100B98000130DE005E08B6070A303606031DD52D83
:100BA800D62DD92D87120716E32F33303602031CB2
:100BB800DE2DDF2DE32F0C30BB0022309B0095018A
:100BC800E32FAC01AD013208031DEB2DEC2DF72D01
:100BD8009B010230BB003F30DE005E088705071727
:100BE800B501B50AE32FFB303202031CFC2DFD2DA5
:100BF800042E32081B02031C022E032E042E3C2D49
:100C0800420C031C07130318071732081B020318AA
:100C18000E2E0F2E1F2E0130DE005E08B80703309F
:100C28003802031C182E192E3E2DB8010130DE00A3
:100C38005E089B07E32FFB3032020318242E252E73
:100C48003E2D32089B00E32F0130DE005E08B60718
:100C58000A303606031D312E322E352E871607121E
:100C6800E32F33303602031C3A2E3B2EE32F163087
:100C7800BB00223095009B01E32FAC01AD01320887
:100C8800031D472E482E522E9501B501B50A043092
:100C9800BB00C030DE005E088704E32FFB30320261
:100CA800031C572E582E5F2E32081502031C5D2E8A
:100CB8005E2E5F2E4D2E42080319632E642E692E78
:100CC800C030DE005E0887046D2E3F30DE005E080F
:100CD8008705320815020318722E732E832E0130F1
:100CE800DE005E08B80703303802031C7C2E7D2E18
:100CF8003E2DB8010130DE005E089507E32FFB307A
:100D080032020318882E892E3E2D32089500E32FD3
:100D1800C91E8F2E902EA92E4108031D942E952EA4
:100D2800A92E95019B013F30DE005E088705C701AB
:100D3800C70AAF013C30B30087153F08031DA52E35
:100D4800A62EE32F3230AE00E32F33080319AD2E61
:100D5800AE2EBB2E0130B3023308031DB42EB52EC0
:100D6800E32F3F08031DB92EBA2E4B2E3A2D350816
:100D7800031DBF2EC02EE32F4E08F7004D08F600C6
:100D88000A128A1101220A128A1183120313B0006F
:100D9800FB303002031CD12ED22EDA2E30081B0273
:100DA800031CD72ED82EDA2E8717FD2E4108031DD7
:100DB800DE2EDF2EE12E8717E62E420C031C87134A
:100DC8000318871730081B020318EB2EEC2EFB2E96
:100DD8000130DE005E08B80738080319F42EF52E36
:100DE800FD2EB8010130DE005E089B07FD2E30089D
:100DF8009B001B089500E32FFB301B02031C052FEB
:100E0800062F122F9B01B501B50A3F30DE005E08A0
:100E1800870507170230BB00BF01E32F3508031D04
:100E2800162F172FE32F22301B0203181C2F1D2FFC
:100E3800202F22309B0007160130DE005E08B7071E
:100E480002303702031C292F2A2F2F2FB701013018
:100E5800DE005E089B07420C031C071303180717E4
:100E6800E32F34305002333003194F02031C3D2F57
:100E78003E2F4B2F3F30DE005E08870595019B0112
:100E8800C0013F080319492F4A2FBE2DB72DFB304B
:100E980015060319502F512F582F3508031D552FAC
:100EA800562F582FFB309500FB301B0603195D2F7A
:100EB8005E2FE32F3508031D622F632FE32FFB30CE
:100EC8009B00E32F463050021B3003194F020318D2
:100ED8006E2F6F2F772F9B0195013F080319752FF0
:100EE800762FBE2DB72DFB30150603197C2F7D2FCD
:100EF800842F3508031D812F822F842FFB30950006
:100F0800FB301B060319892F8A2FE32F3508031D91
:100F18008E2F8F2FE32F632F35080319942F952FCA
:100F2800962FE32FC91E992F9A2FA72F29304C02ED
:100F3800F73003194B02031CA22FA32FA72F9501EB
:100F48009B018711092F41080319AB2FAC2FB12F33
:100F5800FB309500FB309B00E32F95019B01E32FAD
:100F6800420C031C871303188717E32F3B08003A2A
:100F78000319322D023A03193F2D063A0319752D2C
:100F88000E3A0319CC2D063A0319E52D183A031920
:100F9800282E023A0319412E083A03198C2E383AA2
:100FA8000319A22D0E3A0319002F1A3A0319352FE7
:100FB800053A0319662F0B3A0319902FB42F1B0813
:100FC8000319E72FE82FE92F871215080319ED2FCA
:100FD800EE2FCC2A0712CC2A0A128A110028831372
:100FE8002030840057300A128A1144210A128A11CB
:080FF80083010A128A11392A53
:08400000FF3FFF3FFF3FFF3FC0
:02400E00450D5E
:00000001FF
