:060000000A128A11F32F21
:1002D20064008001840A04060319003404066A29B2
:1002E200F3007308F20002300310F20DFF3E031D0B
:1002F20075290310720D413E831203139F000330D0
:10030200B80085290130B8023808031D89298A29D5
:1003120083291F151F198E298F298B291E08F10089
:10032200831603131E08F0000800F401F501701C87
:100332009B299C29A2297208F4070318F50A73085D
:10034200F50701300310F20DF30DFF3E031DA32943
:1003520001300310F10CF00CFF3E031DAA297008B6
:100362007104031DB529B62998297508F10074088E
:10037200F0000800F7007008840083130008F10001
:10038200840A0008F20004300310F20CF10CFF3E64
:10039200031DC529770884000008F300840A0008B9
:1003A200F40004300310F40CF30CFF3E031DD329B8
:1003B20071087302F5007208031C720A7402F600D7
:1003C2007008840075088007840F00080318000A6B
:1003D200FF0076087F0780008403080077088312F5
:1003E2000313D7007608D6005708DC0034305C02CD
:1003F2000318FC29FD29FF29DB01242ACC305C02E9
:10040200031C042A052A082AFB30DB00242A5C0884
:10041200CD3EDA005A08F800F9017808F0007908B0
:10042200F1006930F2000130F3000A128A119621BC
:100432000A128A11710883120313D9007008D800B6
:100442005908223EDB005B08080077088312031379
:10045200D7007608D6005708DC0034305C02031857
:10046200332A342A372A3230DB005C2ACC305C0251
:10047200031C3C2A3D2A402AFB30DB005C2A5C0834
:10048200CD3EDA005A08F800F9017808F000790840
:10049200F1004F30F2000130F3000A128A11962166
:1004A2000A128A11710883120313D9007008D80046
:1004B2005908323EDB005B08080018308312031330
:1004C20083002030DE000030DF0000305F06031DB5
:1004D2006C2A5E305E0603196F2A702A762A5E083D
:1004E200840083175F1C831380010130DE07031829
:1004F200DF0A0030DF0700305F02803003195E023E
:10050200031C842A852A662A87018316031387011E
:1005120006111C3083120313850083160313811303
:10052200E33085009F1383120313BB010609BC004D
:10053200B80108303802031C9F2AA02AA12AAC2A3B
:100542003808203E84003C08831380000130DD001F
:100552005D08B8079A2A3C08C900C80100300A128F
:100562008A1171210A128A11710883120313CD00B4
:100572007008CC0001300A128A1171210A128A1104
:10058200710883120313CF007008CE0004300A12E0
:100592008A1171210A128A11710883120313CB0086
:1005A2007008CA009B0195010F309D040F3097041B
:1005B2001208FC3901389200FA30831603139200B4
:1005C200831203131215F8308F0030308E0010148E
:1005D20087153230AE006400831203130C1CF22A1A
:1005E200F32AEC2AF8308F0030308E000C100130E4
:1005F200DD005D08B9070730DD005D08B90539087F
:10060200203E8400060983138000FF30BE00BD0136
:10061200B80108303802031C0F2B102B112B242B8E
:100622003808203E84000008DD005D08BE05380859
:10063200203E84000008DD005D08BD040130DD00BD
:100642005D08B8070A2B3D083C05DD003C093E0564
:100652005D04C9003C094905C8004908BC000030D6
:100662000A128A1171210A128A1171088312031364
:10067200D3007008D20001300A128A1171210A12C5
:100682008A11710883120313D5007008D400043054
:100692000A128A1171210A128A1171088312031334
:1006A200D1007008D0004C30F00052300A128A118A
:1006B200BB210A128A114E30F00054300A128A11FC
:1006C200BB210A128A114A30F00050300A128A11F4
:1006D200BB210A128A1183120313B11B712B732BD4
:1006E2000130742B0030C200B11A782B7A2B013002
:1006F2007B2B0030C1000130DD005D08B1073408FA
:100702000319842B852B992B0130DD005D08B4077A
:1007120024303402031C8E2B8F2B912BB401992B86
:100722000B303402031C962B972B992B071287123E
:1007320033304D02343003194C020318A12BA32B82
:100742000130A42B0030C0002E080319A92BAA2BBC
:10075200B22B0130AE022E08031DB02BB12BB22BEF
:10076200871105303B02031CB72BB82BB92BC701ED
:10077200323033020318BE2BBF2BC52B0130DD00F4
:100782005D08B307BB01992C40080319C92BCA2B7A
:10079200E42B3C303B060319CF2BD02BE42B223029
:1007A2004B02493003194A020318D82BD92BE42BE8
:1007B2003F30DD005D0887053C30BB00B401B40A60
:1007C20087178711992C491CE72BE82B082C283016
:1007D2003B060319ED2BEE2B082C0A303B060319BE
:1007E200F32BF42B082C0C303B060319F92BFA2BB4
:1007F200082C87113F30DD005D088705B401B40A7B
:1008020095019B01B60107172830BB00992C2930AE
:100812004F02F63003194E020318102C112C232C10
:1008220032303B060319162C172C232C3B08BA0036
:100832003F30DD005D088705B401B40A8717323006
:10084200BB00992CC91C262C272C3A2C1E303B02AB
:1008520003182C2C2D2C3A2CB401B40A95019B01BF
:100862003F30DD005D0887058717C8121E30BB00C8
:10087200992C430803193E2C3F2C4C2C1E303B066E
:100882000319442C452C4C2C95019B012630BB00AE
:10089200B401B40A992C4D304F02C93003194E02EB
:1008A200031C542C552C6D2C37303B0603195A2C43
:1008B2005B2C6D2C28303B060319602C612C6D2CAF
:1008C2003B08BA00B401B40A3730BB003F30DD0048
:1008D2005D0887058717992C1E303B060319722C79
:1008E200732C8A2C3208031D772C782C8C2C4D0803
:1008F200F7004C08F6000A128A11EF210A128A1137
:1009020083120313B200253032020318892C8A2C79
:10091200992CB201992C4D08F7004C08F6000A12E6
:100922008A11EF210A128A1183120313B200992C41
:1009320047304F02A53003194E02031CA12CA22CF2
:10094200A42C0615AE2C46304F021B3003194E0262
:100952000318AC2CAD2CAE2C06113A302D02993076
:1009620003192C02031CB62CB72CCB2CAC01AD0105
:100972003A304F02D93003194E020318C12CC22C4F
:10098200C92C3F080319C62CC72CC92CC301C30AA2
:10099200BF01E02C2C082D040319D02CD12CE02C03
:1009A2001F303B02031CD62CD72CDA2CAC01AD0134
:1009B200E02C0130AC070318AD0A0030AD07400847
:1009C2000319E42CE52CEE2C0030AB000030AA0019
:1009D2000030A9000030A800212D2B08031D012D95
:1009E20002302A02031DFD2C49302902031DFD2C71
:1009F200F1302802031DFD2C031C002D012D092DB1
:100A0200831203138501FF30831603138500212D02
:100A12001C30831203138500E33083160313850011
:100A2200013083120313A807003003180130A9070D
:100A3200003003180130AA07003003180130AB0759
:100A42003230831233020318272D282DBA2F01309A
:100A5200DD005D08B307BB01BA2F32303302031841
:100A6200332D342D362DBB01E32F0230BB00071787
:100A7200E32F4008031D3E2D3F2D412DC701C70A1C
:100A820046080319452D462D482DC601E32FC81EE1
:100A92004B2D4C2D542DC030DD005D0887040430F1
:100AA200BB008715E32F47080319582D592DE32F53
:100AB200320803195D2D5E2DE32FC7010A30BB00FA
:100AC200B501E32F4008031D672D682D6A2DC7016C
:100AD200C70AC91A6D2D6E2D742D87113F30DD00A6
:100AE2005D088705362D47080319782D792DE32FE8
:100AF200320803197D2D7E2DE32FC7011430BB0070
:100B0200612D420C031C871303188717E32F013052
:100B1200DD005D08B5070A303506031D912D922DC3
:100B2200952D87120716E32F33303502031C9A2DB9
:100B32009B2DE32F0C30BB0022309B009501BF019F
:100B4200E32F3208031DA62DA72DB62D9B010230DF
:100B5200BB003F30DD005D08870507170130AC00A0
:100B62000030AD00B401B40AE82DFB303202031CA0
:100B7200BB2DBC2DC42D32081B02031CC12DC22D5E
:100B8200C42D0717E82D410C031C07130318071780
:100B920032081B020318CE2DCF2DDF2D0130DD00D0
:100BA2005D08B70703303702031CD82DD92DE82D75
:100BB200B7010130DD005D089B07E82DFB303202F2
:100BC2000318E42DE52DE82D32089B00E82DC30122
:100BD20038304F024A3003194E020318F12DF22D1C
:100BE200E32FBF01BF0AE32F0130DD005D08B50727
:100BF2000A303506031DFE2DFF2D022E8716071221
:100C0200E32F33303502031C072E082EE32F163054
:100C1200BB00223095009B01A02D3208031D122E2D
:100C2200132E212E9501B401B40A0430BB00C0304A
:100C3200DD005D0887040130AC000030AD00722E8B
:100C4200C91A242E252E342E950187123F30DD003D
:100C52005D08870507170230BB000130AC00003089
:100C6200AD008711722EFB303202031C392E3A2E50
:100C7200452E32081502031C3F2E402E452EC03051
:100C8200DD005D088704722E41080319492E4A2EA1
:100C92004F2EC030DD005D088704532E3F30DD004B
:100CA2005D088705320815020318582E592E692E41
:100CB2000130DD005D08B70703303702031C622EE6
:100CC200632E722EB7010130DD005D089507722E8A
:100CD200FB30320203186E2E6F2E722E32089500F0
:100CE200722E38304F024A3003194E0203187A2E00
:100CF2007B2E7D2EBF01BF0AC301E32FC81E822EA9
:100D0200832E9C2E4008031D872E882E9C2E950133
:100D12009B013F30DD005D0887050717C601C60A43
:100D2200AF010230BB008719972E982EE32F87154B
:100D32003230AE00E32F3408031DA02EA12EE32F84
:100D42004D08F7004C08F6000A128A1126220A12F0
:100D52008A1183120313B000FB303002031CB22E3F
:100D6200B32EBB2E30081B02031CB82EB92EBB2E8D
:100D72008717DE2E4008031DBF2EC02EC22E8717F6
:100D8200C72E410C031C87130318871730081B0258
:100D92000318CC2ECD2EDC2E0130DD005D08B70706
:100DA20037080319D52ED62EDE2EB7010130DD000D
:100DB2005D089B07DE2E30089B001B089500E32F81
:100DC200FB301B02031CE62EE72EF22E9B01B40120
:100DD200B40A3F30DD005D08870507170230BB000B
:100DE200E32F3408031DF62EF72EE32F22301B02C9
:100DF2000318FC2EFD2E002F22309B000716013017
:100E0200DD005D08B60702303602031C092F0A2FE7
:100E12000F2FB6010130DD005D089B07410C031C5A
:100E2200071303180717E32F34304F023330031927
:100E32004E02031C1D2F1E2F3F2F3F30DD005D0889
:100E4200870595019B01C301BF0114303A060319BE
:100E52002B2F2C2F382F04303A060319312F322F23
:100E6200382F16303A06031D372F382FEA2EC0309E
:100E7200DD005D0887040430BB00E32FFB3015065C
:100E82000319442F452F4C2F3408031D492F4A2F95
:100E92004C2FFB309500FB301B060319512F522FAC
:100EA200E32F3408031D562F572FE32FFB309B00EF
:100EB200E32F46304F021B3003194E020318622FF4
:100EC200632F782F9B01950114303A0603196A2F7C
:100ED2006B2F382F04303A060319702F712F382FD9
:100EE20016303A06031D762F772FEA2E382FFB3065
:100EF200150603197D2F7E2F852F3408031D822F9F
:100F0200832F852FFB309500FB301B0603198A2F98
:100F12008B2FE32F3408031D8F2F902FE32F572F92
:100F220034080319952F962F972FE32FC81E9A2F57
:100F32009B2FA72F29304B02F73003194A02031CBB
:100F4200A32FA42FA72F95019B01EA2E4008031976
:100F5200AB2FAC2FB12FFB309500FB309B00E32F62
:100F620095019B01E32F410C031C8713031887177C
:100F7200E32F3B08003A03192E2D023A03193A2DAA
:100F8200063A0319632D0E3A0319882D063A0319FE
:100F9200A22D183A0319F52D023A03190E2E083A1A
:100FA20003197F2E383A0319822D0E3A0319E12EC6
:100FB2001A3A0319152F053A03195A2F0B3A031936
:100FC200912FB42F1B080319E72FE82FE92F87125F
:100FD20015080319ED2FEE2FEC2A0712EC2A0A123C
:100FE2008A11002883132030840056300A128A1195
:0E0FF20069210A128A1183010A128A115E2AED
:08400000FF3FFF3FFF3FFF3FC0
:02400E00450D5E
:00000001FF
