:060000000A128A11F32F21
:1003120064008001840A04060319003404068A2951
:10032200F3007308F20002300310F20DFF3E031DCA
:1003320095290310720D413E831203139F0003306F
:10034200B800A5290130B8023808031DA929AA2935
:10035200A3291F151F19AE29AF29AB291E08F100C9
:10036200831603131E08F0000800F401F501701C47
:10037200BB29BC29C2297208F4070318F50A7308BD
:10038200F50701300310F20DF30DFF3E031DC329E3
:1003920001300310F10CF00CFF3E031DCA29700856
:1003A2007104031DD529D629B8297508F1007408EE
:1003B200F0000800F7007008840083130008F100C1
:1003C200840A0008F20004300310F20CF10CFF3E24
:1003D200031DE529770884000008F300840A000859
:1003E200F40004300310F40CF30CFF3E031DF32958
:1003F20071087302F5007208031C720A7402F60097
:100402007008840075088007840F00080318000A2A
:10041200FF0076087F0780008403080077088312B4
:100422000313D7007608D6005708DC0034305C028C
:1004320003181C2A1D2A1F2ADB01442ACC305C0225
:10044200031C242A252A282AFB30DB00442A5C08C4
:10045200CD3EDA005A08F800F9017808F000790870
:10046200F1006930F2000130F3000A128A11B6215C
:100472000A128A11710883120313D9007008D80076
:100482005908223EDB005B08080077088312031339
:10049200D7007608D6005708DC0034305C02031817
:1004A200532A542A572A3230DB007C2ACC305C0291
:1004B200031C5C2A5D2A602AFB30DB007C2A5C0874
:1004C200CD3EDA005A08F800F9017808F000790800
:1004D200F1004F30F2000130F3000A128A11B62106
:1004E2000A128A11710883120313D9007008D80006
:1004F2005908323EDB005B080800183083120313F0
:1005020083002030DE000030DF0000305F06031D74
:100512008C2A5E305E0603198F2A902A962A5E087C
:10052200840083175F1C831380010130DE070318E8
:10053200DF0A0030DF0700305F02803003195E02FD
:10054200031CA42AA52A862A87018316031387017E
:1005520006111C30831203138500831603138113C3
:10056200E33085009F1383120313BA010609BB000F
:10057200B80108303802031CBF2AC02AC12ACC2A7B
:100582003808203E84003B08831380000130DD00E0
:100592005D08B807BA2A3B08C900C80100300A1230
:1005A2008A1191210A128A11710883120313CD0054
:1005B2007008CC0001300A128A1191210A128A11A4
:1005C200710883120313CF007008CE0004300A12A0
:1005D2008A1191210A128A11710883120313CB0026
:1005E2007008CA009B0195010F309D040F309704DB
:1005F2001208FC3901389200FA3083160313920074
:10060200831203131215F8308F0030308E0010144D
:1006120087153230AE006400831203130C1C122BB8
:10062200132B0C2BF8308F0030308E000C10013061
:10063200DD005D08B9070730DD005D08B90539083E
:10064200203E8400060983138000FF30BD00BC01F8
:10065200B80108303802031C2F2B302B312B442BCE
:100662003808203E84000008DD005D08BD0538081A
:10067200203E84000008DD005D08BC040130DD007E
:100682005D08B8072A2B3C083B05DD003B093D0508
:100692005D04C9003B094905C8004908BB00003098
:1006A2000A128A1191210A128A1171088312031304
:1006B200D3007008D20001300A128A1191210A1265
:1006C2008A11710883120313D5007008D400043014
:1006D2000A128A1191210A128A11710883120313D4
:1006E200D1007008D0004C30F00052300A128A114A
:1006F200DB210A128A114E30F00054300A128A119C
:10070200DB210A128A114A30F00050300A128A1193
:10071200DB210A128A1183120313B11B912B932B33
:100722000130942B0030C200B11A982B9A2B013061
:100732009B2B0030C1000130DD005D08B107340899
:100742000319A42BA52BB92B0130DD005D08B407DA
:1007520024303402031CAE2BAF2BB12BB401B92BC6
:100762000B303402031CB62BB72BB92B071287129E
:1007720033304D02343003194C020318C12BC32B02
:100782000130C42B0030C0002E080319C92BCA2B1C
:10079200D22B0130AE022E08031DD02BD12BD22B2F
:1007A200871105303A02031CD72BD82BD92BC7014E
:1007B200323033020318DE2BDF2BE52B0130DD0054
:1007C2005D08B307BA01AC2C40080319E92BEA2BE8
:1007D200032C3C303A060319EF2BF02B032C22306A
:1007E2004B02493003194A020318F82BF92B032C48
:1007F2003F30DD005D0887053C30BA00B401B40A21
:100802008717AC2C491C062C072C202C28303A06C2
:1008120003190C2C0D2C202C3E080319112C122C20
:10082200202C87113F30DD005D088705B401B40A32
:1008320095019B01B60107172830BA00AC2C29306C
:100842004F02F63003194E020318282C292C392C9A
:1008520032303A0603192E2C2F2C392C3F30DD0072
:100862005D088705B401B40A87173230BA00AC2C90
:10087200C91C3C2C3D2C502C1E303A020318422C31
:10088200432C502CB401B40A95019B013F30DD008A
:100892005D0887058717C8121E30BA00AC2C4308C2
:1008A2000319542C552C622C1E303A0603195A2C6B
:1008B2005B2C622C95019B012630BA00B401B40A6C
:1008C200AC2C4D304F02C93003194E02031C6A2C66
:1008D2006B2C802C37303A060319702C712C802C2B
:1008E20028303A060319762C772C802CB401B40AEE
:1008F2003730BA003F30DD005D088705012C1E301D
:100902003A060319852C862C9D2C3208031D8A2C4D
:100912008B2C9F2C4D08F7004C08F6000A128A1106
:100922000F220A128A1183120313B20025303202F7
:1009320003189C2C9D2CAC2CB201AC2C4D08F7005A
:100942004C08F6000A128A110F220A128A11831227
:100952000313B200AC2C47304F02A53003194E02EC
:10096200031CB42CB52CB72C0615C12C46304F02F3
:100972001B3003194E020318BF2CC02CC12C0611C8
:100982003A302D02993003192C02031CC92CCA2CAF
:10099200DE2CAC01AD013A304F02D93003194E02C0
:1009A2000318D42CD52CDC2C3F080319D92CDA2CB3
:1009B200DC2CC301C30ABF01F32C2C082D0403193C
:1009C200E32CE42CF32C1F303A02031CE92CEA2C12
:1009D200ED2CAC01AD01F32C0130AC070318AD0ACC
:1009E2000030AD0740080319F72CF82C012D003018
:1009F200AB000030AA000030A9000030A800342D5E
:100A02002B08031D142D02302A02031D102D49301C
:100A12002902031D102DF1302802031D102D031C85
:100A2200132D142D1C2D831203138501FF30831601
:100A320003138500342D1C30831203138500E33029
:100A4200831603138500013083120313A8070030B5
:100A520003180130A907003003180130AA0700303B
:100A620003180130AB0732308312330203183A2DD8
:100A72003B2DBA2F0130DD005D08B307BA01BA2F52
:100A8200323033020318462D472D492DBA01E32F88
:100A92000230BA000717E32F4008031D512D522DD3
:100AA200542DC701C70A46080319582D592D5B2D2D
:100AB200C601E32FC81E5E2D5F2D692DC030DD00FB
:100AC2005D0887040430BA00BE01BE0A8715E32F11
:100AD200470803196D2D6E2DE32F32080319722D6D
:100AE200732DE32FC7010A30BA00B501E32F400886
:100AF200031D7C2D7D2D7F2DC701C70AC81E822DA7
:100B0200832D8C2D87113F30DD005D088705023073
:100B1200BA00BE014B2D47080319902D912DE32FEA
:100B220032080319952D962DE32FC7011430BA0010
:100B3200762D420C031C871303188717E32F01300D
:100B4200DD005D08B5070A303506031DA92DAA2D63
:100B5200AD2D87120716E32F33303502031CB22D59
:100B6200B32DE32F0C30BA0022309B009501BF0158
:100B7200E32F3208031DBE2DBF2DCE2D9B01023067
:100B8200BA003F30DD005D08870507170130AC0071
:100B92000030AD00B401B40A002EFB303202031C57
:100BA200D32DD42DDC2D32081B02031CD92DDA2DB6
:100BB200DC2D0717002E410C031C0713031807171F
:100BC20032081B020318E62DE72DF72D0130DD0058
:100BD2005D08B70703303702031CF02DF12D002EFC
:100BE200B7010130DD005D089B07002EFB303202A9
:100BF2000318FC2DFD2D002E32089B00002EC30190
:100C020038304F024A3003194E020318092E0A2EB9
:100C1200E32FBF01BF0AE32F0130DD005D08B507F6
:100C22000A303506031D162E172E1A2E87160712A6
:100C3200E32F33303502031C1F2E202EE32F1630F4
:100C4200BA00223095009B01B82D3208031D2A2ECE
:100C52002B2E392E9501B401B40A0430BA00C030EB
:100C6200DD005D0887040130AC000030AD00762E57
:100C7200FB303202031C3E2E3F2E4A2E3208150252
:100C8200031C442E452E4A2EC030DD005D08870429
:100C9200762E410803194E2E4F2E542EC030DD0001
:100CA2005D088704582E3F30DD005D088705320855
:100CB200150203185D2E5E2E6E2E0130DD005D08DA
:100CC200B70703303702031C672E682E762EB70152
:100CD2000130DD005D089507762EFB3032020318E5
:100CE200732E742E762E3208950038304F024A3019
:100CF20003194E0203187E2E7F2E812EBF01BF0ADA
:100D0200C301E32FC81E862E872EAC2E4008031D7A
:100D12008B2E8C2EAC2E95019B013F30DD005D08A1
:100D22008705C601C60AAF013E08031D992E9A2EF9
:100D3200A52E0230BA0007178719A02EA12EE32F85
:100D420087153230AE00E32F0430BA00C030DD0028
:100D52005D088704E32F3408031DB02EB12EE32F64
:100D62004D08F7004C08F6000A128A1146220A12B0
:100D72008A1183120313B000FB303002031CC22E0F
:100D8200C32ECB2E30081B02031CC82EC92ECB2E1D
:100D92008717EE2E4008031DCF2ED02ED22E871796
:100DA200D72E410C031C87130318871730081B0228
:100DB2000318DC2EDD2EEC2E0130DD005D08B707B6
:100DC20037080319E52EE62EEE2EB7010130DD00BD
:100DD2005D089B07EE2E30089B001B089500E32F51
:100DE200FB301B02031CF62EF72E032F9B01B401CE
:100DF200B40A3F30DD005D08870507170230BA00EC
:100E0200BE01E32F3408031D072F082FE32F2230E2
:100E12001B0203180D2F0E2F112F22309B000716D5
:100E22000130DD005D08B60702303602031C1A2FBE
:100E32001B2F202FB6010130DD005D089B07410CFE
:100E4200031C071303180717E32F34304F02333004
:100E520003194E02031C2E2F2F2F4B2F3F30DD0084
:100E62005D08870595019B01C301BF013E08031977
:100E72003B2F3C2F432FC030DD005D088704043038
:100E8200BA00E32F3F30DD005D0887050717023007
:100E9200BA00E32FFB3015060319502F512F582F9C
:100EA2003408031D552F562F582FFB309500FB3069
:100EB2001B0603195D2F5E2FE32F3408031D622FDB
:100EC200632FE32FFB309B00E32F46304F021B3092
:100ED20003194E0203186E2F6F2F772F9B01950176
:100EE2003E080319752F762F432F3C2FFB30150632
:100EF20003197C2F7D2F842F3408031D812F822F0D
:100F0200842FFB309500FB301B060319892F8A2F93
:100F1200E32F3408031D8E2F8F2FE32F632F340806
:100F22000319942F952F962FE32FC81E992F9A2FCE
:100F3200A72F29304B02F73003194A02031CA22FB4
:100F4200A32FA72F95019B018711FA2E40080319A1
:100F5200AB2FAC2FB12FFB309500FB309B00E32F62
:100F620095019B01E32F410C031C8713031887177C
:100F7200E32F3A08003A0319412D023A03194D2D85
:100F8200063A0319782D0E3A0319A02D063A0319D1
:100F9200BA2D183A03190D2E023A0319262E083AD1
:100FA2000319832E383A03199A2D0E3A0319F12E9A
:100FB2001A3A0319262F053A0319662F0B3A031919
:100FC200902FB42F1B080319E72FE82FE92F871260
:100FD20015080319ED2FEE2F0C2B07120C2B0A12FA
:100FE2008A11002883132030840056300A128A1195
:0E0FF20089210A128A1183010A128A117E2AAD
:08400000FF3FFF3FFF3FFF3FC0
:02400E00450D5E
:00000001FF
