:060000000A128A11F32F21
:1002FC0064008001840A04060319003404067F2973
:10030C00F3007308F20002300310F20DFF3E031DE0
:10031C008A290310720D413E831203139F00033090
:10032C00B8009A290130B8023808031D9E299F296C
:10033C0098291F151F19A329A429A0291E08F1000B
:10034C00831603131E08F0000800F401F501701C5D
:10035C00B029B129B7297208F4070318F50A7308F4
:10036C00F50701300310F20DF30DFF3E031DB82904
:10037C0001300310F10CF00CFF3E031DBF29700877
:10038C007104031DCA29CB29AD297508F100740825
:10039C00F0000800F7007008840083130008F100D7
:1003AC00840A0008F20004300310F20CF10CFF3E3A
:1003BC00031DDA29770884000008F300840A00087A
:1003CC00F40004300310F40CF30CFF3E031DE82979
:1003DC0071087302F5007208031C720A7402F600AD
:1003EC007008840075088007840F00080318000A41
:1003FC00FF0076087F0780008403080077088312CB
:10040C000313D7007608D6005708DC0034305C02A2
:10041C000318112A122A142ADB01392ACC305C0267
:10042C00031C192A1A2A1D2AFB30DB00392A5C0806
:10043C00CD3EDA005A08F800F9017808F000790886
:10044C00F1006930F2000130F3000A128A11AB217D
:10045C000A128A11710883120313D9007008D8008C
:10046C005908223EDB005B0808007708831203134F
:10047C00D7007608D6005708DC0034305C0203182D
:10048C00482A492A4C2A3230DB00712ACC305C02D3
:10049C00031C512A522A552AFB30DB00712A5C08B6
:1004AC00CD3EDA005A08F800F9017808F000790816
:1004BC00F1004F30F2000130F3000A128A11AB2127
:1004CC000A128A11710883120313D9007008D8001C
:1004DC005908323EDB005B08080018308312031306
:1004EC0083002030DE000030DF0000305F06031D8B
:1004FC00812A5E305E060319842A852A8B2A5E08BF
:10050C00840083175F1C831380010130DE070318FE
:10051C00DF0A0030DF0700305F02803003195E0213
:10052C00031C992A9A2A7B2A8701831603138701B5
:10053C0006111C30831203138500831603138113D9
:10054C00E33085009F1383120313BB010609BC0023
:10055C00B80108303802031CB42AB52AB62AC12ABD
:10056C003808203E84003C08831380000130DD00F5
:10057C005D08B807AF2A3C08C900C80100300A1250
:10058C008A1186210A128A11710883120313CD0075
:10059C007008CC0001300A128A1186210A128A11C5
:1005AC00710883120313CF007008CE0004300A12B6
:1005BC008A1186210A128A11710883120313CB0047
:1005CC007008CA009B0195010F309D040F309704F1
:1005DC001208FC3901389200FA308316031392008A
:1005EC00831203131215F8308F0030308E00101464
:1005FC0087153230AE006400831203130C1C072BDA
:10060C00082B012BF8308F0030308E000C1001308D
:10061C00DD005D08B9070730DD005D08B905390854
:10062C00203E8400060983138000FF30BE00BD010C
:10063C00B80108303802031C242B252B262B392B10
:10064C003808203E84000008DD005D08BE0538082F
:10065C00203E84000008DD005D08BD040130DD0093
:10066C005D08B8071F2B3D083C05DD003C093E0525
:10067C005D04C9003C094905C8004908BC000030AC
:10068C000A128A1186210A128A1171088312031325
:10069C00D3007008D20001300A128A1186210A1286
:1006AC008A11710883120313D5007008D40004302A
:1006BC000A128A1186210A128A11710883120313F5
:1006CC00D1007008D0004C30F00052300A128A1160
:1006DC00D0210A128A114E30F00054300A128A11BD
:1006EC00D0210A128A114A30F00050300A128A11B5
:1006FC00D0210A128A1183120313B11B862B882B6B
:10070C000130892B0030C200B11A8D2B8F2B013098
:10071C00902B0030C1000130DD005D08B1073408BA
:10072C000319992B9A2BAE2B0130DD005D08B40711
:10073C0024303402031CA32BA42BA62BB401AE2B08
:10074C000B303402031CAB2BAC2BAE2B07128712D5
:10075C0033304D02343003194C020318B62BB82B2E
:10076C000130B92B0030C0002E080319BE2BBF2B53
:10077C00C72B0130AE022E08031DC52BC62BC72B71
:10078C00871105303B02031CCC2BCD2BCE2BC70184
:10079C00323033020318D32BD42BDA2B0130DD008B
:1007AC005D08B307BB01AC2C40080319DE2BDF2B13
:1007BC00F82B3C303B060319E42BE52BF82B2230AD
:1007CC004B02493003194A020318ED2BEE2BF82B80
:1007DC003F30DD005D0887053C30BB00B401B40A36
:1007EC008717AC2C491CFB2BFC2B1C2C28303B06F4
:1007FC000319012C022C1C2C0A303B060319072C64
:10080C00082C1C2C0C303B0603190D2C0E2C1C2C0C
:10081C0087113F30DD005D088705B401B40A9501EE
:10082C009B01B60107172830BB00AC2C29304F02B6
:10083C00F63003194E020318242C252C372C323099
:10084C003B0603192A2C2B2C372C3B08BA003F30C3
:10085C00DD005D088705B401B40A87173230BB0090
:10086C00AC2CC91C3A2C3B2C4E2C1E303B020318D2
:10087C00402C412C4E2CB401B40A95019B013F3005
:10088C00DD005D0887058717C8121E30BB00AC2C35
:10089C0043080319522C532C602C1E303B060319B1
:1008AC00582C592C602C95019B012630BB00B401AF
:1008BC00B40AAC2C4D304F02C93003194E02031C44
:1008CC00682C692C802C37303B0603196E2C6F2C4E
:1008DC00802C28303B060319742C752C802C3B087B
:1008EC00BA00B401B40A3730BB003F30DD005D08FC
:1008FC008705F62B1E303B060319852C862C9D2C68
:10090C003208031D8A2C8B2C9F2C4D08F7004C08A9
:10091C00F6000A128A1104220A128A118312031396
:10092C00B2002530320203189C2C9D2CAC2CB20149
:10093C00AC2C4D08F7004C08F6000A128A11042260
:10094C000A128A1183120313B200AC2C47304F02E7
:10095C00A53003194E02031CB42CB52CB72C06156C
:10096C00C12C46304F021B3003194E020318BF2C0A
:10097C00C02CC12C06113A302D02993003192C02CF
:10098C00031CC92CCA2CDE2CAC01AD013A304F0231
:10099C00D93003194E020318D42CD52CDC2C3F086B
:1009AC000319D92CDA2CDC2CC301C30ABF01F32C9C
:1009BC002C082D040319E32CE42CF32C1F303B02E0
:1009CC00031CE92CEA2CED2CAC01AD01F32C01300D
:1009DC00AC070318AD0A0030AD0740080319F72C1B
:1009EC00F82C012D0030AB000030AA000030A9001B
:1009FC000030A800342D2B08031D142D02302A02C0
:100A0C00031D102D49302902031D102DF130280231
:100A1C00031D102D031C132D142D1C2D83120313D9
:100A2C008501FF30831603138500342D1C3083128F
:100A3C0003138500E3308316031385000130831202
:100A4C000313A807003003180130A907003003185E
:100A5C000130AA07003003180130AB073230831283
:100A6C00330203183A2D3B2DBA2F0130DD005D08FF
:100A7C00B307BB01BA2F323033020318462D472D72
:100A8C00492DBB01E32F0230BB000717E32F4008B1
:100A9C00031D512D522D542DC701C70A46080319A9
:100AAC00582D592D5B2DC601E32FC81E5E2D5F2DD1
:100ABC00672DC030DD005D0887040430BB0087154E
:100ACC00E32F470803196B2D6C2DE32F3208031904
:100ADC00702D712DE32FC7010A30BB00B501E32F38
:100AEC004008031D7A2D7B2D7D2DC701C70AC81E1A
:100AFC00802D812D872D87113F30DD005D08870506
:100B0C00492D470803198B2D8C2DE32F320803191F
:100B1C00902D912DE32FC7011430BB00742D420C86
:100B2C00031C871303188717E32F0130DD005D08C2
:100B3C00B5070A303506031DA42DA52DA82D871247
:100B4C000716E32F33303502031CAD2DAE2DE32FEA
:100B5C000C30BB0022309B009501BF01E32F320803
:100B6C00031DB92DBA2DC92D9B010230BB003F309E
:100B7C00DD005D08870507170130AC000030AD00C3
:100B8C00B401B40AFB2DFB303202031CCE2DCF2D49
:100B9C00D72D32081B02031CD42DD52DD72D0717AA
:100BAC00FB2D410C031C07130318071732081B02FB
:100BBC000318E12DE22DF22D0130DD005D08B707A1
:100BCC0003303702031CEB2DEC2DFB2DB70101304C
:100BDC00DD005D089B07FB2DFB3032020318F72D5F
:100BEC00F82DFB2D32089B00FB2DC30138304F0232
:100BFC004A3003194E020318042E052EE32FBF01B1
:100C0C00BF0AE32F0130DD005D08B5070A30350659
:100C1C00031D112E122E152E87160712E32F3330BB
:100C2C003502031C1A2E1B2EE32F1630BB0022306C
:100C3C0095009B01B32D3208031D252E262E342E34
:100C4C009501B401B40A0430BB00C030DD005D086E
:100C5C0087040130AC000030AD00712EFB30320245
:100C6C00031C392E3A2E452E32081502031C3F2E3A
:100C7C00402E452EC030DD005D088704712E4108E2
:100C8C000319492E4A2E4F2EC030DD005D08870413
:100C9C00532E3F30DD005D0887053208150203181E
:100CAC00582E592E692E0130DD005D08B707033030
:100CBC003702031C622E632E712EB7010130DD004A
:100CCC005D089507712EFB30320203186E2E6F2EC5
:100CDC00712E3208950038304F024A3003194E02FB
:100CEC000318792E7A2E7C2EBF01BF0AC301E32F85
:100CFC00C81E812E822E9B2E4008031D862E872E09
:100D0C009B2E95019B013F30DD005D088705071781
:100D1C00C601C60AAF010230BB008719962E972E6A
:100D2C00E32F87153230AE00E32F3408031D9F2EBE
:100D3C00A02EE32F4D08F7004C08F6000A128A117A
:100D4C003B220A128A1183120313B000FB303002CB
:100D5C00031CB12EB22EBA2E30081B02031CB72E68
:100D6C00B82EBA2E8717DD2E4008031DBE2EBF2EBF
:100D7C00C12E8717C62E410C031C87130318871727
:100D8C0030081B020318CB2ECC2EDB2E0130DD00DD
:100D9C005D08B70737080319D42ED52EDD2EB70101
:100DAC000130DD005D089B07DD2E30089B001B0821
:100DBC009500E32FFB301B02031CE52EE62EF12ED3
:100DCC009B01B401B40A3F30DD005D0887050717AD
:100DDC000230BB00E32F3408031DF52EF62EE32F53
:100DEC0022301B020318FB2EFC2EFF2E22309B0000
:100DFC0007160130DD005D08B60702303602031C11
:100E0C00082F092F0E2FB6010130DD005D089B075E
:100E1C00410C031C071303180717E32F34304F0240
:100E2C00333003194E02031C1C2F1D2F3E2F3F3055
:100E3C00DD005D08870595019B01C301BF011430DE
:100E4C003A0603192A2F2B2F372F04303A06031991
:100E5C00302F312F372F16303A06031D362F372FF0
:100E6C00E92EC030DD005D0887040430BB00E32FA1
:100E7C00FB3015060319432F442F4B2F3408031D49
:100E8C00482F492F4B2FFB309500FB301B060319C5
:100E9C00502F512FE32F3408031D552F562FE32FBE
:100EAC00FB309B00E32F46304F021B3003194E02E0
:100EBC000318612F622F772F9B01950114303A068E
:100ECC000319692F6A2F372F04303A0603196F2F35
:100EDC00702F372F16303A06031D752F762FE92EFB
:100EEC00372FFB30150603197C2F7D2F842F3408E8
:100EFC00031D812F822F842FFB309500FB301B06A6
:100F0C000319892F8A2FE32F3408031D8E2F8F2F5F
:100F1C00E32F562F34080319942F952F962FE32F78
:100F2C00C81E992F9A2FA72F29304B02F73003197F
:100F3C004A02031CA22FA32FA72F95019B018711F7
:100F4C00E92E40080319AB2FAC2FB12FFB309500C5
:100F5C00FB309B00E32F95019B01E32F410C031CFD
:100F6C00871303188717E32F3B08003A0319412D09
:100F7C00023A03194D2D063A0319762D0E3A031930
:100F8C009B2D063A0319B52D183A0319082E023A6F
:100F9C000319212E083A03197E2E383A0319952D80
:100FAC000E3A0319E02E1A3A0319142F053A0319B5
:100FBC00592F0B3A0319902FB42F1B080319E72F45
:100FCC00E82FE92F871215080319ED2FEE2F012BAF
:100FDC000712012B0A128A11002883132030840077
:100FEC0056300A128A117E210A128A1183010A12C2
:040FFC008A11732AB9
:08400000FF3FFF3FFF3FFF3FC0
:02400E00450D5E
:00000001FF
