:060000000A128A11F32F21
:1003D80064008001840A0406031900340406ED2928
:1003E800F3007308F20002300310F20DFF3E031D04
:1003F800F8290310720D413E831203139F00033046
:10040800B800082A0130B8023808031D0C2A0D2A42
:10041800062A1F151F19112A122A0E2A1E08F10072
:10042800831603131E08F0000800F401F501701C80
:100438001E2A1F2A252A7208F4070318F50A7308CA
:10044800F50701300310F20DF30DFF3E031D262AB8
:1004580001300310F10CF00CFF3E031D2D2A70082B
:100468007104031D382A392A1B2A7508F1007408FB
:10047800F0000800F7007008840083130008F100FA
:10048800840A0008F20004300310F20CF10CFF3E5D
:10049800031D482A770884000008F300840A00082E
:1004A800F40004300310F40CF30CFF3E031D562A2D
:1004B80071087302F5007208031C720A7402F600D0
:1004C8007008840075088007840F00080318000A64
:1004D800FF0076087F0780008403080077088312EE
:1004E8000313D7007608D6005708DC0034305C02C6
:1004F80003187F2A802A822ADB01A72ACC305C02D3
:10050800031C872A882A8B2AFB30DB00A72A5C0871
:10051800CD3EDA005A08F800F9017808F0007908A9
:10052800F1006930F2000130F3000A128A11192231
:100538000A128A11710883120313D9007008D800AF
:100548005908223EDB005B080800183083120313A9
:1005580083002030DE000030DF0000305F06031D1E
:10056800B72A5E305E060319BA2ABB2AC12A5E087A
:10057800840083175F1C831380010130DE07031892
:10058800DF0A0030DF0700305F02803003195E02A7
:10059800031CCF2AD02AB12A8701831603138701A7
:1005A80006111C308312031385008316031381136D
:1005B800E33085009F1383120313BA010609BB00B9
:1005C800B80108303802031CEA2AEB2AEC2AF72A79
:1005D8003808203E84003B08831380000130DD008A
:1005E8005D08B807E52A3B08C900C80100300A12AF
:1005F8008A11F4210A128A11710883120313CD009B
:100608007008CC0001300A128A11F4210A128A11EA
:10061800710883120313CF007008CE0004300A1249
:100628008A11F4210A128A11710883120313CB006C
:100638007008CA009B0195010F309D040F30970484
:100648001208FC3901389200FA308316031392001D
:10065800831203131215F8308F0030308E001014F7
:100668006400831203130C1C3A2B3B2B342BF830F9
:100678008F0030308E000C100130DD005D08B907A6
:100688000730DD005D08B9053908203E84000609F9
:1006980083138000FF30BD00BC01B8010830380268
:1006A800031C572B582B592B6C2B3808203E8400E1
:1006B8000008DD005D08BD053808203E84000008FC
:1006C800DD005D08BC040130DD005D08B807522B71
:1006D8003C083B05DD003B093D055D04C9003B09BD
:1006E8004905C8004908BB0000300A128A11F421E4
:1006F8000A128A11710883120313D3007008D200FA
:1007080001300A128A11F4210A128A11710883121F
:100718000313D5007008D40004300A128A11F4219A
:100728000A128A11710883120313D1007008D000CD
:100738004C30F00052300A128A113E220A128A11F5
:100748004E30F00054300A128A113E220A128A11E1
:100758004A30F00050300A128A113E220A128A11D9
:1007680083120313B11BB92BBB2B0130BC2B0030F8
:10077800C200B11AC02BC22B0130C32B0030C100FC
:100788000130DD005D08B10734080319CC2BCD2BEF
:10079800E12B0130DD005D08B40724303402031C6E
:1007A800D62BD72BD92BB401E12B0B303402031CE9
:1007B800DE2BDF2BE12B0712871233304D0234304A
:1007C80003194C020318E92BEB2B0130EC2B0030FA
:1007D800C000400C031C87110318871505303A0226
:1007E800031CF72BF82BF92BC701323033020318FF
:1007F800FE2BFF2B052C0130DD005D08B307BA0185
:10080800CB2C40080319092C0A2C232C3C303A061F
:1008180003190F2C102C232C22304B0249300319BA
:100828004A020318182C192C232C3F30DD005D08D0
:1008380087053C30BA00B401B40A8717CB2C491C91
:10084800262C272C3F2C28303A0603192C2C2D2C2B
:100858003F2C3E080319312C322C3F2C3F30DD0051
:100868005D088705B401B40A95019B01B601071715
:100878002830BA00CB2C29304F02F63003194E022B
:100888000318472C482C582C32303A0603194D2CA3
:100898004E2C582C3F30DD005D088705B401B40AA2
:1008A80087173230BA00CB2CC91C5B2C5C2C6F2C00
:1008B8001E303A020318612C622C6F2CB401B40A62
:1008C80095019B013F30DD005D0887058717C81239
:1008D8001E30BA00CB2C43080319732C742C812CBE
:1008E8001E303A060319792C7A2C812C95019B012C
:1008F8002630BA00B401B40ACB2C4D304F02C930AF
:1009080003194E02031C892C8A2C9F2C37303A0677
:1009180003198F2C902C9F2C28303A060319952CFC
:10092800962C9F2CB401B40A3730BA003F30DD0052
:100938005D088705212C1E303A060319A42CA52C26
:10094800BC2C3208031DA92CAA2CBE2C4D08F7007C
:100958004C08F6000A128A1172220A128A118312AE
:100968000313B200253032020318BB2CBC2CCB2C4D
:10097800B201CB2C4D08F7004C08F6000A128A1178
:1009880072220A128A1183120313B200CB2C473049
:100998004F02A53003194E02031CD32CD42CD62C9D
:1009A8000615E02C46304F021B3003194E0203187F
:1009B800DE2CDF2CE02C06113A302D029930031979
:1009C8002C02031CE82CE92CFD2CAC01AD013A30BB
:1009D8004F02D93003194E020318F32CF42CFB2CC8
:1009E8003F080319F82CF92CFB2CC301C30ABF01DB
:1009F800122D2C082D040319022D032D122D1F3042
:100A08003A02031C082D092D0C2DAC01AD01122D45
:100A18000130AC070318AD0A0030AD0740080319D0
:100A2800162D172D202D0030AB000030AA00003005
:100A3800A9000030A800532D2B08031D332D0230C8
:100A48002A02031D2F2D49302902031D2F2DF130B5
:100A58002802031D2F2D031C322D332D3B2D83120D
:100A680003138501FF30831603138500532D1C30B3
:100A7800831203138500E3308316031385000130C6
:100A880083120313A807003003180130A9070030A8
:100A980003180130AA07003003180130AB073230C1
:100AA800831233020318592D5A2DBA2F0130DD0055
:100AB8005D08B307BA01BA2F323033020318652D27
:100AC800662D682DBA01E32F0230BA000717E32F0D
:100AD8004008031D702D712D732DC701C70A4608E4
:100AE8000319772D782D7A2DC601E32FC81E7D2D89
:100AF8007E2D872DC030DD005D0887040430BA00E4
:100B0800BE01BE0AE32F470803198B2D8C2DE32F56
:100B180032080319902D912DE32FC7010A30BA002E
:100B2800B501E32F4008031D9A2D9B2D9D2DC7016C
:100B3800C70AC91AA02DA12DA92D3F30DD005D08D7
:100B480087050230BA00BE016A2D47080319AD2D8A
:100B5800AE2DE32F32080319B22DB32DE32FC701B1
:100B68001430BA00942D420C031C871303188717FE
:100B7800E32F0130DD005D08B5070A303506031D97
:100B8800C62DC72DCA2D87120716E32F333035021D
:100B9800031CCF2DD02DE32F0C30BA0022309B0040
:100BA8009501BF01E32F3208031DDB2DDC2DEB2D52
:100BB8009B010230BA003F30DD005D08870507174A
:100BC8000130AC000030AD00B401B40A1D2EFB307A
:100BD8003202031CF02DF12DF92D32081B02031CE3
:100BE800F62DF72DF92D07171D2E410C031C0713A1
:100BF8000318071732081B020318032E042E142E9D
:100C08000130DD005D08B70703303702031C0D2EE5
:100C18000E2E1D2EB7010130DD005D089B071D2E2D
:100C2800FB3032020318192E1A2E1D2E32089B0093
:100C38001D2EC30138304F024A3003194E020318E3
:100C4800262E272EE32FBF01BF0AE32F0130DD0038
:100C58005D08B5070A303506031D332E342E372EAE
:100C680087160712E32F33303502031C3C2E3D2E26
:100C7800E32F1630BA00223095009B01D52D32089B
:100C8800031D472E482E562E9501B401B40A043090
:100C9800BA00C030DD005D0887040130AC000030C8
:100CA800AD00A32EC91A592E5A2E652E950187120A
:100CB8003F30DD005D08870507170230BA00BE0126
:100CC800512EFB303202031C6A2E6B2E762E320810
:100CD8001502031C702E712E762EC030DD005D08C3
:100CE8008704A32E410803197A2E7B2E802EC0304C
:100CF800DD005D088704842E3F30DD005D08870530
:100D0800320815020318892E8A2E9A2E0130DD002A
:100D18005D08B70703303702031C932E942EA32EC9
:100D2800B7010130DD005D089507A32EFB303202C4
:100D380003189F2EA02EA32E32089500A32E38301C
:100D48004F024A3003194E020318AB2EAC2EAE2EBA
:100D5800BF01BF0AC301E32FC918B32EB42EC72E93
:100D680095019B013F30DD005D0887053E08031DA6
:100D7800BE2EBF2EC02E682D0430BA00C030DD0054
:100D88005D088704E32F3408031DCB2ECC2EE32FF8
:100D9800FB301B02031CD12ED22ED42E8717E32F33
:100DA8004008031DD82ED92EDB2E8717E02E410CC4
:100DB800031C8713031887170130DD005D08B70788
:100DC80003303702031CE92EEA2EE32FB701013066
:100DD800DD005D089B071B089500E32FFB301B0215
:100DE800031CF72EF82E042F9B01B401B40A3F30E0
:100DF800DD005D08870507170230BA00BE01E32F42
:100E08003408031D082F092FE32F22301B02031873
:100E18000E2F0F2F122F22309B0007160130DD00F6
:100E28005D08B60702303602031C1B2F1C2F212F2A
:100E3800B6010130DD005D089B07410C031C071358
:100E480003180717E32F34304F02333003194E02CB
:100E5800031C2F2F302F4C2F3F30DD005D088705F6
:100E680095019B01C301BF013E0803193C2F3D2F8B
:100E7800442FC030DD005D0887040430BA00E32F3A
:100E88003F30DD005D08870507170230BA00E32F01
:100E9800FB3015060319512F522F592F3408031D03
:100EA800562F572F592FFB309500FB301B0603197F
:100EB8005E2F5F2FE32F3408031D632F642FE32F6A
:100EC800FB309B00E32F46304F021B3003194E02C4
:100ED80003186F2F702F782F9B0195013E08031977
:100EE800762F772F442F3D2FFB30150603197D2FC2
:100EF8007E2F852F3408031D822F832F852FFB30EB
:100F08009500FB301B0603198A2F8B2FE32F34081B
:100F1800031D8F2F902FE32F642F34080319952F6B
:100F2800962F972FE32FC81E9A2F9B2FA72F293074
:100F38004B02F73003194A02031CA32FA42FA72F33
:100F480095019B01FB2E40080319AB2FAC2FB12F45
:100F5800FB309500FB309B00E32F95019B01E32FAD
:100F6800410C031C871303188717E32F3A08003A2C
:100F78000319602D023A03196C2D063A0319962DB0
:100F88000E3A0319BD2D063A0319D72D183A03193D
:100F98002A2E023A0319432E083A0319B02E383A7A
:100FA8000319B72D0E3A0319F22E1A3A0319272FEF
:100FB800053A0319672F0B3A0319912FB42F1B0811
:100FC8000319E72FE82FE92F871215080319ED2FCA
:100FD800EE2F342B0712342B0A128A1100288313A0
:100FE8002030840056300A128A11EC210A128A1124
:080FF80083010A128A11A92AE3
:08400000FF3FFF3FFF3FFF3FC0
:02400E00450D5E
:00000001FF
