:060000000A128A11F32F21
:1003DA0064008001840A0406031900340406EE2925
:1003EA00F3007308F20002300310F20DFF3E031D02
:1003FA00F9290310720D413E831203139F00033043
:10040A00B700092A0130B7023708031D0D2A0E2A40
:10041A00072A1F151F19122A132A0F2A1E08F1006C
:10042A00831603131E08F0000800F401F501701C7E
:10043A001F2A202A262A7208F4070318F50A7308C5
:10044A00F50701300310F20DF30DFF3E031D272AB5
:10045A0001300310F10CF00CFF3E031D2E2A700828
:10046A007104031D392A3A2A1C2A7508F1007408F6
:10047A00F0000800F7007008840083130008F100F8
:10048A00840A0008F20004300310F20CF10CFF3E5B
:10049A00031D492A770884000008F300840A00082B
:1004AA00F40004300310F40CF30CFF3E031D572A2A
:1004BA0071087302F5007208031C720A7402F600CE
:1004CA007008840075088007840F00080318000A62
:1004DA00FF0076087F0780008403080077088312EC
:1004EA000313D6007608D5005608DB0034305B02C9
:1004FA000318802A812A832ADA01A82ACC305B02CF
:10050A00031C882A892A8C2AFB30DA00A82A5B086D
:10051A00CD3ED9005908F800F9017808F0007908A9
:10052A00F1006930F2000130F3000A128A111A222E
:10053A000A128A11710883120313D8007008D700AF
:10054A005808223EDA005A080800183083120313AA
:10055A0083002030DD000030DE0000305E06031D1F
:10056A00B82A5D305D060319BB2ABC2AC22A5D0877
:10057A00840083175E1C831380010130DD07031892
:10058A00DE0A0030DE0700305E02803003195D02A9
:10059A00031CD02AD12AB22A8701831603138701A2
:1005AA0006111C308312031385008316031381136B
:1005BA00E33085009F1383120313BA010609BB00B7
:1005CA00B70108303702031CEB2AEC2AED2AF82A75
:1005DA003708203E84003B08831380000130DC008A
:1005EA005C08B707E62A3B08C800C70100300A12B0
:1005FA008A11F5210A128A11710883120313CC0099
:10060A007008CB0001300A128A11F5210A128A11E8
:10061A00710883120313CE007008CD0004300A1249
:10062A008A11F5210A128A11710883120313CA006A
:10063A007008C9009B0195010F309D040F30970483
:10064A001208FC3901389200FA308316031392001B
:10065A00831203131215F8308F0030308E001014F5
:10066A006400831203130C1C3B2B3C2B352BF830F4
:10067A008F0030308E000C100130DC005C08B807A7
:10068A000730DC005C08B8053808203E84000609FB
:10069A0083138000FF30BD00BC01B7010830370268
:1006AA00031C582B592B5A2B6D2B3708203E8400DC
:1006BA000008DC005C08BD053708203E84000008FD
:1006CA00DC005C08BC040130DC005C08B707532B73
:1006DA003C083B05DC003B093D055C04C8003B09BE
:1006EA004805C7004808BB0000300A128A11F521E4
:1006FA000A128A11710883120313D2007008D100FA
:10070A0001300A128A11F5210A128A11710883121C
:10071A000313D4007008D30004300A128A11F52199
:10072A000A128A11710883120313D0007008CF00CD
:10073A004B30F00051300A128A113F220A128A11F4
:10074A004D30F00053300A128A113F220A128A11E0
:10075A004930F0004F300A128A113F220A128A11D8
:10076A0083120313B01BBA2BBC2B0130BD2B0030F4
:10077A00C100B01AC12BC32B0130C42B0030C000FA
:10078A000130DC005C08B00733080319CD2BCE2BEF
:10079A00E22B0130DC005C08B30724303302031C6F
:1007AA00D72BD82BDA2BB301E22B0B303302031CE5
:1007BA00DF2BE02BE22B0712871233304C02343046
:1007CA0003194B020318EA2BEC2B0130ED2B0030F6
:1007DA00BF003F0C031C87110318871505303A0226
:1007EA00031CF82BF92BFA2BC601323032020318FC
:1007FA00FF2B002C062C0130DC005C08B207BA0182
:10080A00D72C3F0803190A2C0B2C242C3C303A060F
:10081A000319102C112C242C22304A0249300319B6
:10082A0049020318192C1A2C242C3F30DC005C08CE
:10083A0087053C30BA00B301B30A8717D72C481C86
:10084A00272C282C472C28303A0603192D2C2E2C1D
:10085A00472C0A303A060319332C342C472C0C3017
:10086A003A060319392C3A2C472C3F30DC005C0835
:10087A008705B301B30A95019B01B5010717283013
:10088A00BA00D72C29304E02F63003194D0203184C
:10089A004F2C502C622C32303A060319552C562C08
:1008AA00622C3A08B9003F30DC005C088705B301C6
:1008BA00B30A87173230BA00D72CC81C652C662CAD
:1008CA00792C1E303A0203186B2C6C2C792CB3014C
:1008DA00B30A95019B013F30DC005C088705871746
:1008EA00C7121E30BA00D72C420803197D2C7E2C61
:1008FA008B2C1E303A060319832C842C8B2C9501E1
:10090A009B012630BA00B301B30AD72C4D304E02F0
:10091A00C93003194D02031C932C942CAB2C37308D
:10092A003A060319992C9A2CAB2C28303A0603194B
:10093A009F2CA02CAB2C3A08B900B301B30A37306C
:10094A00BA003F30DC005C088705222C1E303A06CC
:10095A000319B02CB12CC82C3108031DB52CB62CA8
:10096A00CA2C4C08F7004B08F6000A128A117322A7
:10097A000A128A1183120313B100253031020318B7
:10098A00C72CC82CD72CB101D72C4C08F7004B0820
:10099A00F6000A128A1173220A128A1183120313A9
:1009AA00B100D72C47304E02A53003194D02031C63
:1009BA00DF2CE02CE22C0615EC2C46304E021B30C4
:1009CA0003194D020318EA2CEB2CEC2C06113A30D1
:1009DA002D02993003192C02031CF42CF52C092D35
:1009EA00AC01AD013A304E02D93003194D02031859
:1009FA00FF2C002D072D3E080319042D052D072D68
:100A0A00C201C20ABE011E2D2C082D0403190E2D87
:100A1A000F2D1E2D1F303A02031C142D152D182DD3
:100A2A00AC01AD011E2D0130AC070318AD0A003030
:100A3A00AD073F080319222D232D2C2D0030AB00C2
:100A4A000030AA000030A9000030A8005F2D2B0852
:100A5A00031D3F2D02302A02031D3B2D4930290276
:100A6A00031D3B2DF1302802031D3B2D031C3E2D97
:100A7A003F2D472D831203138501FF30831603137D
:100A8A0085005F2D1C30831203138500E330831623
:100A9A0003138500013083120313A80700300318DB
:100AAA000130A907003003180130AA0700300318E3
:100ABA000130AB073230831232020318652D662DDE
:100ACA00BA2F0130DC005C08B207BA01BA2F323003
:100ADA0032020318712D722D742DBA01E32F0230E0
:100AEA00BA000717E32FE32F3F08031D7D2D7E2D44
:100AFA00802DC601C60A45080319842D852D872D28
:100B0A00C501E32FC71E8A2D8B2D922DC030DC0024
:100B1A005C0887040430BA00E32F46080319962DAF
:100B2A00972DE32F310803199B2D9C2DE32FC60126
:100B3A000A30BA00B401E32F3F08031DA52DA62DE4
:100B4A00A82DC601C60AC81AAB2DAC2DB12D3F304F
:100B5A00DC005C088705742D46080319B52DB62DEF
:100B6A00E32F31080319BA2DBB2DE32FC601143028
:100B7A00BA009F2D410C031C871303188717E32F14
:100B8A000130DC005C08B4070A303406031DCE2DA0
:100B9A00CF2DD22D87120716E32F33303402031CD0
:100BAA00D72DD82DE32F0C30BA0022309B009501A7
:100BBA00BE01E32F3108031DE32DE42DF32D9B0124
:100BCA000230BA003F30DC005C08870507170130A5
:100BDA00AC000030AD00B301B30A252EFB30310260
:100BEA00031CF82DF92D012E31081B02031CFE2DC2
:100BFA00FF2D012E0717252E400C031C071303187F
:100C0A00071731081B0203180B2E0C2E1C2E01305D
:100C1A00DC005C08B60703303602031C152E162EBC
:100C2A00252EB6010130DC005C089B07252EFB301F
:100C3A0031020318212E222E252E31089B00252E43
:100C4A00C20138304E024A3003194D0203182E2EC3
:100C5A002F2EE32FBE01BE0AE32F0130DC005C0811
:100C6A00B4070A303406031D3B2E3C2E3F2E87164E
:100C7A000712E32F33303402031C442E452EE32F90
:100C8A001630BA00223095009B01DD2D3108031D74
:100C9A004F2E502E5E2E9501B301B30A0430BA00CE
:100CAA00C030DC005C0887040130AC000030AD00C5
:100CBA00AA2EC81A612E622E6C2E950187123F3019
:100CCA00DC005C08870507170230BA00592EFB3092
:100CDA003102031C712E722E7D2E31081502031C5F
:100CEA00772E782E7D2EC030DC005C088704AA2E71
:100CFA0040080319812E822E872EC030DC005C0842
:100D0A0087048B2E3F30DC005C088705310815020A
:100D1A000318902E912EA12E0130DC005C08B60734
:100D2A0003303602031C9A2E9B2EAA2EB6010130DE
:100D3A00DC005C089507AA2EFB3031020318A62EA8
:100D4A00A72EAA2E31089500AA2E38304E024A3014
:100D5A0003194D020318B22EB32EB52EBE01BE0AD8
:100D6A00C201E32FC818BA2EBB2EC52E95019B01CE
:100D7A003F30DC005C08870507170230BA00E32F12
:100D8A003308031DC92ECA2EE32FFB301B02031C96
:100D9A00CF2ED02ED22E8717E32F3F08031DD62E33
:100DAA00D72ED92E8717DE2E400C031C8713031863
:100DBA0087170130DC005C08B60703303602031CD3
:100DCA00E72EE82E782DB6010130DC005C089B077F
:100DDA001B089500E32FFB301B02031CF52EF62E91
:100DEA00FA2E9B01B301B30ABD2E3308031DFE2E52
:100DFA00FF2EE32F22301B020318042F052F082F82
:100E0A0022309B0007160130DC005C08B50702306F
:100E1A003502031C112F122F172FB5010130DC00E8
:100E2A005C089B07400C031C071303180717E32FE2
:100E3A0034304E02333003194D02031C252F262F5E
:100E4A00412F3F30DC005C08870595019B01C201F8
:100E5A00BE01143039060319332F342F8B2D043079
:100E6A0039060319392F3A2F8B2D16303906031DEF
:100E7A003F2F402FBD2E8B2DFB3015060319462F11
:100E8A00472F4E2F3308031D4B2F4C2F4E2FFB306D
:100E9A009500FB301B060319532F542FE32F3308F9
:100EAA00031D582F592FE32FFB309B00E32F4630A9
:100EBA004E021B3003194D020318642F652F7A2F37
:100ECA009B0195011430390603196C2F6D2F8B2D58
:100EDA00043039060319722F732F8B2D16303906F9
:100EEA00031D782F792FBD2E8B2DFB301506031984
:100EFA007F2F802F872F3308031D842F852F872F5D
:100F0A00FB309500FB301B0603198C2F8D2FE32F26
:100F1A003308031D912F922FE32F592F33080319FA
:100F2A00972F982F992FE32FC71E9C2F9D2FA72FFE
:100F3A0029304A02F73003194902031CA52FA62FAC
:100F4A00A72FBB2E3F080319AB2FAC2FB12FFB30B5
:100F5A009500FB309B00E32F95019B01E32F400C8A
:100F6A00031C871303188717E32F3A08003A03195B
:100F7A006C2D023A0319792D063A0319A12D0E3A5E
:100F8A000319C52D063A0319DF2D183A0319322E13
:100F9A00023A03194B2E083A0319B72E383A0319A5
:100FAA00BF2D0E3A0319F02E1A3A03191D2F053ACE
:100FBA0003195C2F0B3A0319932FB42F1B0803193B
:100FCA00E72FE82FE92F871215080319ED2FEE2FC7
:100FDA00352B0712352B0A128A1100288313203069
:100FEA00840055300A128A11ED210A128A118301EE
:060FFA000A128A11AA2A66
:08400000FF3FFF3FFF3FFF3FC0
:02400E00450D5E
:00000001FF
