:060000000A128A11F32F21
:1002A80064008001840A04060319003404065529F1
:1002B800F3007308F20002300310F20DFF3E031D35
:1002C80060290310720D413E831203139F0003300F
:1002D800B90070290130B9023908031D742975293C
:1002E8006E291F151F1979297A2976291E08F10008
:1002F800831603131E08F0000800F401F501701CB2
:10030800862987298D297208F4070318F50A7308C6
:10031800F50701300310F20DF30DFF3E031D8E2982
:1003280001300310F10CF00CFF3E031D95297008F5
:100338007104031DA029A12983297508F1007408F7
:10034800F0000800F7007008840083130008F1002B
:10035800840A0008F20004300310F20CF10CFF3E8E
:10036800031DB029770884000008F300840A0008F8
:10037800F40004300310F40CF30CFF3E031DBE29F7
:1003880071087302F5007208031C720A7402F60001
:100398007008840075088007840F00080318000A95
:1003A800FF0076087F07800084030800770883121F
:1003B8000313D8007608D7005808DD0034305D02F2
:1003C8000318E729E829EA29DC010F2ACC305D0265
:1003D800031CEF29F029F329FB30DC000F2A5D0804
:1003E800CD3EDB005B08F800F9017808F0007908D9
:1003F800F1006930F2000130F3000A128A118121FC
:100408000A128A11710883120313DA007008D900DE
:100418005A08223EDC005C080800770883120313A0
:10042800D8007608D7005808DD0034305D0203187C
:100438001E2A1F2A222A3230DC00472ACC305D02CD
:10044800031C272A282A2B2AFB30DC00472A5D08B0
:10045800CD3EDB005B08F800F9017808F000790868
:10046800F1004F30F2000130F3000A128A118121A5
:100478000A128A11710883120313DA007008D9006E
:100488005A08323EDC005C08080018308312031357
:1004980083002030DF000030E00000306006031DDC
:1004A800572A5F305F0603195A2A5B2A612A5F08B8
:1004B80084008317601C831380010130DF07031851
:1004C800E00A0030E00700306002803003195F0264
:1004D800031C6F2A702A512A870183160313870188
:1004E80006111C308312031385008316031381132E
:1004F800E3308500831203130714831603139F1335
:1005080083120313BB010609BC00B9010830390284
:10051800031C8F2A902A912A9C2A3908203E84009D
:100528003C08831380000130DE005E08B9078A2A80
:100538003C08CA00C90100300A128A115C210A125B
:100548008A11710883120313CE007008CD000130A0
:100558000A128A115C210A128A1171088312031384
:10056800D0007008CF0004300A128A115C210A12E8
:100578008A11710883120313CC007008CB009B0109
:1005880095010F309D040F3097041208FC3901388B
:100598009200FA3083160313920083120313121584
:1005A800F8308F0030308E0010146400831203136B
:1005B8000C1CDF2AE02AD92AF8308F0030308E0050
:1005C8000C100130DE005E08BA070730DE005E0856
:1005D800BA053A08203E8400060983138000FF30DC
:1005E800BE00BD01B90108303902031CFC2AFD2AEE
:1005F800FE2A112B3908203E84000008DE005E0820
:10060800BE053908203E84000008DE005E08BD04EF
:100618000130DE005E08B907F72A3D083C05DE0018
:100628003C093E055E04CA003C094A05C9004A085F
:10063800BC0000300A128A115C210A128A11710862
:1006480083120313D4007008D30001300A128A11F0
:100658005C210A128A11710883120313D6007008EC
:10066800D50004300A128A115C210A128A11710815
:1006780083120313D2007008D1004D30F0005330BC
:100688000A128A11A6210A128A114F30F000553039
:100698000A128A11A6210A128A114B30F000513031
:1006A8000A128A11A6210A128A1183120313B11B96
:1006B8005E2B602B0130612B0030C300B11A652B13
:1006C800672B0130682B0030C2000130DE005E0865
:1006D800B10735080319712B722B862B0130DE0008
:1006E8005E08B50724303502031C7B2B7C2B7E2B40
:1006F800B501862B0B303502031C832B842B862BEC
:100708000712871233304E02343003194D02031892
:100718008E2B902B0130912B0030C100410C031C13
:1007280087110318871505303B02031C9C2B9D2B52
:100738009E2BC801323034020318A32BA42BAA2BFA
:100748000130DE005E08B407BB01812C41080319A3
:10075800AE2BAF2BC82B3C303B060319B42BB52B63
:10076800C82B22304C02493003194B020318BD2B09
:10077800BE2BC82B3F30DE005E0887053C30BB002F
:10078800B501B50A8717812C4A1CCB2BCC2BE42B3F
:1007980028303B060319D12BD22BE42B3F08031931
:1007A800D62BD72BE42B3F30DE005E088705B5013A
:1007B800B50A95019B01B70107172830BB00812CAA
:1007C80029305002F63003194F020318EC2BED2B99
:1007D800FD2B32303B060319F22BF32BFD2B3F3058
:1007E800DE005E088705B501B50A87173230BB0001
:1007F800812CCA1C002C012C1B2C1E303B02031C14
:10080800062C072C0D2C26303B06031D0C2C0D2C1A
:100818001B2CB501B50A95019B013F30DE005E082F
:1008280087058717C91287111E30BB00812C440821
:1008380003191F2C202C372C1E303B020318252CA3
:10084800262C372C95019B0126303B0603192D2CAD
:100858002E2C342C2630BB003F30DE005E08870586
:10086800B501B50A812C4D305002C93003194F0229
:10087800031C3F2C402C552C37303B060319452CC4
:10088800462C552C28303B0603194B2C4C2C552C48
:10089800B501B50A3730BB003F30DE005E0887057A
:1008A800C62B1E303B0603195A2C5B2C722C3208BF
:1008B800031D5F2C602C742C4E08F7004D08F600C1
:1008C8000A128A11DA210A128A1183120313B2005A
:1008D800253032020318712C722C812CB201812C24
:1008E8004E08F7004D08F6000A128A11DA210A129A
:1008F8008A1183120313B200812C47305002A530AD
:1009080003194F02031C892C8A2C8C2C0615962C53
:10091800463050021B3003194F020318942C952CB3
:10092800962C06114408031D9A2C9B2CDF2C3A3078
:100938002D02993003192C02031CA32CA42CB82CCB
:10094800AC01AD013C305002E53003194F020318E9
:10095800AE2CAF2CB62C40080319B32CB42CB62CF3
:10096800C401C40AC001DF2C40080319BC2CBD2CEB
:10097800D12C383050024B3003194F02031CC52CC0
:10098800C62CCA2CAC01AD01C001DF2C0130AC076C
:100998000318AD0A0030AD07DF2C383050024A305A
:1009A80003194F020318D92CDA2CDD2CC001C00A18
:1009B800DF2CAC01AD0141080319E32CE42CED2C2C
:1009C8000030AB000030AA000030A9000030A800B9
:1009D800292D2B08031D002D02302A02031DFC2C93
:1009E80049302902031DFC2CF1302802031DFC2C80
:1009F800031CFF2C002D102D83120313B401850155
:100A0800FF30831603138500831203138701FF3019
:100A1800831603138700292D1C30831203138500C6
:100A2800E330831603138500831203130714013080
:100A3800A807003003180130A90700300318013057
:100A4800AA07003003180130AB0732308312340292
:100A580003182F2D302DBA2F0130DE005E08B407A1
:100A6800BB01BA2F3230340203183B2D3C2D3E2DEA
:100A7800BB01E32F0230BB000717E32FE32F410828
:100A8800031D472D482D4A2DC801C80A3830500289
:100A98004A3003194F020318522D532D552DC0010A
:100AA800C00A47080319592D5A2D5C2DC701E32F99
:100AB800C91E5F2D602D692DC030DE005E088704D9
:100AC8000430BB00BF01BF0AE32F480803196D2D8E
:100AD8006E2DE32F32080319722D732DE32FC801F1
:100AE8000A30BB00B601E32F4108031D7C2D7D2D84
:100AF8007F2DC801C80A383050024A3003194F0206
:100B08000318872D882D8A2DC001C00ACA1A8D2D79
:100B18008E2D962D3F30DE005E0887050230BB0023
:100B2800BF01402D480803199A2D9B2DE32F320849
:100B380003199F2DA02DE32FC8011430BB00762D7B
:100B48003C305002E63003194F02031CAC2DAD2D8A
:100B5800C82D3F30DE005E08870595019B01C40162
:100B68003F080319B82DB92DC02DC030DE005E082E
:100B780087040430BB00E32F3F30DE005E088705A2
:100B880007170230BB00E32F430C031C871303181D
:100B98008717E32F0130DE005E08B6070A303606F5
:100BA800031DD72DD82DDB2D87120716E32F3330E1
:100BB8003602031CE02DE12DE32F0C30BB00223060
:100BC8009B009501E32FAC01AD013208031DED2D0B
:100BD800EE2DF92D9B010230BB003F30DE005E0890
:100BE80087050717B501B50AE32FFB303202031C4E
:100BF800FE2DFF2D062E32081B02031C042E052E87
:100C0800062E402D420C031C071303180717320841
:100C18001B020318102E112E212E0130DE005E0853
:100C2800B80703303802031C1A2E1B2E422DB801B8
:100C38000130DE005E089B07E32FFB303202031809
:100C4800262E272E422D32089B00E32F0130DE008E
:100C58005E08B6070A303606031D332E342E372EAB
:100C680087160712E32F33303602031C3C2E3D2E25
:100C7800E32F1630BB00223095009B01E32FAC0117
:100C8800AD013208031D492E4A2E542E9501B50197
:100C9800B50A0430BB00C030DE005E088704E32FCD
:100CA800CA1A572E582E632E950187123F30DE0040
:100CB8005E08870507170230BB00BF01E32FFB3032
:100CC8003202031C682E692E702E32081502031C8E
:100CD8006E2E6F2E702E4F2E42080319742E752E0D
:100CE8007A2EC030DE005E0887047E2E3F30DE009C
:100CF8005E088705320815020318832E842E942E69
:100D08000130DE005E08B80703303802031C8D2E60
:100D18008E2E422DB8010130DE005E089507E32FC4
:100D2800FB3032020318992E9A2E422D3208950074
:100D3800E32FC91EA02EA12EB22E4108031DA52EF9
:100D4800A62EB22E95019B013F30DE005E08870576
:100D5800C701C70AAF013C30B300E32F33080319BA
:100D6800B62EB72EC42E0130B3023308031DBD2E94
:100D7800BE2EE32F3F08031DC22EC32E4D2E3E2D3F
:100D88003508031DC82EC92EE32F4E08F7004D085D
:100D9800F6000A128A1111220A128A118312031309
:100DA800B000FB303002031CDA2EDB2EE32E3008B5
:100DB8001B02031CE02EE12EE32E8717062F4108A5
:100DC800031DE72EE82EEA2E8717EF2E420C031C90
:100DD80087130318871730081B020318F42EF52E03
:100DE800042F0130DE005E08B80738080319FD2E0D
:100DF800FE2E062FB8010130DE005E089B07062F85
:100E080030089B001B089500E32FFB301B02031CD6
:100E18000E2F0F2F132F9B01B501B50A5A2E350837
:100E2800031D172F182FE32F22301B0203181D2F25
:100E38001E2F212F22309B0007160130DE005E088E
:100E4800B70702303702031C2A2F2B2F302FB70188
:100E58000130DE005E089B07420C031C07130318D1
:100E68000717E32F34305002333003194F02031CA5
:100E78003E2F3F2F4C2F3F30DE005E08870595013F
:100E88009B01C0013F0803194A2F4B2FC02DB92DD4
:100E9800FB3015060319512F522F592F3508031D02
:100EA800562F572F592FFB309500FB301B0603197F
:100EB8005E2F5F2FE32F3508031D632F642FE32F69
:100EC800FB309B00E32F463050021B3003194F02C2
:100ED80003186F2F702F782F9B0195013F08031976
:100EE800762F772FC02DB92DFB30150603197D2FCE
:100EF8007E2F852F3508031D822F832F852FFB30EA
:100F08009500FB301B0603198A2F8B2FE32F35081A
:100F1800031D8F2F902FE32F642F35080319952F6A
:100F2800962F972FE32FC91E9A2F9B2FA72F293073
:100F38004C02F73003194B02031CA32FA42FA72F31
:100F480095019B015A2E41080319AB2FAC2FB12FE5
:100F5800FB309500FB309B00E32F95019B01E32FAD
:100F6800420C031C871303188717E32F3B08003A2A
:100F78000319362D023A0319432D063A0319782D21
:100F88000E3A0319CE2D063A0319E72D183A03191C
:100F98002A2E023A0319432E083A03199D2E383A8D
:100FA8000319A42D0E3A0319092F1A3A0319362FDB
:100FB800053A0319672F0B3A0319912FB42F1B0811
:100FC8000319E72FE82FE92F871215080319ED2FCA
:100FD800EE2FD92A0712D92A0A128A110028831358
:100FE8002030840057300A128A1154210A128A11BB
:080FF80083010A128A11492A43
:08400000FF3FFF3FFF3FFF3FC0
:02400E00450D5E
:00000001FF
