:060000000A128A11F32F21
:1003940064008001840A0406031900340406CB298E
:1003A400F3007308F20002300310F20DFF3E031D48
:1003B400D6290310720D413E831203139F000330AC
:1003C400B800E6290130B8023808031DEA29EB29F0
:1003D400E4291F151F19EF29F029EC291E08F10043
:1003E400831603131E08F0000800F401F501701CC5
:1003F400FC29FD29032A7208F4070318F50A730877
:10040400F50701300310F20DF30DFF3E031D042A1E
:1004140001300310F10CF00CFF3E031D0B2A700891
:100424007104031D162A172AF9297508F1007408A6
:10043400F0000800F7007008840083130008F1003E
:10044400840A0008F20004300310F20CF10CFF3EA1
:10045400031D262A770884000008F300840A000894
:10046400F40004300310F40CF30CFF3E031D342A93
:1004740071087302F5007208031C720A7402F60014
:100484007008840075088007840F00080318000AA8
:10049400FF0076087F078000840308007708831232
:1004A4000313D7007608D6005708DC0034305C020A
:1004B40003185D2A5E2A602ADB01852ACC305C029F
:1004C400031C652A662A692AFB30DB00852A5C083E
:1004D400CD3EDA005A08F800F9017808F0007908EE
:1004E400F1006930F2000130F3000A128A11F72199
:1004F4000A128A11710883120313D9007008D800F4
:100504005908223EDB005B080800183083120313ED
:1005140083002030DE000030DF0000305F06031D62
:10052400952A5E305E060319982A992A9F2A5E0846
:10053400840083175F1C831380010130DE070318D6
:10054400DF0A0030DF0700305F02803003195E02EB
:10055400031CAD2AAE2A8F2A870183160313870151
:1005640006111C30831203138500831603138113B1
:10057400E33085009F1383120313BA010609BB00FD
:10058400B80108303802031CC82AC92ACA2AD52A45
:100594003808203E84003B08831380000130DD00CE
:1005A4005D08B807C32A3B08C900C80100300A1215
:1005B4008A11D2210A128A11710883120313CD0001
:1005C4007008CC0001300A128A11D2210A128A1151
:1005D400710883120313CF007008CE0004300A128E
:1005E4008A11D2210A128A11710883120313CB00D3
:1005F4007008CA009B0195010F309D040F309704C9
:100604001208FC3901389200FA3083160313920061
:10061400831203131215F8308F0030308E0010143B
:100624006400831203130C1C182B192B122BF830A3
:100634008F0030308E000C100130DD005D08B907EA
:100644000730DD005D08B9053908203E840006093D
:1006540083138000FF30BD00BC01B80108303802AC
:10066400031C352B362B372B4A2B3808203E8400AD
:100674000008DD005D08BD053808203E8400000840
:10068400DD005D08BC040130DD005D08B807302BD7
:100694003C083B05DD003B093D055D04C9003B0901
:1006A4004905C8004908BB0000300A128A11D2214A
:1006B4000A128A11710883120313D3007008D2003E
:1006C40001300A128A11D2210A128A117108831286
:1006D4000313D5007008D40004300A128A11D22101
:1006E4000A128A11710883120313D1007008D00012
:1006F4004C30F00052300A128A111C220A128A115C
:100704004E30F00054300A128A111C220A128A1147
:100714004A30F00050300A128A111C220A128A113F
:1007240083120313B11B972B992B01309A2B0030A2
:10073400C200B11A9E2BA02B0130A12B0030C100A6
:100744000130DD005D08B10734080319AA2BAB2B77
:10075400BF2B0130DD005D08B40724303402031CD4
:10076400B42BB52BB72BB401BF2B0B303402031CB5
:10077400BC2BBD2BBF2B0712871233304D023430F4
:1007840003194C020318C72BC92B0130CA2B0030A4
:10079400C000400C031C87110318871505303A026A
:1007A400031CD52BD62BD72BC701323033020318A9
:1007B400DC2BDD2BE32B0130DD005D08B307BA0130
:1007C400BA2C40080319E72BE82B012C3C303A06DD
:1007D4000319ED2BEE2B012C22304B024930031967
:1007E4004A020318F62BF72B012C3F30DD005D087D
:1007F40087053C30BA00B401B40A8717BA2C491CE7
:10080400042C052C1D2C28303A0603190A2C0B2C19
:100814001D2C3E0803190F2C102C1D2C3F30DD001D
:100824005D088705B401B40A95019B01B601071759
:100834002830BA00BA2C29304F02F63003194E0280
:100844000318252C262C362C32303A0603192B2C6F
:100854002C2C362C3F30DD005D088705B401B40A2A
:1008640087173230BA00BA2CC91C392C3A2C542CB4
:100874001E303A02031C3F2C402C462C26303A06EC
:10088400031D452C462C542CB401B40A95019B013C
:100894003F30DD005D0887058717C81287111E30B9
:1008A400BA00BA2C43080319582C592C702C1E304A
:1008B4003A0203185E2C5F2C702C95019B012630A4
:1008C4003A060319662C672C6D2C2630BA003F308B
:1008D400DD005D088705B401B40ABA2C4D304F021F
:1008E400C93003194E02031C782C792C8E2C373016
:1008F4003A0603197E2C7F2C8E2C28303A060319D5
:10090400842C852C8E2CB401B40A3730BA003F30C5
:10091400DD005D088705FF2B1E303A060319932C72
:10092400942CAB2C3208031D982C992CAD2C4D081B
:10093400F7004C08F6000A128A1150220A128A1192
:1009440083120313B200253032020318AA2CAB2CF5
:10095400BA2CB201BA2C4D08F7004C08F6000A1262
:100964008A1150220A128A1183120313B200BA2C7C
:1009740047304F02A53003194E02031CC22CC32C6E
:10098400C52C0615CF2C46304F021B3003194E02DE
:100994000318CD2CCE2CCF2C06114308031DD32CC9
:1009A400D42C182D3A302D02993003192C02031C33
:1009B400DC2CDD2CF12CAC01AD013C304F02E530D8
:1009C40003194E020318E72CE82CEF2C3F080319F7
:1009D400EC2CED2CEF2CC301C30ABF01182D3F08EA
:1009E4000319F52CF62C0A2D38304F024B3003191D
:1009F4004E02031CFE2CFF2C032DAC01AD01BF01E4
:100A0400182D0130AC070318AD0A0030AD07182DBE
:100A140038304F024A3003194E020318122D132D99
:100A2400162DBF01BF0A182DAC01AD0140080319F2
:100A34001C2D1D2D262D0030AB000030AA000030E7
:100A4400A9000030A8005A2D2B08031D392D0230AF
:100A54002A02031D352D49302902031D352DF1309D
:100A64002802031D352D031C382D392D422D8312E8
:100A74000313B3018501FF308316031385005A2D38
:100A84001C30831203138500E3308316031385009F
:100A9400013083120313A807003003180130A9079B
:100AA400003003180130AA07003003180130AB07E7
:100AB4003230831233020318602D612DBA2F0130B6
:100AC400DD005D08B307BA01BA2F323033020318D0
:100AD4006C2D6D2D6F2DBA01E32F0230BA0007176C
:100AE400E32FE32F4008031D782D792D7B2DC701BB
:100AF400C70A38304F024A3003194E020318832DB7
:100B0400842D862DBF01BF0A460803198A2D8B2D1B
:100B14008D2DC601E32FC81E902D912D9A2DC03026
:100B2400DD005D0887040430BA00BE01BE0AE32F6D
:100B3400470803199E2D9F2DE32F32080319A32D77
:100B4400A42DE32FC7010A30BA00B501E32F4008F2
:100B5400031DAD2DAE2DB02DC701C70A38304F028D
:100B64004A3003194E020318B82DB92DBB2DBF010D
:100B7400BF0AC91ABE2DBF2DC72D3F30DD005D0849
:100B840087050230BA00BE01712D47080319CB2D29
:100B9400CC2DE32F32080319D02DD12DE32FC7011B
:100BA4001430BA00A72D3C304F02E63003194E0230
:100BB400031CDD2DDE2DF92D3F30DD005D0887059A
:100BC40095019B01C3013E080319E92DEA2DF12D7E
:100BD400C030DD005D0887040430BA00E32F3F30E5
:100BE400DD005D08870507170230BA00E32F420CC9
:100BF400031C871303188717E32F0130DD005D08FA
:100C0400B5070A303506031D082E092E0C2E87124F
:100C14000716E32F33303502031C112E122EE32F57
:100C24000C30BA0022309B009501E32FAC01AD01DA
:100C34003208031D1E2E1F2E2A2E9B010230BA00DD
:100C44003F30DD005D0887050717B401B40AE32FC0
:100C5400FB303202031C2F2E302E372E32081B029B
:100C6400031C352E362E372E712D410C031C071311
:100C74000318071732081B020318412E422E522E66
:100C84000130DD005D08B70703303702031C4B2E2B
:100C94004C2E732DB7010130DD005D089B07E32F57
:100CA400FB3032020318572E582E732D32089B0046
:100CB400E32F0130DD005D08B5070A303506031D5A
:100CC400642E652E682E87160712E32F3330350203
:100CD400031C6D2E6E2EE32F1630BA0022309500C1
:100CE4009B01E32FAC01AD013208031D7A2E7B2E4C
:100CF400852E9501B401B40A0430BA00C030DD0079
:100D04005D088704E32FC91A882E892E942E950135
:100D140087123F30DD005D08870507170230BA00EF
:100D2400BE01E32FFB303202031C992E9A2EA12E12
:100D340032081502031C9F2EA02EA12E802E4108DE
:100D44000319A52EA62EAB2EC030DD005D08870446
:100D5400AF2E3F30DD005D08870532081502031809
:100D6400B42EB52EC52E0130DD005D08B707033063
:100D74003702031CBE2EBF2E732DB7010130DD00D8
:100D84005D089507E32FFB3032020318CA2ECB2EE1
:100D9400732D32089500E32FC918D12ED22EDE2EE2
:100DA40095019B013F30DD005D0887053E08031D6A
:100DB400DC2EDD2E7E2E6F2D3408031DE22EE32E55
:100DC400E32FFB301B02031CE82EE92EEB2E8717C2
:100DD400E32F4008031DEF2EF02EF22E8717F72E77
:100DE400410C031C8713031887170130DD005D08CD
:100DF400B70703303702031C002F012FE32FB7017D
:100E04000130DD005D089B071B089500E32FFB30D4
:100E14001B02031C0E2F0F2F132F9B01B401B40AC6
:100E24008B2E3408031D172F182FE32F22301B029B
:100E340003181D2F1E2F212F22309B00071601306F
:100E4400DD005D08B60702303602031C2A2F2B2F63
:100E5400302FB6010130DD005D089B07410C031CF7
:100E6400071303180717E32F34304F0233300319E5
:100E74004E02031C3E2F3F2F4C2F3F30DD005D08F8
:100E8400870595019B01BF013E0803194A2F4B2F8B
:100E9400F12DEA2DFB3015060319512F522F592F2E
:100EA4003408031D562F572F592FFB309500FB3064
:100EB4001B0603195E2F5F2FE32F3408031D632FD6
:100EC400642FE32FFB309B00E32F46304F021B308F
:100ED40003194E0203186F2F702F782F9B01950171
:100EE4003E080319762F772FF12DEA2DFB301506D6
:100EF40003197D2F7E2F852F3408031D822F832F06
:100F0400852FFB309500FB301B0603198A2F8B2F8E
:100F1400E32F3408031D8F2F902FE32F642F340801
:100F24000319952F962F972FE32FC81E9A2F9B2FC7
:100F3400A72F29304B02F73003194A02031CA32FB1
:100F4400A42FA72F95019B018B2E40080319AB2FCB
:100F5400AC2FB12FFB309500FB309B00E32F9501A4
:100F64009B01E32F410C031C871303188717E32FFE
:100F74003A08003A0319672D023A0319742D063A08
:100F84000319A92D0E3A0319FF2D063A0319182E39
:100F9400183A03195B2E023A0319742E083A0319FE
:100FA400CE2E383A0319D52D0E3A0319092F1A3AC1
:100FB4000319362F053A0319672F0B3A0319912F9A
:100FC400B42F1B080319E72FE82FE92F8712150800
:100FD4000319ED2FEE2F122B0712122B0A128A116E
:100FE400002883132030840056300A128A11CA2143
:0C0FF4000A128A1183010A128A11872A4E
:08400000FF3FFF3FFF3FFF3FC0
:02400E00450D5E
:00000001FF
