:060000000A128A11F32F21
:1003F80064008001840A0406031900340406FD29F8
:10040800F3007308F20002300310F20DFF3E031DE3
:10041800082A0310720D413E831203139F00033014
:10042800B700182A0130B7023708031D1C2A1D2AF5
:10043800162A1F151F19212A222A1E2A1E08F10012
:10044800831603131E08F0000800F401F501701C60
:100458002E2A2F2A352A7208F4070318F50A73087A
:10046800F50701300310F20DF30DFF3E031D362A88
:1004780001300310F10CF00CFF3E031D3D2A7008FB
:100488007104031D482A492A2B2A7508F1007408AB
:10049800F0000800F7007008840083130008F100DA
:1004A800840A0008F20004300310F20CF10CFF3E3D
:1004B800031D582A770884000008F300840A0008FE
:1004C800F40004300310F40CF30CFF3E031D662AFD
:1004D80071087302F5007208031C720A7402F600B0
:1004E8007008840075088007840F00080318000A44
:1004F800FF0076087F0780008403080077088312CE
:100508000313D6007608D5005608DB0034305B02AA
:1005180003188F2A902A922ADA01B72ACC305B0274
:10052800031C972A982A9B2AFB30DA00B72A5B0813
:10053800CD3ED9005908F800F9017808F00079088B
:10054800F1006930F2000130F3000A128A11292201
:100558000A128A11710883120313D8007008D70091
:100568005808223EDA005A0808001830831203138C
:1005780083002030DD000030DE0000305E06031D01
:10058800C72A5D305D060319CA2ACB2AD12A5D081D
:10059800840083175E1C831380010130DD07031874
:1005A800DE0A0030DE0700305E02803003195D028B
:1005B800031CDF2AE02AC12A870183160313870157
:1005C80006111C308312031385008316031381134D
:1005D800E33085009F1383120313BA010609BB0099
:1005E800B70108303702031CFA2AFB2AFC2A072B1A
:1005F8003708203E84003B08831380000130DC006C
:100608005C08B707F52A3B08C800C70100300A1282
:100618008A1104220A128A11710883120313CC006A
:100628007008CB0001300A128A1104220A128A11BA
:10063800710883120313CE007008CD0004300A122B
:100648008A1104220A128A11710883120313CA003C
:100658007008C9009B0195010F309D040F30970465
:100668001208FC3901389200FA30831603139200FD
:10067800831203131215F8308F0030308E001014D7
:100688006400831203130C1C4A2B4B2B442BF830A9
:100698008F0030308E000C100130DC005C08B80789
:1006A8000730DC005C08B8053808203E84000609DD
:1006B80083138000FF30BD00BC01B701083037024A
:1006C800031C672B682B692B7C2B3708203E840082
:1006D8000008DC005C08BD053708203E84000008DF
:1006E800DC005C08BC040130DC005C08B707622B46
:1006F8003C083B05DC003B093D055C04C8003B09A0
:100708004805C7004808BB0000300A128A110422B5
:100718000A128A11710883120313D2007008D100DB
:1007280001300A128A1104220A128A1171088312EE
:100738000313D4007008D30004300A128A1104226B
:100748000A128A11710883120313D0007008CF00AF
:100758004B30F00051300A128A114E220A128A11C7
:100768004D30F00053300A128A114E220A128A11B3
:100778004930F0004F300A128A114E220A128A11AB
:1007880083120313B01BC92BCB2B0130CC2B0030A9
:10079800C100B01AD02BD22B0130D32B0030C000AF
:1007A8000130DC005C08B00733080319DC2BDD2BB3
:1007B800F12B0130DC005C08B30724303302031C42
:1007C800E62BE72BE92BB301F12B0B303302031C8B
:1007D800EE2BEF2BF12B0712871233304C023430FB
:1007E80003194B020318F92BFB2B0130FC2B0030AB
:1007F800BF003F0C031C87110318871505303A0208
:10080800031C072C082C092CC601323032020318AD
:100818000E2C0F2C152C0130DC005C08B207BA0135
:10082800E62C3F080319192C1A2C332C3C303A06B5
:1008380003191F2C202C332C22304A02493003196B
:1008480049020318282C292C332C3F30DC005C0883
:1008580087053C30BA00B301B30A8717E62C481C59
:10086800362C372C562C28303A0603193C2C3D2CB4
:10087800562C0A303A060319422C432C562C0C30BD
:100888003A060319482C492C562C3F30DC005C08EA
:100898008705B301B30A95019B01B50107172830F5
:1008A800BA00E62C29304E02F63003194D0203181F
:1008B8005E2C5F2C712C32303A060319642C652C9F
:1008C800712C3A08B9003F30DC005C088705B30199
:1008D800B30A87173230BA00E62CC81C742C752C62
:1008E800882C1E303A0203187A2C7B2C882CB301F2
:1008F800B30A95019B013F30DC005C088705871728
:10090800C7121E30BA00E62C420803198C2C8D2C15
:100918009A2C1E303A060319922C932C9A2C950186
:100928009B012630BA00B301B30AE62C4D304E02C3
:10093800C93003194D02031CA22CA32CBA2C373042
:100948003A060319A82CA92CBA2C28303A06031900
:10095800AE2CAF2CBA2C3A08B900B301B30A373021
:10096800BA003F30DC005C088705312C1E303A069F
:100978000319BF2CC02CD72C3108031DC42CC52C3F
:10098800D92C4C08F7004B08F6000A128A1182226B
:100998000A128A1183120313B10025303102031899
:1009A800D62CD72CE62CB101E62C4C08F7004B08C6
:1009B800F6000A128A1182220A128A11831203137C
:1009C800B100E62C47304E02A53003194D02031C36
:1009D800EE2CEF2CF12C0615FB2C46304E021B306A
:1009E80003194D020318F92CFA2CFB2C06113A3086
:1009F8002D02993003192C02031C032D042D182DE8
:100A0800AC01AD013A304E02D93003194D0203183A
:100A18000E2D0F2D162D3E080319132D142D162DEE
:100A2800C201C20ABE012D2D2C082D0403191D2D4B
:100A38001E2D2D2D1F303A02031C232D242D272D6A
:100A4800AC01AD012D2D0130AC070318AD0A003003
:100A5800AD073F080319312D322D3B2D0030AB0077
:100A68000030AA000030A9000030A8006E2D2B0825
:100A7800031D4E2D02302A02031D4A2D493029023A
:100A8800031D4A2DF1302802031D4A2D031C4D2D4C
:100A98004E2D562D831203138501FF308316031341
:100AA80085006E2D1C30831203138500E3308316F6
:100AB80003138500013083120313A80700300318BD
:100AC8000130A907003003180130AA0700300318C5
:100AD8000130AB073230831232020318742D752DA2
:100AE800BA2F0130DC005C08B207BA01BA2F3230E5
:100AF80032020318802D812D832DBA01E32F023095
:100B0800BA000717E32FE32F3F08031D8C2D8D2D07
:100B18008F2DC601C60A45080319932D942D962DCD
:100B2800C501E32FC71E992D9A2DA12DC030DC00D9
:100B38005C0887040430BA00E32F46080319A52D82
:100B4800A62DE32F31080319AA2DAB2DE32FC601DB
:100B58000A30BA00B401E32F3F08031DB42DB52DA8
:100B6800B72DC601C60AC71EBA2DBB2DC02D3F30F2
:100B7800DC005C088705832D46080319C42DC52DA4
:100B8800E32F31080319C92DCA2DE32FC6011430EC
:100B9800BA00AE2D410C031C871303188717E32FE7
:100BA8000130DC005C08B4070A303406031DDD2D73
:100BB800DE2DE12D87120716E32F33303402031C94
:100BC800E62DE72DE32F0C30BA0022309B0095016B
:100BD800BE01E32F3108031DF22DF32D022E9B01D8
:100BE8000230BA003F30DC005C0887050717013087
:100BF800AC000030AD00B301B30A342EFB30310233
:100C0800031C072E082E102E31081B02031C0D2E64
:100C18000E2E102E0717342E400C031C0713031832
:100C2800071731081B0203181A2E1B2E2B2E013012
:100C3800DC005C08B60703303602031C242E252E80
:100C4800342EB6010130DC005C089B07342EFB30E3
:100C580031020318302E312E342E31089B00342EE9
:100C6800C20138304E024A3003194D0203183D2E96
:100C78003E2EE32FBE01BE0AE32F0130DC005C08E4
:100C8800B4070A303406031D4A2E4B2E4E2E871603
:100C98000712E32F33303402031C532E542EE32F54
:100CA8001630BA00223095009B01EC2D3108031D47
:100CB8005E2E5F2E6D2E9501B301B30A0430BA0083
:100CC800C030DC005C0887040130AC000030AD00A7
:100CD800AA2EFB303102031C722E732E7E2E310891
:100CE8001502031C782E792E7E2EC030DC005C089D
:100CF8008704AA2E40080319822E832E882EC0301E
:100D0800DC005C0887048C2E3F30DC005C0887051B
:100D1800310815020318912E922EA22E0130DC0004
:100D28005C08B60703303602031C9B2E9C2EAA2EA5
:100D3800B6010130DC005C089507AA2EFB303102B1
:100D48000318A72EA82EAA2E3108950038304E0277
:100D58004A3003194D020318B22EB32EB52EBE0128
:100D6800BE0AC201E32FC818BA2EBB2EC52E9501A4
:100D78009B013F30DC005C08870507170230BA008A
:100D8800E32F3308031DC92ECA2EE32FFB301B02A5
:100D9800031CCF2ED02ED22E8717E32F3F08031D1A
:100DA800D62ED72ED92E8717DE2E400C031C87137C
:100DB800031887170130DC005C08B60703303602D9
:100DC800031CE72EE82E872DB6010130DC005C08F5
:100DD8009B071B089500E32FFB301B02031CF52E15
:100DE800F62EFA2E9B01B301B30ABD2E3308031D5C
:100DF800FE2EFF2EE32F22301B020318042F052F8F
:100E0800082F22309B0007160130DC005C08B5076C
:100E180002303502031C112F122F172FB501013094
:100E2800DC005C089B07400C031C0713031807171A
:100E3800E32F34304E02333003194D02031C252FA3
:100E4800262F412F3F30DC005C08870595019B0168
:100E5800C201BE01143039060319332F342F9A2DDD
:100E6800043039060319392F3A2F9A2D16303906CE
:100E7800031D3F2F402FBD2E9A2DFB301506031959
:100E8800462F472F4E2F3308031D4B2F4C2F4E2F25
:100E9800FB309500FB301B060319532F542FE32F0B
:100EA8003308031D582F592FE32FFB309B00E32FE6
:100EB80046304E021B3003194D020318642F652F6C
:100EC8007A2F9B0195011430390603196C2F6D2F69
:100ED8009A2D043039060319722F732F9A2D163064
:100EE8003906031D782F792FBD2E9A2DFB30150654
:100EF80003197F2F802F872F3308031D842F852FF9
:100F0800872FFB309500FB301B0603198C2F8D2F84
:100F1800E32F3308031D912F922FE32F592F330806
:100F28000319972F982F992FE32FC71E9C2F9D2FBA
:100F3800A72F29304A02F73003194902031CA52FAD
:100F4800A62FA72FBB2E3F080319AB2FAC2FB12F0D
:100F5800FB309500FB309B00E32F95019B01E32FAD
:100F6800400C031C871303188717E32F3A08003A2D
:100F780003197B2D023A0319882D063A0319B02D5F
:100F88000E3A0319D42D063A0319EE2D183A03190F
:100F9800412E023A03195A2E083A0319B72E383A45
:100FA8000319CE2D0E3A0319F02E1A3A03191D2FE4
:100FB800053A03195C2F0B3A0319932FB42F1B081A
:100FC8000319E72FE82FE92F871215080319ED2FCA
:100FD800EE2F442B0712442B0A128A110028831380
:100FE8002030840055300A128A11FC210A128A1115
:080FF80083010A128A11B92AD3
:08400000FF3FFF3FFF3FFF3FC0
:02400E00450D5E
:00000001FF
