:060000000A128A11F32F21
:1003F80064008001840A0406031900340406FD29F8
:10040800F3007308F20002300310F20DFF3E031DE3
:10041800082A0310720D413E831203139F00033014
:10042800B800182A0130B8023808031D1C2A1D2AF2
:10043800162A1F151F19212A222A1E2A1E08F10012
:10044800831603131E08F0000800F401F501701C60
:100458002E2A2F2A352A7208F4070318F50A73087A
:10046800F50701300310F20DF30DFF3E031D362A88
:1004780001300310F10CF00CFF3E031D3D2A7008FB
:100488007104031D482A492A2B2A7508F1007408AB
:10049800F0000800F7007008840083130008F100DA
:1004A800840A0008F20004300310F20CF10CFF3E3D
:1004B800031D582A770884000008F300840A0008FE
:1004C800F40004300310F40CF30CFF3E031D662AFD
:1004D80071087302F5007208031C720A7402F600B0
:1004E8007008840075088007840F00080318000A44
:1004F800FF0076087F0780008403080077088312CE
:100508000313D7007608D6005708DC0034305C02A5
:1005180003188F2A902A922ADB01B72ACC305C0272
:10052800031C972A982A9B2AFB30DB00B72A5C0811
:10053800CD3EDA005A08F800F9017808F000790889
:10054800F1006930F2000130F3000A128A11292201
:100558000A128A11710883120313D9007008D8008F
:100568005908223EDB005B08080018308312031389
:1005780083002030DE000030DF0000305F06031DFE
:10058800C72A5E305E060319CA2ACB2AD12A5E081A
:10059800840083175F1C831380010130DE07031872
:1005A800DF0A0030DF0700305F02803003195E0287
:1005B800031CDF2AE02AC12A870183160313870157
:1005C80006111C308312031385008316031381134D
:1005D800E33085009F1383120313BA010609BB0099
:1005E800B80108303802031CFA2AFB2AFC2A072B18
:1005F8003808203E84003B08831380000130DD006A
:100608005D08B807F52A3B08C900C80100300A127E
:100618008A1104220A128A11710883120313CD0069
:100628007008CC0001300A128A1104220A128A11B9
:10063800710883120313CF007008CE0004300A1229
:100648008A1104220A128A11710883120313CB003B
:100658007008CA009B0195010F309D040F30970464
:100668001208FC3901389200FA30831603139200FD
:10067800831203131215F8308F0030308E001014D7
:100688006400831203130C1C4A2B4B2B442BF830A9
:100698008F0030308E000C100130DD005D08B90786
:1006A8000730DD005D08B9053908203E84000609D9
:1006B80083138000FF30BD00BC01B8010830380248
:1006C800031C672B682B692B7C2B3808203E840081
:1006D8000008DD005D08BD053808203E84000008DC
:1006E800DD005D08BC040130DD005D08B807622B41
:1006F8003C083B05DD003B093D055D04C9003B099D
:100708004905C8004908BB0000300A128A110422B2
:100718000A128A11710883120313D3007008D200D9
:1007280001300A128A1104220A128A1171088312EE
:100738000313D5007008D40004300A128A11042269
:100748000A128A11710883120313D1007008D000AD
:100758004C30F00052300A128A114E220A128A11C5
:100768004E30F00054300A128A114E220A128A11B1
:100778004A30F00050300A128A114E220A128A11A9
:1007880083120313B11BC92BCB2B0130CC2B0030A8
:10079800C200B11AD02BD22B0130D32B0030C100AC
:1007A8000130DD005D08B10734080319DC2BDD2BAF
:1007B800F12B0130DD005D08B40724303402031C3E
:1007C800E62BE72BE92BB401F12B0B303402031C89
:1007D800EE2BEF2BF12B0712871233304D023430FA
:1007E80003194C020318F92BFB2B0130FC2B0030AA
:1007F800C000400C031C87110318871505303A0206
:10080800031C072C082C092CC701323033020318AB
:100818000E2C0F2C152C0130DD005D08B307BA0132
:10082800DB2C40080319192C1A2C332C3C303A06BF
:1008380003191F2C202C332C22304B02493003196A
:100848004A020318282C292C332C3F30DD005D0880
:1008580087053C30BA00B401B40A8717DB2C491C61
:10086800362C372C4F2C28303A0603193C2C3D2CBB
:100878004F2C3E080319412C422C4F2C3F30DD00F1
:100888005D088705B401B40A95019B01B6010717F5
:100898002830BA00DB2C29304F02F63003194E02FB
:1008A8000318572C582C682C32303A0603195D2C43
:1008B8005E2C682C3F30DD005D088705B401B40A62
:1008C80087173230BA00DB2CC91C6B2C6C2C7F2CA0
:1008D8001E303A020318712C722C7F2CB401B40A12
:1008E80095019B013F30DD005D0887058717C81219
:1008F8001E30BA00DB2C43080319832C842C912C5E
:100908001E303A060319892C8A2C912C95019B01DB
:100918002630BA00B401B40ADB2C4D304F02C9307E
:1009280003194E02031C992C9A2CAF2C37303A0627
:1009380003199F2CA02CAF2C28303A060319A52C9C
:10094800A62CAF2CB401B40A3730BA003F30DD0012
:100958005D088705312C1E303A060319B42CB52CD6
:10096800CC2C3208031DB92CBA2CCE2C4D08F7001C
:100978004C08F6000A128A1182220A128A1183127E
:100988000313B200253032020318CB2CCC2CDB2CFD
:10099800B201DB2C4D08F7004C08F6000A128A1148
:1009A80082220A128A1183120313B200DB2C473009
:1009B8004F02A53003194E02031CE32CE42CE62C4D
:1009C8000615F02C46304F021B3003194E0203184F
:1009D800EE2CEF2CF02C06113A302D029930031929
:1009E8002C02031CF82CF92C0D2DAC01AD013A306A
:1009F8004F02D93003194E020318032D042D0B2D75
:100A08003F080319082D092D0B2DC301C30ABF0187
:100A1800222D2C082D040319122D132D222D1F30E1
:100A28003A02031C182D192D1C2DAC01AD01222DE5
:100A38000130AC070318AD0A0030AD0740080319B0
:100A4800262D272D302D0030AB000030AA000030B5
:100A5800A9000030A800632D2B08031D432D023088
:100A68002A02031D3F2D49302902031D3F2DF13075
:100A78002802031D3F2D031C422D432D4B2D8312AD
:100A880003138501FF30831603138500632D1C3083
:100A9800831203138500E3308316031385000130A6
:100AA80083120313A807003003180130A907003088
:100AB80003180130AA07003003180130AB073230A1
:100AC800831233020318692D6A2DBA2F0130DD0015
:100AD8005D08B307BA01BA2F323033020318752DF7
:100AE800762D782DBA01E32F0230BA000717E32FCD
:100AF8004008031D802D812D832DC701C70A460894
:100B08000319872D882D8A2DC601E32FC81E8D2D28
:100B18008E2D972DC030DD005D0887040430BA00A3
:100B2800BE01BE0AE32F470803199B2D9C2DE32F16
:100B380032080319A02DA12DE32FC7010A30BA00EE
:100B4800B501E32F4008031DAA2DAB2DAD2DC7011C
:100B5800C70AC81EB02DB12DB92D3F30DD005D0884
:100B680087050230BA00BE017A2D47080319BD2D4A
:100B7800BE2DE32F32080319C22DC32DE32FC70161
:100B88001430BA00A42D420C031C871303188717CE
:100B9800E32F0130DD005D08B5070A303506031D77
:100BA800D62DD72DDA2D87120716E32F33303502CD
:100BB800031CDF2DE02DE32F0C30BA0022309B0000
:100BC8009501BF01E32F3208031DEB2DEC2DFB2D02
:100BD8009B010230BA003F30DD005D08870507172A
:100BE8000130AC000030AD00B401B40A2D2EFB304A
:100BF8003202031C002E012E092E32081B02031C90
:100C0800062E072E092E07172D2E410C031C07133D
:100C18000318071732081B020318132E142E242E4C
:100C28000130DD005D08B70703303702031C1D2EB5
:100C38001E2E2D2EB7010130DD005D089B072D2EDD
:100C4800FB3032020318292E2A2E2D2E32089B0043
:100C58002D2EC30138304F024A3003194E020318B3
:100C6800362E372EE32FBF01BF0AE32F0130DD00F8
:100C78005D08B5070A303506031D432E442E472E5E
:100C880087160712E32F33303502031C4C2E4D2EE6
:100C9800E32F1630BA00223095009B01E52D32086B
:100CA800031D572E582E662E9501B401B40A043040
:100CB800BA00C030DD005D0887040130AC000030A8
:100CC800AD00A32EFB303202031C6B2E6C2E772E48
:100CD80032081502031C712E722E772EC030DD00EB
:100CE8005D088704A32E410803197B2E7C2E812ED4
:100CF800C030DD005D088704852E3F30DD005D08CB
:100D080087053208150203188A2E8B2E9B2E013078
:100D1800DD005D08B70703303702031C942E952EBB
:100D2800A32EB7010130DD005D089507A32EFB3027
:100D380032020318A02EA12EA32E320895003830B7
:100D48004F024A3003194E020318AB2EAC2EAE2EBA
:100D5800BF01BF0AC301E32FC918B32EB42EC72E93
:100D680095019B013F30DD005D0887053E08031DA6
:100D7800BE2EBF2EC02E782D0430BA00C030DD0044
:100D88005D088704E32F3408031DCB2ECC2EE32FF8
:100D9800FB301B02031CD12ED22ED42E8717E32F33
:100DA8004008031DD82ED92EDB2E8717E02E410CC4
:100DB800031C8713031887170130DD005D08B70788
:100DC80003303702031CE92EEA2EE32FB701013066
:100DD800DD005D089B071B089500E32FFB301B0215
:100DE800031CF72EF82E042F9B01B401B40A3F30E0
:100DF800DD005D08870507170230BA00BE01E32F42
:100E08003408031D082F092FE32F22301B02031873
:100E18000E2F0F2F122F22309B0007160130DD00F6
:100E28005D08B60702303602031C1B2F1C2F212F2A
:100E3800B6010130DD005D089B07410C031C071358
:100E480003180717E32F34304F02333003194E02CB
:100E5800031C2F2F302F4C2F3F30DD005D088705F6
:100E680095019B01C301BF013E0803193C2F3D2F8B
:100E7800442FC030DD005D0887040430BA00E32F3A
:100E88003F30DD005D08870507170230BA00E32F01
:100E9800FB3015060319512F522F592F3408031D03
:100EA800562F572F592FFB309500FB301B0603197F
:100EB8005E2F5F2FE32F3408031D632F642FE32F6A
:100EC800FB309B00E32F46304F021B3003194E02C4
:100ED80003186F2F702F782F9B0195013E08031977
:100EE800762F772F442F3D2FFB30150603197D2FC2
:100EF8007E2F852F3408031D822F832F852FFB30EB
:100F08009500FB301B0603198A2F8B2FE32F34081B
:100F1800031D8F2F902FE32F642F34080319952F6B
:100F2800962F972FE32FC81E9A2F9B2FA72F293074
:100F38004B02F73003194A02031CA32FA42FA72F33
:100F480095019B01FB2E40080319AB2FAC2FB12F45
:100F5800FB309500FB309B00E32F95019B01E32FAD
:100F6800410C031C871303188717E32F3A08003A2C
:100F78000319702D023A03197C2D063A0319A62D80
:100F88000E3A0319CD2D063A0319E72D183A03191D
:100F98003A2E023A0319532E083A0319B02E383A5A
:100FA8000319C72D0E3A0319F22E1A3A0319272FDF
:100FB800053A0319672F0B3A0319912FB42F1B0811
:100FC8000319E72FE82FE92F871215080319ED2FCA
:100FD800EE2F442B0712442B0A128A110028831380
:100FE8002030840056300A128A11FC210A128A1114
:080FF80083010A128A11B92AD3
:08400000FF3FFF3FFF3FFF3FC0
:02400E00450D5E
:00000001FF
