:060000000A128A11F32F21
:1003A20064008001840A0406031900340406D22979
:1003B200F3007308F20002300310F20DFF3E031D3A
:1003C200DD290310720D413E831203139F00033097
:1003D200B800ED290130B8023808031DF129F229CD
:1003E200EB291F151F19F629F729F3291E08F10019
:1003F200831603131E08F0000800F401F501701CB7
:10040200032A042A0A2A7208F4070318F50A730851
:10041200F50701300310F20DF30DFF3E031D0B2A09
:1004220001300310F10CF00CFF3E031D122A70087C
:100432007104031D1D2A1E2A002A7508F100740882
:10044200F0000800F7007008840083130008F10030
:10045200840A0008F20004300310F20CF10CFF3E93
:10046200031D2D2A770884000008F300840A00087F
:10047200F40004300310F40CF30CFF3E031D3B2A7E
:1004820071087302F5007208031C720A7402F60006
:100492007008840075088007840F00080318000A9A
:1004A200FF0076087F078000840308007708831224
:1004B2000313D7007608D6005708DC0034305C02FC
:1004C2000318642A652A672ADB018C2ACC305C0275
:1004D200031C6C2A6D2A702AFB30DB008C2A5C0814
:1004E200CD3EDA005A08F800F9017808F0007908E0
:1004F200F1006930F2000130F3000A128A11FE2184
:100502000A128A11710883120313D9007008D800E5
:100512005908223EDB005B080800183083120313DF
:1005220083002030DE000030DF0000305F06031D54
:100532009C2A5E305E0603199F2AA02AA62A5E081C
:10054200840083175F1C831380010130DE070318C8
:10055200DF0A0030DF0700305F02803003195E02DD
:10056200031CB42AB52A962A87018316031387012E
:1005720006111C30831203138500831603138113A3
:10058200E33085009F1383120313BA010609BB00EF
:10059200B80108303802031CCF2AD02AD12ADC2A1B
:1005A2003808203E84003B08831380000130DD00C0
:1005B2005D08B807CA2A3B08C900C80100300A1200
:1005C2008A11D9210A128A11710883120313CD00EC
:1005D2007008CC0001300A128A11D9210A128A113C
:1005E200710883120313CF007008CE0004300A1280
:1005F2008A11D9210A128A11710883120313CB00BE
:100602007008CA009B0195010F309D040F309704BA
:100612001208FC3901389200FA3083160313920053
:10062200831203131215F8308F0030308E0010142D
:100632006400831203130C1C1F2B202B192BF83080
:100642008F0030308E000C100130DD005D08B907DC
:100652000730DD005D08B9053908203E840006092F
:1006620083138000FF30BD00BC01B801083038029E
:10067200031C3C2B3D2B3E2B512B3808203E840083
:100682000008DD005D08BD053808203E8400000832
:10069200DD005D08BC040130DD005D08B807372BC2
:1006A2003C083B05DD003B093D055D04C9003B09F3
:1006B2004905C8004908BB0000300A128A11D92135
:1006C2000A128A11710883120313D3007008D20030
:1006D20001300A128A11D9210A128A117108831271
:1006E2000313D5007008D40004300A128A11D921EC
:1006F2000A128A11710883120313D1007008D00004
:100702004C30F00052300A128A1123220A128A1146
:100712004E30F00054300A128A1123220A128A1132
:100722004A30F00050300A128A1123220A128A112A
:1007320083120313B11B9E2BA02B0130A12B00307F
:10074200C200B11AA52BA72B0130A82B0030C10083
:100752000130DD005D08B10734080319B12BB22B5B
:10076200C62B0130DD005D08B40724303402031CBF
:10077200BB2BBC2BBE2BB401C62B0B303402031C8B
:10078200C32BC42BC62B0712871233304D023430D1
:1007920003194C020318CE2BD02B0130D12B003081
:1007A200C000400C031C87110318871505303A025C
:1007B200031CDC2BDD2BDE2BC70132303302031886
:1007C200E32BE42BEA2B0130DD005D08B307BA010D
:1007D200C12C40080319EE2BEF2B082C3C303A06B3
:1007E2000319F42BF52B082C22304B024930031944
:1007F2004A020318FD2BFE2B082C3F30DD005D085A
:1008020087053C30BA00B401B40A8717C12C491CD1
:100812000B2C0C2C242C28303A060319112C122CE8
:10082200242C3E080319162C172C242C3F30DD00F3
:100832005D088705B401B40A95019B01B60107174B
:100842002830BA00C12C29304F02F63003194E026B
:1008520003182C2C2D2C3D2C32303A060319322C45
:10086200332C3D2C3F30DD005D088705B401B40A0E
:1008720087173230BA00C12CC91C402C412C5B2C8A
:100882001E303A02031C462C472C4D2C26303A06C9
:10089200031D4C2C4D2C5B2CB401B40A95019B0119
:1008A2003F30DD005D0887058717C81287111E30AB
:1008B200BA00C12C430803195F2C602C772C1E3020
:1008C2003A020318652C662C772C95019B01263081
:1008D2003A0603196D2C6E2C742C2630BA003F3068
:1008E200DD005D088705B401B40AC12C4D304F020A
:1008F200C93003194E02031C7F2C802C952C3730F3
:100902003A060319852C862C952C28303A060319B1
:100912008B2C8C2C952CB401B40A3730BA003F30A2
:10092200DD005D088705062C1E303A0603199A2C55
:100932009B2CB22C3208031D9F2CA02CB42C4D08EA
:10094200F7004C08F6000A128A1157220A128A117D
:1009520083120313B200253032020318B12CB22CD9
:10096200C12CB201C12C4D08F7004C08F6000A1246
:100972008A1157220A128A1183120313B200C12C60
:1009820047304F02A53003194E02031CC92CCA2C52
:10099200CC2C0615D62C46304F021B3003194E02C2
:1009A2000318D42CD52CD62C06114308031DDA2C9F
:1009B200DB2C1F2D3A302D02993003192C02031C17
:1009C200E32CE42CF82CAC01AD013C304F02E530B5
:1009D20003194E020318EE2CEF2CF62C3F080319D4
:1009E200F32CF42CF62CC301C30ABF011F2D3F08C0
:1009F2000319FC2CFD2C112D38304F024B300319FA
:100A02004E02031C052D062D0A2DAC01AD01BF01BE
:100A12001F2D0130AC070318AD0A0030AD071F2DA2
:100A220038304F024A3003194E020318192D1A2D7D
:100A32001D2DBF01BF0A1F2DAC01AD0140080319D6
:100A4200232D242D2D2D0030AB000030AA000030C4
:100A5200A9000030A800612D2B08031D402D023093
:100A62002A02031D3C2D49302902031D3C2DF13081
:100A72002802031D3C2D031C3F2D402D492D8312BE
:100A82000313B3018501FF30831603138500612D23
:100A92001C30831203138500E33083160313850091
:100AA200013083120313A807003003180130A9078D
:100AB200003003180130AA07003003180130AB07D9
:100AC2003230831233020318672D682DBA2F01309A
:100AD200DD005D08B307BA01BA2F323033020318C2
:100AE200732D742D762DBA01E32F0230BA00071749
:100AF200E32FE32F4008031D7F2D802D822DC70198
:100B0200C70A38304F024A3003194E0203188A2DA1
:100B12008B2D8D2DBF01BF0A46080319912D922DF1
:100B2200942DC601E32FC81E972D982DA12DC030FC
:100B3200DD005D0887040430BA00BE01BE0AE32F5F
:100B420047080319A52DA62DE32F32080319AA2D54
:100B5200AB2DE32FC7010A30BA00B501E32F4008DD
:100B6200031DB42DB52DB72DC701C70A38304F026A
:100B72004A3003194E020318BF2DC02DC22DBF01EA
:100B8200BF0AC81EC52DC62DCE2D3F30DD005D0823
:100B920087050230BA00BE01782D47080319D22D0D
:100BA200D32DE32F32080319D72DD82DE32FC701F8
:100BB2001430BA00AE2D3C304F02E63003194E021B
:100BC200031CE42DE52D002E3F30DD005D08870576
:100BD20095019B01C3013E080319F02DF12DF82D5B
:100BE200C030DD005D0887040430BA00E32F3F30D7
:100BF200DD005D08870507170230BA00E32F420CBB
:100C0200031C871303188717E32F0130DD005D08EB
:100C1200B5070A303506031D0F2E102E132E87122C
:100C22000716E32F33303502031C182E192EE32F3B
:100C32000C30BA0022309B009501E32FAC01AD01CC
:100C42003208031D252E262E312E9B010230BA00BA
:100C52003F30DD005D0887050717B401B40AE32FB2
:100C6200FB303202031C362E372E3E2E32081B0278
:100C7200031C3C2E3D2E3E2E782D410C031C0713E7
:100C82000318071732081B020318482E492E592E43
:100C92000130DD005D08B70703303702031C522E16
:100CA200532E7A2DB7010130DD005D089B07E32F3B
:100CB200FB30320203185E2E5F2E7A2D32089B0023
:100CC200E32F0130DD005D08B5070A303506031D4C
:100CD2006B2E6C2E6F2E87160712E32F33303502E0
:100CE200031C742E752EE32F1630BA0022309500A5
:100CF2009B01E32FAC01AD013208031D812E822E30
:100D02008C2E9501B401B40A0430BA00C030DD0063
:100D12005D088704E32FFB303202031C912E922ED2
:100D2200992E32081502031C972E982E992E872E83
:100D3200410803199D2E9E2EA32EC030DD005D08B2
:100D42008704A72E3F30DD005D08870532081502B3
:100D52000318AC2EAD2EBD2E0130DD005D08B707A5
:100D620003303702031CB62EB72E7A2DB70101309D
:100D7200DD005D089507E32FFB3032020318C22E17
:100D8200C32E7A2D32089500E32FC918C92ECA2E18
:100D9200D62E95019B013F30DD005D0887053E0898
:100DA200031DD42ED52E852E762D3408031DDA2E62
:100DB200DB2EE32FFB301B02031CE02EE12EE32E81
:100DC2008717E32F4008031DE72EE82EEA2E871728
:100DD200EF2E410C031C8713031887170130DD0027
:100DE2005D08B70703303702031CF82EF92EE32FF4
:100DF200B7010130DD005D089B071B089500E32F5A
:100E0200FB301B02031C062F072F132F9B01B4017B
:100E1200B40A3F30DD005D08870507170230BA00CB
:100E2200BE01E32F3408031D172F182FE32F2230A2
:100E32001B0203181D2F1E2F212F22309B00071685
:100E42000130DD005D08B60702303602031C2A2F8E
:100E52002B2F302FB6010130DD005D089B07410CBE
:100E6200031C071303180717E32F34304F023330E4
:100E720003194E02031C3E2F3F2F4C2F3F30DD0043
:100E82005D08870595019B01BF013E0803194A2FA2
:100E92004B2FF82DF12DFB3015060319512F522F30
:100EA200592F3408031D562F572F592FFB30950009
:100EB200FB301B0603195E2F5F2FE32F3408031D3F
:100EC200632F642FE32FFB309B00E32F46304F024A
:100ED2001B3003194E0203186F2F702F782F9B01BE
:100EE20095013E080319762F772FF82DF12DFB304F
:100EF200150603197D2F7E2F852F3408031D822F9F
:100F0200832F852FFB309500FB301B0603198A2F98
:100F12008B2FE32F3408031D8F2F902FE32F642F85
:100F220034080319952F962F972FE32FC81E9A2F57
:100F32009B2FA72F29304B02F73003194A02031CBB
:100F4200A32FA42FA72F95019B010A2F4008031955
:100F5200AB2FAC2FB12FFB309500FB309B00E32F62
:100F620095019B01E32F410C031C8713031887177C
:100F7200E32F3A08003A03196E2D023A03197B2D2A
:100F8200063A0319B02D0E3A0319062E063A031932
:100F92001F2E183A0319622E023A03197B2E083AC1
:100FA2000319C62E383A0319DC2D0E3A0319012F04
:100FB2001A3A0319362F053A0319672F0B3A031908
:100FC200912FB42F1B080319E72FE82FE92F87125F
:100FD20015080319ED2FEE2F192B0712192B0A12E0
:100FE2008A11002883132030840056300A128A1195
:0E0FF200D1210A128A1183010A128A118E2A55
:08400000FF3FFF3FFF3FFF3FC0
:02400E00450D5E
:00000001FF
